:100000000C942A000C943F000C943F000C943F0089
:100010000C943F000C943F000C943F000C943F0064
:100020000C943F000C943F000C943F000C943F0054
:100030000C943F000C943F000C943F000C943F0044
:100040000C943F000C943F000C943F000C943F0034
:100050000C943F0011241FBECFE5D4E0DEBFCDBF1E
:1000600010E0A0E6B0E0ECE1F2E002C005900D92F5
:10007000A037B107D9F70E9441000C940C010C94F1
:1000800000000F931F93CF93DF93CDB7DEB76E972A
:100090000FB6F894DEBF0FBECDBF8CE0E0E6F0E017
:1000A000DE01509601900D928A95E1F71C8E1D8E0F
:1000B0001E8E0E94B500FE0131968FE0DF011D9279
:1000C0008A95E9F7E199FECF8E01005F1F4FF80195
:1000D00001900020E9F73197AF01401B510B60E020
:1000E00070E0C8010E94F500F80101900020E9F7D6
:1000F0003197AF01401B510B60E070E0CE010196DB
:100100000E94E500CE0101960E94D60080E090E0BA
:100110006E960FB6F894DEBF0FBECDBFDF91CF91C4
:100120001F910F91089588BB85B3897F85BBA89ADD
:1001300082E08A95F1F700C0A89887EC90E00197DB
:10014000F1F700C00000089588BBA99885B38560C9
:1001500085BB82E08A95F1F700C0A89887EC90E013
:100160000197F1F700C00000089584B3876084BB55
:100170008FEF87BB8FE39CE90197F1F700C0000088
:1001800088E30E9493008CE00E94930086E00E9426
:10019000930081E00E9493008FE99FE00197F1F7BF
:1001A00000C0000080E80E9493000895CF93DF9381
:1001B000EC018881882331F021960E94A400899166
:1001C0008111FBCFDF91CF910895DC01CB01FC01C0
:1001D000E199FECF06C0FFBBEEBBE09A31960DB2AF
:1001E0000D9241505040B8F70895DC01CB0103C097
:1001F0002D910E94000141505040D0F70895262FC4
:10020000E199FECF9FBB8EBB2DBB0FB6F894E29A4F
:0C021000E19A0FBE01960895F894FFCF0C
:10021C00454550524F4D20544553540000000000AA
:00000001FF
