:040000000C949E01BD
:100004000C9400000C9400000C9400000C9400006C
:100014000C9453020C9454020C9455020C94560202
:100024000C9400000C9400000C9400000C9400004C
:100034000C9400000C9400000C9400000C9400003C
:100044000C9400000C9400000C9400000C945702D3
:100054000C9400000C9400000C9400000C9400001C
:100064000C9400000C9400000C9400000C9400000C
:100074000C9492020C9400000C9400000C94000068
:100084000C9400000C9400001027E80364000A009C
:1000940001000010000110000100E501E601EF017C
:1000A400020209020C02130214021D022302290295
:1000B4003A0201004D616368696E65203A204F463B
:1000C400460000005468652053797374656D206997
:1000D40073207475726E696E67206F6E003C3030E9
:1000E400313E005468652053797374656D206973DB
:1000F400207475726E696E67206F6666003C3030DE
:10010400323E00526573657474696E67204661758A
:100114006C7473003C3030333E003C3030343E006D
:100124003C3030353E005468652053797374656DF6
:1001340020686173207475726E6564206F6E00545C
:1001440068652053797374656D20686173207475D4
:10015400726E6564206F6666004661756C74732008
:1001640068617665206265656E20726573657400EA
:1001740020005E00253033640025303264004D6178
:10018400696E2053637265656E00566F6C746167A7
:10019400652073657420746F3A00560053657420AB
:1001A40076616C75652073686F756C640062652098
:1001B4006265747765656E203131302D00313335D9
:1001C40020766F6C74730043757272656E7420735D
:1001D400657420746F3A004100626520626574772B
:1001E40065656E2031302D00323020616D707300F2
:1001F40057656C636F6D6520746F20484D490053DB
:10020400657420506172616D657465727300536525
:100214006E736F722056616C756573005041524164
:100224004D455445525300566F6C746167652028E0
:10023400564F4C5453290043757272656E742028CE
:10024400414D5053290053657420766F6C74616777
:10025400653A005365742063757272656E743A0072
:1002640053454E534F525300416E616C6F670044C7
:1002740069676974616C00546865726D6F636F754A
:10028400706C65004E6F2066756E6374696F6E7373
:100294002020202020202020202061646465642008
:1002A400796574004368303A004368313A00436822
:1002B400323A004368333A004368343A00436835BD
:1002C4003A004368363A004368373A004572726F21
:1002D400722E0052657374617274696E6720696E60
:1002E4002035207365636F6E64732E0001002D4EFC
:1002F400414E00494E46000080C00C004F05AA0044
:1003040001005C06B600100000058E011000100507
:10031400CB010F002005F40107002F05D0021900BE
:100324003605D70202000C00C60001007A06F0026E
:1003340002007E06FC020000F894EE27ECBBF1E01C
:10034400F5BFE5BFE0936C00F8E1F1BDE1BD8DE0E0
:10035400A2E0BB27ED938A95E9F780E090E1A0E065
:10036400B1E0ED930197E9F7EEEFF2E08591959115
:10037400009761F0A591B59105901590BF01F0012A
:1003840005900D920197E1F7FB01F0CF8BBFEFEFE2
:10039400EDBFE0E1EEBFC0E0D5E00C948B061A930C
:1003A4000A9300E010E000E010E00E94500BE030FF
:1003B40039F00E94500BEA9393D00F5F1F4FF5CF93
:1003C400198108816CC008950E94980AE8ECF0E055
:1003D4000E94570BE1EEF0E008C00E94980AE7EE95
:1003E400F0E00E94570BE1E0F1E03F017A926A925B
:1003F400D6DFE4EFF1E00E945B0B0E94980A0895B7
:10040400E7E0F1E00E94570BE8E1F1E005C0EEE11E
:10041400F1E002C0E4E2F1E03F017A926A92BFDFC8
:10042400089508951A930A931A930A930E94D60A78
:10043400099119910895E3E4F1E02F015A924A9247
:10044400FBC0EDE5F1E02F015A924A92F5C00E94FB
:10045400261005E010E00E945F0B49F00E94660B35
:1004640009F459012F5F3F4F0F5F1F4FF4CF10C0A6
:100474000E94261005E010E00E945F0B49F00E94E4
:10048400660B09F459012F5F3F4F0F5F1F4FF4CFE5
:1004940025015A924A920E94D60A0E942D1024964F
:1004A40008951895189518951895EA93FA93EFB747
:1004B400EA93E0915706E03071F0E150E09357067B
:1004C400EC2DC394F0E0E95EF94FE081ECB9E0E48F
:1004D400EC1509F4CC24E991EFBFF991E991189551
:1004E400A0915706A034E1F3F894E0915706E03068
:1004F40011F45D9911C0ED2DD394F0E0E95EF94F4C
:10050400A881A083E0E4ED1509F4DD24E091570609
:10051400EF5FE093570602C0E881ECB978945EC0BF
:100524000A921A92FA926A937A938A939A93AA9362
:10053400BA93EA93FA93EFB7EA93E0E0879BE1E09A
:10054400F0E0F068DF01E0915806F0915906EE0FF3
:10055400FF1FEA2BFB2BE0935806F0935906A0915A
:100564005806B0915906A030E0ECBE0711F4AB98E0
:100574002BDFE0E0869BE1E0F0E0F068DF01E09152
:100584005A06F0915B06EE0FFF1FEA2BFB2BE0935C
:100594005A06F0935B06A0915A06B0915B06A03010
:1005A400E0ECBE0711F4AB9A18DFE991EFBFF991C3
:1005B400E991B991A9919991899179916991F99068
:1005C400199009901895E881E7B98BE18A95F1F7BC
:1005D400369A349BFECF349AE4B1F5B1219608954E
:1005E4000E946F0B0E94780B0E947E0BE2E00E9437
:1005F400810BE3E00E94810BE09160060E94870B6F
:10060400E6E7F1E017C00E948C0B0E947E0B0E946B
:10061400910B0E947E0B0E946F0B0E94970B0E940D
:100624007E0BE0E0EA93E0916206EA930E94870A77
:10063400E5EEF0E0FA93EA930E94D60A0895E4E71F
:10064400F6E00E949D0B0E94A40B0E94AD0BE4E710
:10065400F6E00EC0E7E7F6E0FA93EA93EDE7F1E09F
:10066400FA93EA930E94B40B0E94AD0BE7E7F6E01D
:10067400FA93EA930E94C80A0895E0916206F09101
:100684006306E0936406F0936506BDDF0E94BD0B2C
:100694000A991FC00A9BFECFA4E6B6E0ED91FD9136
:1006A4003197FE93EE93A0916506AA234AF4E09154
:1006B4006406F0916506A881B981EA0FFB1F04C0A6
:1006C400E0916406F0916506DF01E881F9810E94FA
:1006D400C00B0B990EC00B9BFECFA2E6B6E00E94A6
:1006E400C80BE881F981A0916206B09163060E946B
:1006F400C00B089918C0089BFECF0E94CE0B1A9716
:1007040024F40E94D30B319602C00E94D30BAAE0BA
:10071400B0E00E947A0FA0916206B0916306EA0FDE
:10072400FB1F0E94D80B09992DC0099BFECF0E9484
:10073400CE0B1297D1F40E94DD0BE2E8F1E00E94A7
:10074400570B0E94E00BE1E0F0E0E0937206F093B7
:100754007306E0E0E0935E06E0935F06E1E0F0E01C
:10076400E0936E06F0936F060DC00E94E30B1CF03D
:100774000E94E80B03C00E94E80B3197E0935C06EB
:10078400F0935D06229608950E94EE0B0A991DC00F
:100794000A9BFECFE1E0F0E0E017F10721F4F80155
:1007A4000E940D0C04C00E94A40B0E94160C0E940F
:1007B4006D0F0E94570F0E941E0C0E940D0C0E9488
:1007C400270C0E941E0C3BDF0BDF0B9908C00B9B10
:1007D400FECFA0E6B6E00E94C80B0E942E0C08993A
:1007E4004DC0089BFECF0E94A40BEE36A0E0FA0792
:1007F400A0E06A07A0E07A0754F00E940D0CA83824
:10080400E0E0BE07E0E08E07E0E09E070CF012C0D7
:100814000E94DD0BE0E0F5E00E943C0C0E94400CDD
:10082400EEE9F1E00E94570B0ADF0E94460C0E9499
:100834004D0C20C00E94DD0BE0EAF1E00E94570B52
:100844000E94910BE1EBF1E00E94570BE0E00E9463
:10085400870BE1ECF1E00E94570BE0E0E0936606C1
:10086400E0936706E0936806E09369060E944D0CE6
:100874000E94460CE0EDF7E00E945B0B099911C061
:10088400099BFECF0E94460C0E94E30B1CF00E94C1
:10089400E80B03C00E94E80B3197E0935C06F093E9
:1008A4005D06198108810C94E7080E94EE0B0A99F1
:1008B4001DC00A9BFECFE1E0F0E0E017F10721F450
:1008C400F8010E94500C04C00E94B40B0E94160C44
:1008D4000E946D0F0E94570F0E94590C0E94500CE9
:1008E4000E94270C0E94590CB5DE7ADE0B9908C0D1
:1008F4000B9BFECFA0E6B6E00E94C80B0E942E0C14
:1009040008994EC0089BFECF0E94B40BEA30A0E0C9
:10091400FA07A0E06A07A0E07A0754F00E94500C9E
:10092400A531E0E0BE07E0E08E07E0E09E070CF0B2
:1009340013C00E94DD0BE0E1F5E00E943C0CE3E013
:100944000E94620CEBEDF1E00E94570B83DE0E94E3
:10095400460C0E944D0C20C00E94DD0BE0EAF1E041
:100964000E94570B0E94910BEDEDF1E00E94570B92
:10097400E0E00E94870BECEEF1E00E94570BE0E010
:10098400E0936A06E0936B06E0936C06E0936D06D1
:100994000E944D0C0E94460CE0EDF7E00E945B0BB8
:1009A400099911C0099BFECF0E94460C0E94E30BDB
:1009B4001CF00E94E80B03C00E94E80B3197E093FF
:1009C4005C06F0935D06198108810C94E708E1E068
:1009D400F0E00E94D80BE0E0E0936006E09361064B
:1009E4000E94670C0E94DD0BE0E2F5E00E943C0CE3
:1009F4000E94E00BE2E0F0E0ADC00E94980AE2E061
:100A0400F0E00E94D80B0E94670CE0E0E0936006DF
:100A1400E09361060E94CE0B129781F40E946D0C44
:100A2400E3E0F2E00E94570BE1E00E94620CE2E195
:100A3400F2E00E94570B0E94730CECCF08950E94C1
:100A4400980A0E94CE0B5E97B9F4E3E00E94790CF9
:100A5400E0E2F2E00E94570B0E946D0CEBE2F2E040
:100A64000E94570BE1E00E94620CEBE3F2E00E946B
:100A7400570B0E94730CE5CF08950E94CE0BAC3245
:100A8400E1E0BE07B9F40E94DD0BEAE4F2E00E9463
:100A9400570BD5DDA0917006B09171061B9721F01C
:100AA4000E947E0C71DEF6CFE0E0E0937006E093E6
:100AB4007106E3CF08950E94CE0BAD32E1E0BE078C
:100AC400B9F40E94DD0BE7E5F2E00E94570BC2DDAA
:100AD400A0917006B09171061B9721F00E947E0CC4
:100AE400E4DEF6CFE0E0E0937006E0937106E3CF36
:100AF40008950E94980A0E94670C0E94CE0B5F978B
:100B0400F1F4E4E00E94790CE4E6F2E00E94570B71
:100B14000E946D0CECE6F2E00E94570BE1E00E94AB
:100B2400620CE3E7F2E00E94570B0E94780BEBE7BC
:100B3400F2E00E94570B0E947E0C9FDDDECF0895E9
:100B44000E948C0BE8E8F2E00E94570B0E94E00B35
:100B5400EFE1F0E0E0935C06F0935D0608952397DF
:100B64001A930A9300E010E00E94DD0BE8EAF2E039
:100B74000E94570B0E94910BEDEAF2E00E94570B82
:100B8400E0E00E94870BE2EBF2E00E94570B0E9428
:100B9400970BE7EBF2E00E94570BE9E00E94830C0D
:100BA400ECEBF2E00E94570BE9E00E94620CE1ECEE
:100BB400F2E00E94570BE9E00E94870BE6ECF2E0BA
:100BC4000E94570BE9E00E94790CEBECF2E00E94E2
:100BD400570B099B52C0E0E00E94880C0E94910CC4
:100BE400E4E00E94830C0E949B0CE1E00E94880CCC
:100BF4000E94910C0E94400C0E949B0CE2E00E9417
:100C0400880C0E94910CE4E00E94870B0E949B0CCC
:100C1400E3E00E94880C0E94910CE4E00E94790CAD
:100C24000E949B0CE4E00E94880C0E94910CEDE071
:100C34000E94830C0E949B0CE5E00E94880C0E9499
:100C4400910CEDE00E94620C0E949B0CE6E00E9475
:100C5400880C0E94910CEDE00E94870B0E949B0C73
:100C6400E7E00E94880C0E94910CEDE00E94790C50
:100C74000E949B0C0E94E00BACCFEFE1F0E00E94DD
:100C8400D80BF4C00E94D30BE130A0E0FA0711F4B2
:100C94009EDE3EC0E230A0E0FA0711F4AEDE38C0BA
:100CA400EE31A0E0FA0711F4CADE32C0EC32A1E062
:100CB400FA0711F4E2DE2CC0ED32A1E0FA0711F4D8
:100CC400FADE26C0EF31A0E0FA0711F412DF20C0EB
:100CD400E633A1E0FA0711F433DF1AC0E733A1E0E9
:100CE400FA0711F43CDF14C00E94DD0BEFE2F5E0DB
:100CF4000E943C0C0E94910BE6E3F5E00E943C0C40
:100D0400E0EDF7E00E945B0BE1E0F0E00E94D80B1D
:100D14000895E0E0EBBBEABBE8BBE7E0E7BBEFEF3D
:100D2400E5BBE4BBE0ECE2BBE0E0E1BBEFE0E3B950
:100D3400E0E0E2B9E0936200E0936100E0936500D3
:100D4400E0936400E0938B00E9E0E0938A00E0E044
:100D5400E0938900E0938800E0938100E0938000B1
:100D6400EFEFE0938700E0938600E0E0E0938500F6
:100D7400E0938400E0938300E0938200E0936A00B0
:100D8400EAEAEABFE0EFE9BFE8BFE0E0E7BFE4E09A
:100D9400E0937D00E0E0EBB9E8E4EAB9E6E0E09353
:100DA4009500E0E0E0939000E3E3E9B9E0E0E0934C
:100DB4009B00E8E1E0939A00E6E0E0939D00E0E028
:100DC400E0939800E7E6E0939900E0E8E8B9E0E012
:100DD400E0BDE7B9E4E8E6B9E0E5EDB9E0E0EEB995
:100DE400E09374000E942B0DE0E0EA93EA93EA9307
:100DF4000E941A0BE0E1EA930E94E60A789442DF2B
:100E0400FECFFFCF1A930A93AA81BB8112960E9448
:100E1400EC0F309729F1AA81BB8114960E94EC0F44
:100E24008F01309761F00230E0E01E07C0F0F80156
:100E340031978F01AA81BB811496ED93FC93AA810B
:100E4400BB8112960E94C80B3197AC81A083AA8102
:100E5400BB810E94EC0FFF2312F00E94C80B06C056
:100E6400AA81BB81EFEFFFEFED93FC931981088119
:100E74002596089526970E94241010E0AC85BD8520
:100E8400E0E0F0E0ED93FC93EA89FB893196EA8B8C
:100E9400FB8B3197E4912E2FE03011F40C94690808
:100EA400E12FE03039F4253211F411E002C00E9440
:100EB4009E0C0CC1E130A9F4253219F40E949E0C59
:100EC40004C112E040E000E02D3211F401E0FEC064
:100ED4002B3211F44BE2FAC0203211F440E2F6C096
:100EE40002C0E23039F450E013E0203311F400681A
:100EF400EDC004C0E33011F00C946808203310F006
:100F04002A3308F007C0AAE05A9F502DE22FE0537D
:100F14005E0FDCC0E22FE33649F40E94A70CE88997
:100F2400F989A481AA930E94AD0CCFC0E33741F4A0
:100F34000E94A70C0E94B50C0E943B0B1E2F0AC0F6
:100F4400E03761F40E94A70C0E94B50C0E94450B87
:100F54001E2F086002600F7730E035C0E43611F0D0
:100F6400E93611F4046002C0E53731F4ECE8F0E04E
:100F7400EE83FF8315E00DC0E83511F4086004C06A
:100F8400E83711F00C946708E6E9F0E0EE83FF839C
:100F940014E002FF14C00E94A70C0E94BF0CAB8592
:100FA400AA233AF4EA85FB850E945C0FEA87FB8753
:100FB4004DE2403011F01F5F01C00B7F04C00E945E
:100FC400A70C0E94BF0C00FD11C0151778F407FF91
:100FD40008C002FF04C00B7F242F115001C020E37E
:100FE40001C020E20E949E0C5150EFCF312F01FF2F
:100FF40017C03030A1F003FF06C0EE81FF812591B8
:10100400EE83FF8305C0AE81BF812D91AE83BF8384
:101014000E949E0C503009F051503150EACF4BC021
:1010240020E3EE81FF810E94F50FE887F987EE81C6
:10103400FF813296EE83FF83E885F985AA85BB8517
:10104400AE17BF0750F02F5FA885B985EA85FB85E9
:10105400EA1BFB0BEA87FB87EFCF2A3328F003FF59
:1010640002C0295F01C0295D04FD1AC0213320F4A8
:10107400A885B985119709F409C0531710F000FF2A
:1010840001C013C020E207FF0BC020E3006102FF90
:1010940007C00B7F4A930E94AD0C503009F05150A9
:1010A4000E949E0C503009F051503150A885B985EA
:1010B400129708F0B5CF00FF08C0503031F05150FE
:1010C400E0E2EA930E94AD0CF8CF10E0DDCEAC85EF
:1010D400BD850E94EC0F0E942B1064960895FF9228
:1010E400F82E26970E9426100E94C70C309719F4F8
:1010F400EFEFFFEF25C0DE0116960E94530F8D011E
:101104000E94C70CEE83FF83E0E0E887E987DE01F5
:101114001A960E94530F0E94EC0FFA93EA931A93C3
:101124000A93E4E0F7E0FA93EA93FE013A96FA931D
:10113400EA93A0DE9F01AE81BF81E0E0EC93F90168
:101144000E942D102A96FF9008957B816A81F9816F
:10115400E88177FB770F67FD7160972F9E5781F0C9
:1011640078F0983190F4AA27BB27882708948795AC
:10117400B795A7959A95D1F7EA23FB23682305C071
:10118400E8947727EE27FF2766276F77769508F48C
:10119400606877F9A991B99189919991EA17FB0748
:1011A4006807790797FB08950E94CE0C0E940310EC
:1011B4000E94A7080E94FE0F19F40E94CE0C05C0DD
:1011C400E6F70E94CE0C0E94D10C24960895249731
:1011D4001A930A930E94D80C0E9419102CF0EFEF76
:1011E400FFEF6FE77FEF77C00E94DD0C0E940310D2
:1011F400EDB7FEB73197FA93EA931F930F930E94CA
:10120400890D0F911F910E94E20C0E94D80CE3EF0C
:10121400F4E065E37FE30E94330F40F40E94E70C9F
:101224000E94500E0E94E20C015010400E94DD0CFE
:101234000E94D10C7F936F93FF93EF930E94DD0C78
:10124400A0E0B0E080E89FE30E94500EAF91BF9110
:101254008F919F910E94EE0E0E94E20C0E94E70C77
:101264000E94E90CA6E2B2E485E69FE30E94A00E88
:10127400DF01CB01EEE4F1E164E570E40E94F00CDF
:101284000E94D80C0E94A00E7F936F93FF93EF935C
:101294000E94F50CADE4B1E184ED9FE30E94490E98
:1012A400AF91BF918F919F910E94EE0E7F936F93A8
:1012B400FF93EF93F8010E946D0F0E94160EA8E1B0
:1012C400B2E781E39FE30E94A00EAF91BF918F919B
:1012D4009F910E94500E198108812A96089528979B
:1012E4001A930A930E94FA0CE0E5FCEA6EEA72ECA7
:1012F4000E94330F18F40E94FF0C88C0EA85FB8516
:101304006C857D850E94151029F4E0E0F0E060E82A
:101314007FE37CC00E94FA0CE8E1F2E761EB72E43F
:101324000E94330F09F010F40C949D09EFEFFFEFC6
:101334006FE77FE76BC00E94FA0CEBE3FAEA68EB15
:101344007FE30E94A00EEA87FB876C877D870E945B
:1013540003102ADF0E94DF0D8F01F8010E94FA0CAE
:101364000E946D0F0E94160E0E94F00CDF01CB014B
:10137400E0E0F0E060E07FE30E94F00C0E94E20C09
:101384000E94E70C0E94E90CADE6BCE48CE69DE308
:101394000E94A00EA6EAB3EE86EE90E40E94500EE0
:1013A4000E94D80C0E94A00E0E94E20C0E94F50C30
:1013B400A8E2BDE886EA91E40E94500EEA83FB832A
:1013C4006C837D830E94DD0CAA81BB818C819D810D
:1013D4000E94500EA3EFB4E085EB9FE30E94A00EA1
:1013E4007F936F93FF93EF930E94D80C0E94F50CA8
:1013F4000E94490EAF91BF918F919F910E94EE0E72
:101404000E9403101A930A930E949C0D198108816B
:101414002E96089524970E94040D0E94151019F425
:101424000E94FF0C3FC0A885B9858A859B850E94D0
:1014340019107CF40E94090D0E94151029F4E0E0B3
:10144400F0E060E87FE32EC00E94040D0E940E0DC0
:1014540029C00E94090DDE010E94DF0D0E94F00FD9
:101464000E94CE0C0E94160EDF01CB010E94090DD2
:101474000E941F1019F00E94FF0C14C00E94040D5A
:101484000E94AA0D0E940E0DE887F9876A877B8760
:10149400E881E17019F40E94040D04C00E94040D57
:1014A4000E94AA0D2C960895E881E07111F0AC9A7F
:1014B40001C0AC98E881E07211F0AD9A01C0AD981A
:1014C400E881E07411F0AE9A01C0AE98E881E0784A
:1014D40011F0AF9A01C0AF9885E08A95F1F7AA9A06
:1014E4008DE08A95F1F7AA988DE08A95F1F79EC070
:1014F400E881EA93D9DFE881E295E883E881EA9319
:10150400D3DF85E88A95F1F791C0E881F0E0E258ED
:10151400F94FE081A981EA0FEA93EADFE981E093D8
:101524008206E881E093830622960895E2E00E9411
:101534001C0DECE0EA93DCDFE1E00E941C0DE0E02E
:10154400E0938306E09382060895A881AA3031F0DF
:10155400E0918406A0918206AE1768F0E0E0EA9379
:10156400E0918306EF5FE0938306EA93CEDFA881E0
:10157400AA3009F45BC0E0918206EF5FE093820633
:10158400A89AE881EA93B4DFA89850C01A93A98175
:10159400BA81ED91A983BA831E2FE03019F01A9312
:1015A400D4DFF5CF188163C01A93E981FA813196AB
:1015B400E983FA833197E4911E2FE03019F01A93EE
:1015C400C4DFF3CF188153C0A49AA59AA69AA79A08
:1015D400A29AA09AA19AAA98A898A998E881E093B7
:1015E4008406E058E0938006E881E054E0938106A5
:1015F400E4E1F0E00E945B0B0E94220D0E94220DA8
:101604000E94220DE0E2EA934FDF88EC90E001971C
:10161400F1F7E8E2EA936CDFE4E0EA9369DFE5E8F6
:10162400EA9366DFE6E0EA9363DF80DF21960895BC
:10163400EA81E370EA83E981E03019F0EA81E0614C
:10164400EA83E881E03019F0EA81E068EA830E94E5
:10165400300DE0EDEA930E94640DE7E0EA930E9406
:10166400640DEA81EA930E94640D0E943F0D239663
:101674000895A991B991EE27FF276D91662311F082
:101684003196FBCF0895AA27BB27E991F9910590DC
:10169400002011F01196FBCFFD010895F801AA81F5
:1016A400BB81EA0FFB1FE4910895FA93EA930C942B
:1016B400D60AFA93EA930C947D0DF801E80DF91D0E
:1016C4003197E491E0300895F801E80DF91D9F0188
:1016D400E5E0F0E0E017F1070895E0E0EA93E2E0E6
:1016E400EA930E94870AE4E7F1E0DFCFE1E0EA93BE
:1016F400E2E0EA930C94870AE4E7F1E0D6CFEA93B8
:10170400E2E0EA930E94870AF7CFEA93E2E0EA93E1
:101714000C94870AE0E0EA93EA930C94870AE0E0E9
:10172400EA93E1E0EA930C94870AE0E0EA93E3E0C9
:10173400EA930C94870AFA93EA93E8E7F1E0FA93C0
:10174400EA930895E0916606F09167066091680651
:101754007091690608950E94031084E00E94710844
:101764002896DDCFE0916A06F0916B0660916C06D5
:1017740070916D060895E4E6F0E09BCF0E94BC0FE3
:10178400E0936206F09363060C940503ED91FD91DA
:101794003196FE93EE930895A0915C06B0915D0698
:1017A4000895E0915C06F0915D060895E0935C066F
:1017B400F0935D0608950E94980AACCFE8EEF3E03A
:1017C40078CFEADFA536E0E0BE070895E5DFEAE07A
:1017D400F0E00E94920F08951A930A93E0E0F0E07B
:1017E40060E271E40E940310A0916006B09161066A
:1017F400EE81FF81EA1BFB0B31970E946D0F0E9463
:10180400160E0E9403100E940C0A0E94DD0D8F0127
:101814000E94F202B0CFA0916606B0916706809153
:101824006806909169060895EF5FFF4F6F4F7F4FF1
:10183400DF01CB01F8010895E0936606F093670693
:1018440060936806709369060895E8EEF3E060E03B
:1018540070E00E94CA0F0895EA81FB81A09160069E
:10186400B09161060E94BC0FE0936006F09361069C
:101874000C94F202FA93EA930C94C80AE4E0EA9313
:10188400E1E0EA930C94870AEBE0F0E0E093700661
:10189400F09371060895EEE1F0E088CFA0916A0616
:1018A400B0916B0680916C0690916D060895E0935B
:1018B4006A06F0936B0660936C0670936D06089548
:1018C400EA93E1E0EA930C94870AE0E0E09362068D
:1018D400E09363060895E1E0EA93E0E0EA930C9470
:1018E400870AE2E0F0E0FA93EA930C943F03EA9368
:1018F400E3E0EA930C94870AE3E0F0E0FA93EA93D6
:101904000895EA93E0E0EA930C94870AEA930E942C
:10191400E5020E94680F8F01FE0132960CCFF80198
:101924000E946D0F0E94031084E00E9471082896A3
:101934000895FE0132969ECF2A93ED85FE85FA9393
:10194400EA93E989FA8909950895E889F989349728
:10195400E88BF98B0895ED85FE85FA93EA93E9897E
:10196400FA8909950895A889B98914960E94EC0FFB
:10197400EE83FF83FA93EA930895A889B9891496AC
:101984000E94EC0FEA87FB870895DE011C960E94F3
:10199400530F0E94EC0F08950E94F90F0895A0E0E0
:1019A400B0E080E89FE30E94490E0895AE81BF81B4
:1019B400888599850895EE81FF81688579850895E4
:1019C400EE83FF83688779870895F5DFEFCF0E9460
:1019D400A00EEA83FB836C837D8308950E94081024
:1019E4000E94490E0895EA81FB816C817D810895EE
:1019F400AA85BB858C859D850895E0E0F0E060E0D4
:101A040070E00895E885F9856A857B850895EC8101
:101A1400FD816E817F8108950E9403100E94E90870
:101A2400AC81BD818E819F810E94A00E0E94031013
:101A34000C947109EA930E947A0AE3E0F0E039CE4B
:101A4400E0E3EA930E94560A88EC90E00197F1F7EC
:101A5400089590989198889A899815C0899888983B
:101A6400EE270000819B0895809B089504D0899AF5
:101A740002D0889AE1E06DE007C0899A889A03D081
:101A84008898F9DF89986BE16A95F1F7089578E011
:101A94008898F1DF809BFECFEEDF889481990894CB
:101AA400889AF1DFEE1F7A9599F77991772311F4EB
:101AB400899801C0899ADFDF8898E5DF889ADBDF9F
:101AC4008998D9CFE99178E0EE0F10F4899801C094
:101AD400899AD9DF8898CFDF809BFECFCCDF889AA4
:101AE4007A9591F78998C7DF8898CDDFE1E08199ED
:101AF400EE27889AC0CFE991F991309639F080EDBC
:101B040097E00197F1F7A8953197C9F70895A9913E
:101B1400B991E991F9916991799177FB660F771FF2
:101B240088277E57880B7D938C937EE776956795FF
:101B34007EF00895A991B991E991F991699179910A
:101B440077FB660F771F7A0F769567950EF00895E9
:101B540030976040704009F070580895552342F45E
:101B6400503811F4E0FF04C03196691F791F6BF0FF
:101B740050E8572711F45F93CFC05F3F31F0660FF1
:101B8400000C57956795752F08955F9300200AF010
:101B9400CFC0C8C050E8192E1522880F991F952769
:101BA400550F879550E8072E0522660F771F752776
:101BB400550F67950895689401C0E8945F93F2DF28
:101BC400703818F07F3F08F4A7C056E1571BAAF4F9
:101BD400519558300EF4593030F0EFEFFFEF6FEFBE
:101BE4007FE777F91AC077275523B9F0EE0FFF1F67
:101BF400661F771F5A95D1F710C07727583028F001
:101C0400EF2FF62F672F5850F9CF552331F07695E3
:101C14006795F795E7955A95D1F700200AF44ED1C8
:101C24005F910895689401C0E894309760407040D3
:101C3400B1F0002426F0772312F400943FD1172E3C
:101C44007EE1112032F07A95EE0FFF1F661F111C02
:101C5400F9CFEF2FF62F612D5F938ADF5F910895FF
:101C64004F93AF01FD01DA01AB01BC01CA01402D64
:101C7400012C142E4F910895EA0FFB1F681F08953D
:101C8400E095F0956095EF5FFF4F6F4F08955F9378
:101C940081DF903871F150E8152604C05F937ADF34
:101CA400903839F1703821F1572F591B2BF112F468
:101CB400D7DFFACF583118F0AA27BB278827583026
:101CC40028F0AB2FB82F88275850F9CF552329F087
:101CD4008695B795A7955A95D9F7502D512572F049
:101CE400CBDF38F46795F795E795739513F420C027
:101CF400B7DF3EDF5F910895D8F7FBCFEA1BFB0BFC
:101D0400680B51F010F40094BBDF662392F3EE0FDE
:101D1400FF1F661F7A95CBF7EE27FF2766277727E5
:101D24005F910895EFEFFFEF6FE77FEF5F91089505
:101D3400EFEFFFEF6FE77FE75F9108955F932ADF8F
:101D4400703851F3903841F301240894791F23F437
:101D54001CF300203AF3ECCF0F921F932F933F9381
:101D64004F93112722279927689FA0018F9F302D19
:101D7400410D591F6B9F300D411D591F8E9F27D058
:101D8400BF9F25D06A9F23D0BE9F1DD0AF9F1BD07D
:101D9400AE9F110D291F391F491F591FE32FF42F1F
:101DA400652F522F4F913F912F911F910F906623D2
:101DB4002AF0550FEE1FFF1F661F02C073954BF2EA
:101DC400CDDE5F910895100D211D391F02C0200D35
:101DD400311D491F591F08955F93DCDE703821F4CB
:101DE40011200AF49FCFA4CF903809F495CF012491
:101DF4000894970B1BF4D4F30020F3CF792F1F938F
:101E04002F933F934F9311241127222733274427DD
:101E1400552790E2AE17BF078607410730F0AE1B87
:101E2400BF0B860B410B089401C08894551F221FD9
:101E3400331F111CAA1FBB1F881F441F9A9551F7FB
:101E4400F901612D4F913F912F911F91662332F03B
:101E5400550FEE1FFF1F661F7A9543F27FDE5F91D9
:101E6400089599239AF0772342F0971748F029F4BC
:101E7400AE17BF07860720F031F098948894089530
:101E84009894089408951894889408957723C2F731
:101E9400971798F3A9F7EA17FB07680788F399F3EC
:101EA400ECCF0024AF0DB01D0895EA0FFB1F681F8F
:101EB400791F0895F195E195F0400895F0956095A6
:101EC4007095E195FF4F6F4F7F4F0895F695E79515
:101ED400F695E79508956F2F660F660B762F089594
:101EE400FA9FF02DEB9FF00DEA9FE02DF10D089580
:101EF40063D0F6DF0EF4DEDF08950024112490E1B0
:101F0400AA0FBB1F001C111C0E1A1F0A18F40E0E78
:101F14001F1E01C0A1609A9599F7FD01D001089593
:101F24004BD0EBDF0EF4C6DF08953F934F935F93DE
:101F3400002411244427552730E2AA0FBB1F881F11
:101F4400991F001C111C441F551F0E1A1F0A460B13
:101F5400570B28F40E0E1F1E461F571F01C0A16009
:101F64003A9559F7FD01BC01D001CA015F914F9127
:101F74003F910895E894B7FF04C0A095B0951196D9
:101F84006894F7FD97DFB9DFFD010EF493DF089540
:101F9400E89497FF09C0A095B09580959095AF5FA0
:101FA400BF4F8F4F9F4F689477FD88DFBEDFFD01E1
:101FB400BC010EF483DF0895E894F7FF02C07ADFD2
:101FC4006894B7FF06C0A095B095119600F80394E5
:101FD40000FA0895ED91FC9111970895ED93FD9306
:101FE4006D937C9308950590F491E02D0895E88114
:101FF400F9816A817B810895E883F9836A837B830D
:1020040008957A936A93FA93EA930895182E862F83
:10201400612D192E972F712D1B2EBF2FF12D1A2EE6
:10202400AE2FE12D0895309760407040089500244C
:102034000A160B06080609060895EA17FB0768073F
:10204400790708955A934A933A932A931A930A93D1
:1020540008955D814C813B812A811981088108950D
:00000001FF
