:060000000C9448010C9471
:1000060000000C9400000C9400000C9400000C946A
:1000160000000C9400000C9400000C9400000C945A
:1000260000000C9400000C9400000C9400000C944A
:1000360000000C9400000C9400000C9400000C943A
:1000460000000C9414030C9400000C9483030C948D
:1000560000000C9400000C9400000C9400000C941A
:1000660000000C9400000C9400000C9400000C940A
:10007600D0030C9400000C9400000C9400000C9427
:1000860000000C9400001027E80364000A00010039
:100096000010000110000100000001000000000037
:1000A600000030303030303030303C3030313E00BF
:1000B6003C3030323E003C3030333E003C30313054
:1000C6003E003C3031313E003C3031342D25303459
:1000D600643E003C3031352D253034643E00496E97
:1000E60076616C696420636F6D6D616E6420726504
:1000F6006365697665640020005E00253033640020
:1001060025303264004D61696E2053637265656EF9
:1001160000566F6C746167652073657420746F3A5E
:100126000056005365742076616C75652073686FA0
:10013600756C64006265206265747765656E203152
:1001460031302D0031333520766F6C747300437572
:100156007272656E742073657420746F3A00410084
:100166006265206265747765656E2031302D0032D8
:100176003020616D70730057656C636F6D65207418
:100186006F20484D490053657420506172616D655A
:100196007465727300504152414D455445525300A7
:1001A600566F6C746167652028564F4C545329006E
:1001B60043757272656E742028414D505329005361
:1001C600657420766F6C746167653A0053657420B8
:1001D60063757272656E743A0053563A0053424321
:1001E6003A0041563A004142433A004149563A00E4
:1001F600414F433A004661756C742049443A0030D9
:100206003030004D616368696E65203A204F4E209C
:10021600004D616368696E65203A204F46460000CE
:1002260001002D4E414E00494E46000080C001009F
:1002360002009E0008000400A00008006B05A8004C
:1002460001000005B50001000105B500100002051A
:1002560017011000120554010F0022057D010A0046
:100266003105FB0104003B05050204003F050502BC
:1002760004004305050204004705050201001B06AC
:10028600260202001F0632020000F894EE27ECBB9D
:10029600F1E0F5BFE5BFE0936C00F8E1F1BDE1BD2B
:1002A6008DE0A2E0BB27ED938A95E9F780E090E127
:1002B600A0E0B1E0ED930197E9F7E4E3F2E0859180
:1002C6009591009761F0A591B59105901590BF01A4
:1002D600F00105900D920197E1F7FB01F0CF8BBF7E
:1002E600EFEFEDBFE0E1EEBFC0E0D5E00C940F0705
:1002F6000E94530CF801AA81BB81EA0FFB1FE4910F
:10030600E03041F0F801EA0FFB1FA4911DD20F5F08
:100316001F4FF0CF14C00E94530CF801AA81BB8175
:10032600AE0FBF1FEC91E03051F0F801AA81BB81FE
:10033600AE0FBF1FAC9108D20F5F1F4FEECF1981D2
:100346000881249608950895E0EBF0E005C0E6EBF9
:10035600F0E002C0ECEBF0E0E0938F05F09390053F
:10036600A0918F05B0919005C3DF08950E945C0CA3
:1003760020E035E03A932A93EEECF0E008C00E94C4
:100386005C0C21E035E03A932A93E9EDF0E0FA932C
:10039600EA93F8010E94630CD901BDDF0E94F610B2
:1003A600269608950E946C0CAB98E1E0F0E0E0938D
:1003B6006705F093680508950E946C0CE0E0E093F1
:1003C6006705E0936805AB9A0895E0E0E093690558
:1003D600E0936A051FC4BA93AA93A497E0E0EAA340
:1003E600EBA30E94ED1000E010E040E050E0EAA52B
:1003F600FBA5E8A7F9A7309761F0E0916200EF7BD3
:10040600E0936200E1E0F0E0E0936905F0936A05AD
:100416009EDF00E010E00830E0E01E07CCF4E7E0E5
:10042600F0E0E01BF10BE559FA4F0F01E8A5F9A53D
:10043600A1E0B0E00E947F10E05DD001EC93E8A55A
:10044600F9A5F595E795E8A7F9A70F5F1F4FE3CF45
:100456000E94F410AC9608950E94730CE093530525
:10046600F0935405ACC20E94730CE0935505F093CB
:100476005605A5C20E94730CE0935705F0935805E4
:100486009EC20E94730CE0935905F0935A0597C2D9
:10049600BA93AA932797E0E3E883E983EA83EB8399
:1004A600EC83ED83EE830E94ED1000E010E020E087
:1004B60030E041E050E04430E0E05E074CF4FA0101
:1004C6003197DE011A960E94780C4F5F5F4FF3CF8B
:1004D60045E050E04930E0E05E074CF4FA0135971C
:1004E600DE0116960E94780C4F5F5F4FF3CFEC85C6
:1004F600F0E0F097BF01EB850E94840CEA850E942C
:100506008D0CE60FF71F8F01E985F0E0F097BF012C
:10051600E8850E94840CEF810E948D0C6E0F7F1F70
:10052600EE81F0E0F097A8EEB3E00E942F10E60F00
:10053600F71F9F01F801309711F405DF6EC0E13017
:10054600A0E0FA0711F42EDF68C0E230A0E0FA0757
:1005560011F432DF62C0E330A0E0FA0711F435DFB0
:100566005CC0E430A0E0FA0719F4D90134DF55C0C5
:10057600E530A0E0FA0711F4E6DE4FC0E630A0E071
:10058600FA0711F4E0DE49C0E730A0E0FA0711F4FB
:10059600DADE43C0E830A0E0FA0711F4D4DE3DC04D
:1005A600E930A0E0FA0711F4CEDE37C0EA30A0E069
:1005B600FA0719F4D90150DF30C0EB30A0E0FA0792
:1005C60019F4D90150DF29C0EC30A0E0FA0719F47C
:1005D600D90150DF22C0ED30A0E0FA0719F4D901A5
:1005E60050DF1BC0EE30A0E0FA0711F4ACDE15C0F8
:1005F600EF30A0E0FA0711F4A6DE0FC0E031A0E06C
:10060600FA0711F4A0DE09C0E131A0E0FA0711F4FF
:100616009ADE03C0A4EEB0E06BDE0E94F4102F96C3
:1006260008950A921A92FA926A937A938A939A93FF
:10063600AA93BA93EA93FA93EFB7EA931A930A93B3
:100646001BB10CB1E12FEC7109F04AC0E091C9056C
:10065600EF5FE093C905E150F0E0E755FA4F0083FC
:100666000C3349F4E1E0F0E0E093A505F093A6052C
:100676000E94940C0EC00E3361F40E949A0CE0E0C6
:10068600E093A505E093A6050E94940CA1E9B5E0C8
:10069600FFDEA091A505B091A605119771F40E9401
:1006A6009A0CA7EAB5E00E94A20CA091A705B0910A
:1006B600A805199711F40E94940CA091C905A032BF
:1006C60019F4E0E0E093C905A091CB05AF5FA093D4
:1006D600CB05A03229F4E0E0E093CB05689420F83E
:1006E60009911991E991EFBFF991E991B991A99110
:1006F6009991899179916991F99019900990189534
:10070600AA93EA93FA93EFB7EA93E0910E06E030E4
:10071600A9F0E150E0930E06E0910D06EF5FE0933D
:100726000D06E150F0E0E453FA4FE081ECB9A091F8
:100736000D06A03419F4E0E0E0930D06E991EFBF51
:10074600F991E991A9911895AA93A0910E06A03462
:10075600E1F3F894E0910E06E03011F45D9918C0CB
:10076600E0910C06EF5FE0930C06E150F0E0E453F5
:10077600FA4FA881A083A0910C06A03419F4E0E0FA
:10078600E0930C06E0910E06EF5FE0930E0602C0C2
:10079600E881ECB9789421960895AA93BA93EA93DE
:1007A600FA93EFB7EA93E0E00C9BE1E0F0E0F06843
:1007B600DF01E0911506F09116060E94A80CE09361
:1007C6001506F0931606A0911506B0911606A030F0
:1007D600E0ECBE0731F4E1E0F0E0E0930F06F093C1
:1007E6001006E0E00E9BE1E0F0E0F068DF01E0914A
:1007F6001706F09118060E94A80CE0931706F093CE
:100806001806A0911706B0911806A030E0ECBE07B6
:1008160031F4E1E0F0E0E0931106F0931206E0E037
:10082600849BE1E0F0E0F068DF01E0911906F091C9
:100836001A060E94A80CE0931906F0931A06A091D6
:100846001906B0911A06A030E0ECBE0731F4E1E0DB
:10085600F0E0E0931306F0931406E991EFBFF991E7
:10086600E991B991A99118950E94AD0CE1E00E9419
:10087600B60CE2E00E94B60CE3E00E94B60C8A9247
:10088600A2E00E94C30BAFEFB0E016C00E94BE0C00
:100896000E94C30C0E94C70C0E94C30C0E94AD0CA0
:1008A600E0E00E94CC0C0E94C30CE0E0EA93AA2D83
:1008B6000E94C30BA4EBB0E00E94110C0895E4E77C
:1008C600F5E00E94D00C0E94C70CA4E7B5E04DC22B
:1008D600E7E7F5E0FA93EA93E6E0F1E00E94E50C3B
:1008E6000E94C70CA7E7B5E040C2BA93AA93650178
:1008F600CDDF0E94F60C0F9916C00F9BFECFF601B6
:1009060031976F010024C014D0042CF4A881B9815A
:10091600EA0FFB1F01C0F601DF01E881F9810E94A1
:1009260071105F01B3DF0D990CC00D9BFECFF50171
:1009360031965F01E881F981D5010E9471105F014E
:10094600A5DFB39912C0B39BFECFEAE0F0E04E16E6
:100956005F061CF4F201319601C0F201AAE0B0E094
:100966000E942F10EA0DFB1D2F01829928C0829B41
:10097600FECFE2E0F0E0E415F505B9F40E94FA0CCA
:10098600ABE0B1E00E94110CA8EEB3E00E943D0E70
:100996000E94FD0C0E946C0C66247724E1E0F0E0D6
:1009A600E0935B05F0935C050AC00E94040D1CF4FD
:1009B6000E94090D03C00E94090D31972F0122964E
:1009C60008950E940F0D0F991DC00F9BFECFE1E009
:1009D600F0E0E017F10721F4F8010E94310D04C0A0
:1009E6000E943A0D0E94430D0E9422100E9411108F
:1009F6000E944B0D0E94310D0E94540D0E944B0D1A
:100A06005EDF32DF0D9904C00D9BFECF0E945B0DA9
:100A1600B3994EC0B39BFECF0E943A0DEE36A0E0CE
:100A2600FA07A0E06A07A0E07A0754F00E94310DA9
:100A3600A838E0E0BE07E0E08E07E0E09E070CF095
:100A460019C00E94FA0CA2E0B5E00E94660DA1E072
:100A56000E94C30BA7E2B1E00E94110C30DF0E9496
:100A66006B0DEEE1F0E02F01A0914B05B0914C0526
:100A76007DDC1EC00E94FA0C0E94720DAAE3B1E052
:100A86000E94770DAAE4B1E00E94110CE0E0E09329
:100A96004B05E0934C05E0934D05E0934E05EEE1E2
:100AA600F0E02F010E946B0DA0EDB7E00E943D0E15
:100AB60082990EC0829BFECF0E946B0D0E94040D90
:100AC6001CF40E94090D03C00E94090D31972F01E5
:100AD600198108810C94150A0E940F0D0F991DC0EB
:100AE6000F9BFECFE1E0F0E0E017F10721F4F801FB
:100AF6000E947E0D04C00E94870D0E94430D0E9435
:100B060022100E9411100E94900D0E947E0D0E94DC
:100B1600540D0E94900DDCDEA7DE0D9904C00D9BDE
:100B2600FECF0E945B0DB3994BC0B39BFECF0E94D4
:100B3600870DEA30A0E0FA07A0E06A07A0E07A078E
:100B460054F00E947E0DA531E0E0BE07E0E08E077E
:100B5600E0E09E070CF016C00E94FA0CA2E1B5E098
:100B66000E94990DA4E6B1E00E94110CB1DE0E942C
:100B76006B0DEEE1F0E02F01A0914F05B09150050D
:100B8600FEDB1AC00E94FA0C0E94720DA6E6B1E0C6
:100B96000E94770DA5E7B1E00E94110CE0E0E0931A
:100BA6004F05E0935005E0935105E0935205EEE1C1
:100BB600F0E02F010E946B0DA0EDB7E00E943D0E04
:100BC60082990EC0829BFECF0E946B0D0E94040D7F
:100BD6001CF40E94090D03C00E94090D31972F01D4
:100BE600198108810C94150A88249924AA24BB2407
:100BF6000E94FA0CA2E2B5E00E94020CA8EEB3E055
:100C06000E943D0EE2E0F0E02F01E1E0F0E03F015E
:100C16000E94FD0CE1E0F0E0E0936505F0936605C7
:100C260008950E94D40BAA24BB2488249924E1E0C9
:100C36000E94A00DACE8B1E00E94110CE1E0F0E0EA
:100C4600E0935F05F0936005E2E0F0E051C00E949A
:100C5600D40BE3E00E94CC0CABE9B1E00E94110C8E
:100C6600E1E00E94A00DA6EAB1E00E94110CE1E0CD
:100C76000E94A40DA6EBB1E00E94110CE2E0F0E0A8
:100C8600E0935F05F0936005EEE1F0E031C00E946D
:100C9600FA0CA5ECB1E00E94110C11DEA0915D05E5
:100CA600B0915E051B9721F0A3E0B0E08ADEF6CF97
:100CB600E0E0E0935D05E0935E05ECE2F1E018C04C
:100CC6000E94FA0CA2EDB1E00E94110C01DEA09187
:100CD6005D05B0915E051B9721F0A2E0B0E0FCDE59
:100CE600F6CFE0E0E0935D05E0935E05EDE2F1E02E
:100CF6003F0108950E94FA0CAFEDB1E00E94110C7D
:100D0600E8E00E94A00DA3EEB1E00E94110C0E9443
:100D1600C70CA8EEB1E00E94110CE8E00E94A40DF9
:100D2600ACEEB1E00E94770DA1EFB1E00E94110C8C
:100D3600E8E00E94A80DA6EFB1E00E94110CE3E0E6
:100D46000E94A00DEAE7F5E00E94D00CAAE7B5E004
:100D56000E94020CECE00E94A00DEDE7F5E00E9477
:100D6600AC0D0E94E50CADE7B5E00E94020C0895BB
:100D7600E1E0F0E0E415F50509F436DFE2E0F0E045
:100D8600E415F50509F44DDFEEE1F0E0E415F505AF
:100D960009F45DDFECE2F1E0E415F50509F477DF2F
:100DA600EDE2F1E0E415F50509F48ADF08950E9405
:100DB600B10D39F4CCDAE0E0E0930F06E0931006CB
:100DC6001EC0E0916200E064E0936200A0910F060D
:100DD600B0911006119739F4B7DAE0E0E0930F0608
:100DE600E09310060CC0A0911106B091120611975F
:100DF60031F4ADDAE0E0E0931106E0931206A0913B
:100E06001306B0911406119731F4A4DAE0E0E093EA
:100E16001306E09314060895E0E0EBBBEABBE8E0B6
:100E2600E8BBE0E0E7BBE8E0E5BBE4BBECEDE2BB3A
:100E3600E8E0E1BBEFEFE3B9E0E0E2B9EFEFE09322
:100E46006200E0936100E0E0E0936500E0936400F7
:100E5600E0938B00E9E0E0938A00E0E0E09389000C
:100E6600E0938800E0938100E0938000EFEFE09349
:100E76008700E0938600E0E0E0938500E09384003D
:100E8600E0938300E0938200E7BFE4E0E0937D0017
:100E9600E0E0EBB9E8EDEAB9E6E0E0939500E0E0E2
:100EA600E0939000E3E3E9B9A0E10E94240C789472
:100EB6000E94B10D91F40E94FA0CA1E3B5E00E94E4
:100EC600660DA2E00E94C30BABE6B5E00E94020CE1
:100ED6000E94B10D11F46BDFFBCFE1E0F0E0E41509
:100EE600F50509F481DEA0916105B09162051197BF
:100EF60009F08EC0A0916505B0916605119709F4B9
:100F0600F9DEE3E00E94A40DE1E8F5E00E94AC0DF5
:100F1600FA93EA93E0915305F09154050E94630C0D
:100F2600ABE3B5E00E94990DA1E8B5E00E94020C82
:100F3600ECE00E94A40DE4E8F5E00E94AC0DFA9303
:100F4600EA93E0915505F09156050E94630CAFE3D4
:100F5600B5E00E94020CECE00E94A40DA4E8B5E006
:100F66000E94660DA2E00E94C30BE8E8F5E00E942D
:100F7600AC0DFA93EA93E0915705F09158050E945B
:100F8600630CA3E4B5E00E94660DA2E00E94C30BC9
:100F9600A8E8B5E00E94020CECE00E94A80DEBE880
:100FA600F5E00E94AC0DFA93EA93E0915905F091B1
:100FB6005A050E94630CA7E4B5E00E94020CECE01F
:100FC6000E94A80DABE8B5E00E94020CA09167054F
:100FD600B0916805119731F4E1E00E94CC0CA9E0CC
:100FE600B2E00BC0E0916705F0916805309739F4DF
:100FF600E1E00E94CC0CA7E1B2E00E94110CE0E017
:10100600E0936305E0936405E0936505E093660568
:10101600CEDE829921C0E0E0E0936105E0936205AF
:10102600A0915B05B0915C05119761F0641475049D
:1010360011F09EDEFBCFA0915F05B091600555DCF7
:10104600B6DEEECFE0E0E0935B05E0935C05E2E020
:10105600F0E02F010E94D40B2BCFFFCFBA93AA93B7
:101066001A930A93AA81BB8112960E94AB103097FD
:1010760029F1AA81BB8114960E94AB108F0130978B
:1010860061F00230E0E01E0780F0F80131978F0131
:10109600AA81BB811496ED93FC93AA81BB8112961B
:1010A6000E94A20C3197AC81A083AA81BB810E94C9
:1010B600AB10FF2312F00E94A20C06C0AA81BB81CE
:1010C600EFEFFFEFED93FC931981088125960895C4
:1010D600BA93AA9326970E94ED1010E0AC85BD85C1
:1010E600E0E0F0E0ED93FC93EA89FB893196EA8B28
:1010F600FB8B3197E4912E2FE03009F415C1E12FD7
:10110600E03039F4253211F411E002C00E94B70D27
:101116000AC1E130A9F4253219F40E94B70D02C1C3
:1011260012E040E000E02D3211F401E0FCC02B3269
:1011360011F44BE2F8C0203211F440E2F4C002C0D0
:10114600E23039F450E013E0203311F40068EBC0CC
:1011560003C0E33009F0E7C0203310F02A3308F06B
:1011660007C0AAE05A9F502DE22FE0535E0FDBC066
:10117600E22FE33649F40E94BE0DE889F989A4817D
:10118600AA930E94C40DCEC0E33741F40E94BE0D5F
:101196000E94CA0D0E94890B1E2F0AC0E03761F417
:1011A6000E94BE0D0E94CA0D0E94950B1E2F08605C
:1011B60002600F7730E034C0E43611F0E93611F4FE
:1011C600046002C0E53731F4ECE8F0E0EE83FF831B
:1011D60015E00CC0E83511F4086003C0E83709F0E3
:1011E600A1C0E6E9F0E0EE83FF8314E002FF14C03D
:1011F6000E94BE0D0E94D40DAB85AA233AF4EA855F
:10120600FB850E941610EA87FB874DE2403011F0FD
:101216001F5F01C00B7F04C00E94BE0D0E94D40D4B
:1012260000FD11C0151778F407FF08C002FF04C0BF
:101236000B7F242F115001C020E301C020E20E9441
:10124600B70D5150EFCF312F01FF17C03030A1F04D
:1012560003FF06C0EE81FF812591EE83FF8305C063
:10126600AE81BF812D91AE83BF830E94B70D5030F2
:1012760009F051503150EACF4BC020E3EE81FF8197
:101286000E94B410E887F987EE81FF813296EE83DB
:10129600FF83E885F985AA85BB85AE17BF0750F0A1
:1012A6002F5FA885B985EA85FB85EA1BFB0BEA87D4
:1012B600FB87EFCF2A3328F003FF02C0295F01C066
:1012C600295D04FD1AC0213320F4A885B98511973C
:1012D60009F409C0531710F000FF01C013C020E243
:1012E60007FF0BC020E3006102FF07C00B7F4A9394
:1012F6000E94C40D503009F051500E94B70D503075
:1013060009F051503150A885B985129708F0B5CF2C
:1013160000FF08C0503031F05150E0E2EA930E94DD
:10132600C40DF8CF10E0E0CEAC85BD850E94AB10B1
:101336000E94F41064960895FF92F82E26970E9454
:10134600EF100E94DC0D309719F4EFEFFFEF23C08A
:10135600DE0116960E940D108D010E94DC0DEE83B3
:10136600FF83E0E0E887E987DE011A960E940D1008
:101376000E94AB10FA93EA931A930A93E1E3F8E01A
:10138600FA93EA93DE011A96A3DE9F01AE81BF812E
:10139600E0E0EC93F9010E94F6102A96FF9008957A
:1013A6000E94CC107B816A81F981E88177FB770FF7
:1013B60067FD7160972F9E5781F078F0983190F411
:1013C600AA27BB27882708948795B795A7959A9546
:1013D600D1F7EA23FB23682305C0E8947727EE2795
:1013E600FF2766276F77769508F4606877F9A991E5
:1013F600B99189919991EA17FB076807790797FBD5
:1014060008950E94CC100E94BD100E94D3090E942C
:10141600C21019F40E94E30D05C0E6F70E94E30D21
:101426000E94E60D249608950E94CC1024971A93E4
:101436000A930E94ED0D0E94E2102CF0EFEFFFEFF1
:101446006FE77FEF73C00E94F20D0E94C710ADB721
:10145600BEB711971F930F930E94470E0F911F91CE
:101466000E94F70D0E94ED0DE3EFF4E065E37FE3E4
:101476000E94ED0F40F40E94FC0D0E940A0F0E948C
:10148600F70D015010400E94F20D0E94E60D7F9369
:101496006F93FF93EF930E94F20DA0E0B0E080E817
:1014A6009FE30E940A0FAF91BF918F919F910E9477
:1014B600A80F0E94F70D0E94FC0D0E94FE0DA6E2E9
:1014C600B2E485E69FE30E94050EEEE4F1E164E5F1
:1014D60070E40E940A0E0E94ED0D0E945A0F7F933F
:1014E6006F93FF93EF930E940F0EADE4B1E184ED8D
:1014F6009FE30E94030FAF91BF918F919F910E942E
:10150600A80F7F936F93FF93EF93F8010E94221029
:101516000E94D00EA8E1B2E781E39FE30E945A0F32
:10152600AF91BF918F919F910E940A0F19810881F7
:101536002A9608950E94CC1028971A930A930E941F
:10154600140EE0E5FCEA6EEA72EC0E94ED0F18F468
:101556000E94190E85C0EA85FB856C857D850E94F3
:10156600DE1029F4E0E0F0E060E87FE379C00E9455
:10157600140EE8E1F2E761EB72E40E94ED0F09F068
:1015860008F405C0EFEFFFEF6FE77FE769C00E9441
:10159600140EEBE3FAEA68EB7FE30E945A0FEA8740
:1015A600FB876C877D870E94140E2BDF0E94990EA5
:1015B6008F010E94140E0E9422100E94D00E0E94DB
:1015C6000A0EDF01CB01E0E0F0E060E07FE30E947D
:1015D6000A0E0E94F70D0E94FC0D0E94FE0DADE65C
:1015E600BCE48CE69DE30E945A0FA6EAB3EE86EEB3
:1015F60090E40E940A0F0E94ED0D0E945A0F0E946D
:10160600F70D0E940F0EA8E2BDE886EA91E40E945B
:101616000A0FEA83FB836C837D830E94F20DAA8105
:10162600BB818C819D810E940A0FA3EFB4E085EBFC
:101636009FE30E945A0F7F936F93FF93EF930E944D
:10164600ED0D0E940F0E0E94030FAF91BF918F9177
:101656009F910E94A80F0E94C710D8010E94580EA1
:10166600198108812E9608950E94CC1024970E9415
:101676001E0E0E94DE1019F40E94190E45C0A885A0
:10168600B9858A859B850E94E21094F40E94230EF8
:101696000E94DE1029F4E0E0F0E060E87FE334C069
:1016A600A885B9858A859B850E94280E43DF2CC0B4
:1016B6000E94230EDE010E94990E0E94AF100E9426
:1016C600E30D0E94D00EDF01CB010E94230E0E9483
:1016D600E81019F00E94190E17C00E941E0E0E94F3
:1016E600640EDF01CB010E94280E24DFE887F9870C
:1016F6006A877B87E881E17019F40E941E0E04C098
:101706000E941E0E0E94640E2C960895BA93AA9308
:10171600A991B991EE27FF276D91662311F03196B5
:10172600FBCF0895BA93AA93AA27BB27E991F9910B
:101736000590002011F01196FBCFFD010895AA93A4
:10174600E5B3EF70AE2FE881E07FEA2BE5BB8BE1D6
:101756008A95F1F7AA9A8BE18A95F1F7AA988BE117
:101766008A95F1F79BC0AA93A881E9DFE881E29503
:10177600E883A881E4DF88EC90E00197F1F78EC05A
:10178600AA93E881F0E0E15EF94FE081A981AE0F0E
:10179600EADFE981E0932306E881E09324062296B6
:1017A6000895A2E00E942F0EACE0DDDFA1E00E94CA
:1017B6002F0EE0E0E0932406E09323060895AA9313
:1017C600A881AA3031F0E0912506A0912306AE1734
:1017D60060F0E0E0EA93A0912406AF5FA0932406B0
:1017E600CFDFA881AA3009F459C0E0912306EF5F44
:1017F600E0932306A89AA881B6DFA8984FC0BA93AB
:10180600AA931A93A981BA81ED91A983BA831E2F4F
:10181600E03019F0A12FD3DFF5CF10C0BA93AA9309
:101826001A93E981FA813196E983FA833197E49133
:101836001E2FE03019F0A12FC2DFF3CF18812396B7
:101846000895AA93E4B3E06FE4BBA29AA09AA19A82
:10185600AA98A898A998E881E0932506E058E0930D
:101866002106E881E054E0932206A4E1B0E00E945C
:101876003D0E0E94350E0E94350E0E94350EA0E2E6
:101886005EDF80E991E00197F1F7A8E26CDFA4E062
:101896006ADFA5E868DFA6E066DF83DF21960895A4
:1018A600BA93AA931A930A9300E010E000E010E0BE
:1018B6000895BA93AA930E94EF100C811D81089592
:1018C6000E9422100E94C71084E00E949F09289659
:1018D6000895E1E0F0E0E0936505F093660508956C
:1018E600BA93AA93E881F9810895EA0FFB1F0F01C5
:1018F600FA01AD85BE85AE0FBF1FEC91D001EC930A
:101906000895F0E0F097AAE0B0E00E942F106E0F65
:101916007F1F0895F0E0F097A4E6B0E00E942F1034
:101926000895E0E0E093A705E093A8050895E09107
:10193600A705F091A805EF56FA4F00830895ED919B
:10194600FD913196FE93EE930895EE0FFF1FEA2B5D
:10195600FB2B0895E0E0EA93A2E00E94C30BADEFF3
:10196600B0E00C94110CEA93A2E00E94C30BADEF19
:10197600B0E00C94110CE0E0EA93A0E00C94C30BE9
:10198600ADEFB0E00C94110CE0E0EA93A1E00C940A
:10199600C30BEA93A3E00C94C30BFA93EA93E1E03A
:1019A600F1E0FA93EA93E0914B05F0914C056091D2
:1019B6004D0570914E050E94C71084E00E949F0954
:1019C60028960895FA93EA93E0914F05F091500511
:1019D60060915105709152050E94C71084E00E94E3
:1019E6009F0928960895A4E6B0E00C943D0E0E9447
:1019F600D40BC1CFE1E0F0E0E0936105F09362051E
:101A06000895E4E6F0E0E415F5050895D201EAE06C
:101A1600F0E00E9447100895BA93AA931A930A9386
:101A2600E0E0F0E060E271E40E94C710AE81BF81A1
:101A3600A819B909E1E0F0E00E94D710EA1BFB0BF8
:101A46000E9422100E94D00EDF01CB010E94370BAC
:101A56000E94970E8F010E943704C5CFA0914B05B7
:101A6600B0914C0580914D0590914E050895E091F9
:101A76004B05F0914C0560914D0570914E0508950A
:101A8600EF5FFF4F6F4F7F4FDF01CB01F8010895E6
:101A9600E0934B05F0934C0560934D0570934E050E
:101AA6000895E8EEF3E060E070E00E948910089582
:101AB600F40131964F01EA81FB81D4010E94711035
:101AC6004F010C9437040E94020CE4E0EA93089557
:101AD600EBE0F0E0E0935D05F0935E050895A9E282
:101AE600B1E00E94110C50CF0E94110CE0E0EA9385
:101AF600A2E00C94C30BA0914F05B09150058091C4
:101B06005105909152050895E0914F05F0915005C9
:101B160060915105709152050895E0934F05F09339
:101B26005005609351057093520508950E94020C6A
:101B3600E3E0EA93A1E00C94C30BEA93A0E00C94D3
:101B4600C30BEA93A1E00C94C30BEA93A2E00C94B6
:101B5600C30BFA93EA93E1E0F1E00895A0916905D9
:101B6600B0916A05119708952A93AD85BE85EF85D4
:101B7600F88909950895E889F9893497E88BF98BEE
:101B86000895AD85BE85EF85F88909950895A889DC
:101B9600B98914960E94AB10EE83FF83AE81BF8194
:101BA6000895A889B98914960E94AB10EA87FB8725
:101BB6000895DE011C960E940D100E94AB10089538
:101BC6000E94B8100895A0E0B0E080E89FE30E946C
:101BD600030F0895AE81BF81888599850895EE81AA
:101BE600FF81688579850895EE83FF836887798705
:101BF6000895F5DFEFCF0E945A0FEA83FB836C83CB
:101C06007D8308950E945A0FDF01CB0108950E943B
:101C1600D1100E94030F0895EA81FB816C817D81BA
:101C26000895AA85BB858C859D850895E0E0F0E042
:101C360060E070E00895E885F9856A857B850895FA
:101C4600EC81FD816E817F8108950E94170AAC8127
:101C5600BD818E819F81D6CF0E94B60BA3E0B0E0F6
:101C66000C943D0EA0E30E94A20B80E991E001973F
:101C7600F1F70895109639F080EA9FE00197F1F7A1
:101C8600A8951197C9F70895E991F9916991799104
:101C960077FB660F771F88277E57880B7D938C937B
:101CA6007EE7769567956EF00895E991F9916991C9
:101CB600799177FB660F771F7A0F769567950EF009
:101CC600089530976040704009F070580895552384
:101CD60042F4503811F4E0FF04C03196691F791FB1
:101CE6006BF050E8572711F45F93CFC05F3F31F098
:101CF600660F000C57956795752F08955F93002022
:101D06000AF0CFC0C8C050E8192E1522880F991FB7
:101D16009527550F879550E8072E0522660F771FE2
:101D26007527550F67950895689401C0E8945F93E9
:101D3600F2DF703818F07F3F08F4A7C056E1571B52
:101D4600AAF4519558300EF4593030F0EFEFFFEF0A
:101D56006FEF7FE777F91AC077275523B9F0EE0FB3
:101D6600FF1F661F771F5A95D1F710C07727583087
:101D760028F0EF2FF62F672F5850F9CF552331F063
:101D860076956795F795E7955A95D1F700200AF469
:101D96004ED15F910895689401C0E89430976040F1
:101DA6007040B1F0002426F0772312F400943FD15E
:101DB600172E7EE1112032F07A95EE0FFF1F661F77
:101DC600111CF9CFEF2FF62F612D5F938ADF5F91FC
:101DD60008954F93AF01FD01DA01AB01BC01CA01C1
:101DE600402D012C142E4F910895EA0FFB1F681FFA
:101DF6000895E095F0956095EF5FFF4F6F4F08955A
:101E06005F9381DF903871F150E8152604C05F9327
:101E16007ADF903839F1703821F1572F591B2BF1A1
:101E260012F4D7DFFACF583118F0AA27BB27882734
:101E3600583028F0AB2FB82F88275850F9CF5523A4
:101E460029F08695B795A7955A95D9F7502D51251E
:101E560072F0CBDF38F46795F795E795739513F431
:101E660020C0B7DF3EDF5F910895D8F7FBCFEA1BAE
:101E7600FB0B680B51F010F40094BBDF662392F362
:101E8600EE0FFF1F661F7A95CBF7EE27FF27662713
:101E960077275F910895EFEFFFEF6FE77FEF5F9191
:101EA6000895EFEFFFEF6FE77FE75F9108955F9388
:101EB6002ADF703851F3903841F301240894791FD2
:101EC60023F41CF300203AF3ECCF0F921F932F93C9
:101ED6003F934F93112722279927689FA0018F9F31
:101EE600302D410D591F6B9F300D411D591F8E9F7F
:101EF60027D0BF9F25D06A9F23D0BE9F1DD0AF9FFE
:101F06001BD0AE9F110D291F391F491F591FE32FE3
:101F1600F42F652F522F4F913F912F911F910F90C4
:101F260066232AF0550FEE1FFF1F661F02C073952A
:101F36004BF2CDDE5F910895100D211D391F02C0B1
:101F4600200D311D491F591F08955F93DCDE70383F
:101F560021F411200AF49FCFA4CF903809F495CF2D
:101F660001240894970B1BF4D4F30020F3CF792FA8
:101F76001F932F933F934F93112411272227332723
:101F86004427552790E2AE17BF078607410730F072
:101F9600AE1BBF0B860B410B089401C08894551FDE
:101FA600221F331F111CAA1FBB1F881F441F9A958F
:101FB60051F7F901612D4F913F912F911F916623A2
:101FC60032F0550FEE1FFF1F661F7A9543F27FDE34
:101FD6005F91089599239AF0772342F0971748F076
:101FE60029F4AE17BF07860720F031F0989488943D
:101FF60008959894089408951894889408957723DA
:10200600C2F7971798F3A9F7EA17FB07680788F34B
:1020160099F3ECCF0024AF0DB01D0895EA0FFB1F16
:10202600681F791F0895F195E195F0400895F095A0
:1020360060957095E195FF4F6F4F7F4F08956F2F15
:10204600660F660B762F0895FA9FF02DEB9FF00D25
:10205600EA9FE02DF10D08956DD0F6DF0EF4E3DF73
:1020660008950024112490E1AA0FBB1F001C111C27
:102076000E1A1F0A18F40E0E1F1E01C0A1609A95B3
:1020860099F7FD01D001089555D0EBDF0EF4CBDFB3
:1020960008953F934F935F930024112444275527B7
:1020A60030E2AA0FBB1F881F991F001C111C441F7A
:1020B600551F0E1A1F0A460B570B28F40E0E1F1E2D
:1020C600461F571F01C0A1603A9559F7FD01BC0193
:1020D600D001CA015F914F913F910895E894B7FFEF
:1020E60004C0A095B09511966894F7FD9CDFB9DF02
:1020F600FD010EF498DF0895E894F7FF02C093DF20
:102106006894EA23FB230EF48EDF0895E89497FF84
:1021160009C0A095B09580959095AF5FBF4F8F4F42
:102126009F4F689477FD83DFB4DFFD01BC010EF499
:102136007EDF0895E894F7FF02C075DF6894B7FF65
:1021460006C0A095B095119600F8039400FA08957C
:10215600ED91FC9111970895ED93FD936D937C930A
:1021660008950590F491E02D0895E881F9816A813A
:102176007B810895A881B9818A819B810895E8832E
:10218600F9836A837B8308957A936A93FA93EA9331
:1021960008959A938A93BA93AA930895182E862F30
:1021A600612D192E972F712D1B2EBF2FF12D1A2E53
:1021B600AE2FE12D089530976040704008950024B9
:1021C6000A160B06080609060895EA17FB076807AC
:1021D600790708955A934A933A932A931A930A933E
:1021E60008955D814C813B812A811981088108957A
:00000001FF
