:0C0000000C9457010C9400000C940000BC
:10000C000C9400000C9400000C9400000C94000064
:10001C000C9400000C9400000C9400000C94000054
:10002C000C9400000C9400000C9400000C94000044
:10003C000C9400000C9400000C9400000C94080329
:10004C000C9400000C947A030C9400000C940000A7
:10005C000C9400000C9400000C9400000C94000014
:10006C000C9400000C9400000C94C6030C9400003B
:10007C000C9400000C9400000C9400000C940000F4
:10008C001027E80364000A000100001000011000B2
:10009C0001000000303030303030303001000000D2
:1000AC00000000003C3030313E003C3030323E002D
:1000BC003C3030333E003C3031303E003C3031314E
:1000CC003E003C3031342D253034643E003C303120
:1000DC00352D253034643E0020005E00253033641D
:1000EC00002530326400566F6C746167652073654F
:1000FC007420746F3A0056003C3031342D00536537
:10010C00742076616C75652073686F756C64006221
:10011C0065206265747765656E203131302D003154
:10012C00333520766F6C74730043757272656E7420
:10013C002073657420746F3A0041003C3031352DCA
:10014C00006265206265747765656E2031302D0024
:10015C00323020616D707300202048494748205789
:10016C0041545441474520200020424154544552AB
:10017C00592043484152474552003C3031342D30D0
:10018C00313130003C3031352D3030313000536559
:10019C007420506172616D657465727300504152C8
:1001AC00414D455445525300566F6C746167652040
:1001BC0028564F4C5453290043757272656E742047
:1001CC0028414D5053290053657420766F6C74612F
:1001DC0067653A005365742063757272656E743A84
:1001EC000053563A005342433A0041563A004142BA
:1001FC00433A004149563A00414F433A0046617533
:10020C006C742049443A0030303000253032642E72
:10021C0025303164004D616368696E65203A204F6A
:10022C004E20004D616368696E65203A204F46464A
:10023C00000001002D4E414E00494E46000080C08A
:10024C00010002009E0008008605A00001000005C8
:10025C00B50001000105B50010000205F200100008
:10026C0012053501110022056401110033057501D9
:10027C000A004405090204004E051302040052054D
:10028C00130204005605130204005A051302080059
:10029C000400A800010036063E0202003A064A029B
:1002AC000000F894EE27ECBBF1E0F5BFE5BFE0935E
:1002BC006C00F8E1F1BDE1BD8DE0A2E0BB27ED9350
:1002CC008A95E9F780E090E1A0E0B1E0ED93019729
:1002DC00E9F7ECE4F2E085919591009761F0A59136
:1002EC00B59105901590BF01F00105900D92019705
:1002FC00E1F7FB01F0CF8BBFEFEFEDBFE0E1EEBF1D
:10030C00C0E0D5E00C9480071A930A9300E010E04B
:10031C0000E010E00E94E40CE03039F00E94E40CA4
:10032C00EA9306D20F5F1F4FF5CF198108812496EF
:10033C0008950895E0EBF0E005C0E6EBF0E002C0B4
:10034C00ECEBF0E0E093AA05F093AB050E94EB0C0C
:10035C0008950E94EF0CAB98E1E0F0E0E093820589
:10036C00F093830508950E94EF0CE0E0E093820582
:10037C00E0938305AB9A0895E0E0E0938405E09365
:10038C0085050E94EF0CE0E0E0938205E093830585
:10039C000895A497E0E0EAA3EBA30E94401100E0CB
:1003AC0010E040E050E0EAA5FBA5E8A7F9A73097DC
:1003BC0059F0E0916200EF7BE0936200E1E0F0E045
:1003CC00E0938405F093850500E010E00830E0E050
:1003DC001E07CCF4E7E0F0E0E01BF10BEA57FA4F14
:1003EC00BF01A8A5B9A5E2E0F0E00E94EC10E05D29
:1003FC00DB01EC93E8A5F9A5F595E795E8A7F9A736
:10040C000F5F1F4FE3CF0E944711AC960895E88110
:10041C00F981E0936A05F0936B05B9C20E94F60C62
:10042C0000936C0510936D0520936E0530936F054A
:10043C0011C0E881F981E0937005F0937105A7C2B2
:10044C000E94F60C009372051093730520937405AB
:10045C00309375050E944911269608952797E0E37D
:10046C00E883E983EA83EB83EC83ED83EE830E94DC
:10047C00401100E010E020E030E041E050E044307A
:10048C00E0E05E074CF4FA013197DE011A960E9407
:10049C00070D4F5F5F4FF3CF45E050E04930E0E090
:1004AC005E074CF4FA013597DE0116960E94070D93
:1004BC004F5F5F4FF3CFEC850E94130DBF01EB85AF
:1004CC000E94130D0E94160DEA850E94130DA4E6DE
:1004DC00B0E00E94CF10E60FF71F8F01E9850E9454
:1004EC00130DBF01E8850E94130D0E94160DEF81BC
:1004FC000E94130DA4E6B0E00E94CF106E0F7F1F78
:10050C00EE810E94130DA8EEB3E00E94CF10E60F0F
:10051C00F71F9F01F801309711F40BDF6FC0E1302A
:10052C00A0E0FA0711F415DF69C0E230A0E0FA0789
:10053C0011F419DF63C0E330A0E0FA0711F41CDFFB
:10054C005DC0E430A0E0FA0721F43A932A9321DF4E
:10055C0055C0E530A0E0FA0711F4EBDE4FC0E630F1
:10056C00A0E0FA0711F4E5DE49C0E730A0E0FA0795
:10057C0011F4DFDE43C0E830A0E0FA0711F4D9DE55
:10058C003DC0E930A0E0FA0711F4D3DE37C0EA3001
:10059C00A0E0FA0721F43A932A9339DF2FC0EB300D
:1005AC00A0E0FA0721F43A932A9338DF27C0EC3005
:1005BC00A0E0FA0721F43A932A933BDF1FC0ED30F9
:1005CC00A0E0FA0721F43A932A933ADF17C0EE30F1
:1005DC00A0E0FA0711F4ADDE11C0EF30A0E0FA078D
:1005EC0011F4A7DE0BC0E031A0E0FA0711F4A1DE94
:1005FC0005C0E131A0E0FA0709F49BDE0E94471127
:10060C002F9608950A921A92FA926A937A938A9381
:10061C009A93AA93BA93EA93FA93EFB7EA931A933D
:10062C000A931BB10CB1E12FEC7111F00C946A031D
:10063C00E091E405EF5FE093E4050E941D0DEC539F
:10064C00FA4F00830C3349F4E1E0F0E0E093C0058D
:10065C00F093C1050E94200D10C00E3371F40E945E
:10066C00260DE0E0E093C005E093C1050E94200D4B
:10067C00ECEAF5E0FA93EA93F1DEA091C005B091B3
:10068C00C105119771F40E94260DA2ECB5E00E94F1
:10069C002E0DA091C205B091C305199711F40E94BB
:1006AC00200DA091E405A03219F4E0E0E093E405FC
:1006BC00A091E605AF5FA093E605A03229F4E0E037
:1006CC00E093E605689420F809911991E991EFBF40
:1006DC00F991E991B991A99199918991799169913E
:1006EC00F990199009901895AA93EA93FA93EFB799
:1006FC00EA93E0912906E030A9F0E150E093290655
:10070C00E0912806EF5FE09328060E941D0DE95149
:10071C00FA4FE081ECB9A0912806A03419F4E0E07E
:10072C00E0932806E991EFBFF991E991A991189509
:10073C00A0912906A034E1F3F894E0912906E03069
:10074C0011F45D9918C0E0912706EF5FE09327063E
:10075C000E941D0DE951FA4FA881A083A091270694
:10076C00A03419F4E0E0E0932706E0912906EF5F4E
:10077C00E093290602C0E881ECB97894219608959B
:10078C00AA93BA93EA93FA93EFB7EA93E0E00C9B3F
:10079C00E1E00E94340DE0913006F09131060E94A8
:1007AC00380DE0933006F0933106A0913006B091ED
:1007BC003106A030E0ECBE0731F4E1E0F0E0E0936C
:1007CC002A06F0932B06E0E00E9BE1E00E94340D2C
:1007DC00E0913206F09133060E94380DE093320618
:1007EC00F0933306A0913206B0913306A030E0ECC2
:1007FC00BE0731F4E1E0F0E0E0932C06F0932D0617
:10080C00E0E0849BE1E00E94340DE0913406F0912D
:10081C0035060E94380DE0933406F0933506A0910E
:10082C003406B0913506A030E0ECBE0731F4E1E0BF
:10083C00F0E0E0932E06F0932F06E991EFBFF991CB
:10084C00E991B991A99118950E943D0DE1E00E94A2
:10085C00490DE2E00E94490DE3E00E94490D8A92A5
:10086C000E94540DE6EEF0E016C00E94580D0E9456
:10087C005D0D0E94630D0E945D0D0E943D0DE0E038
:10088C000E94690D0E945D0DE0E0EA93AA920E941D
:10089C00510CE4EBF0E0FA93EA930E949F0C08955C
:1008AC00EFE8F5E00E946E0D0E94750D0E947A0D26
:1008BC00EFE8F5E0C6C2E2E9F5E0FA93EA93EDEE73
:1008CC00F0E0FA93EA930E94830D0E947A0DE2E91C
:1008DC00F5E0B7C26501C9DF0E94880D0F9917C0FA
:1008EC000F9BFECFF60131976F010024C014D0048A
:1008FC0034F4F601A881B981EA0FFB1F01C0F6019F
:10090C00DF01E881F9810E94EC105F01AEDF0D99E7
:10091C000CC00D9BFECFF50131965F01E881F9818A
:10092C00D5010E94EC105F01A0DFB39912C0B39BFC
:10093C00FECFEAE0F0E04E165F061CF4F2013196B1
:10094C0001C0F201AAE0B0E00E94CF10EA0DFB1D3D
:10095C002F0182991CC0829BFECFE2E0F0E0E415EF
:10096C00F50559F40E948E0D66247724E1E0F0E041
:10097C00E0937605F09377050AC00E94950D1CF460
:10098C000E949A0D03C00E949A0D31972F01229656
:10099C0008950E94A00D0F991CC00F9BFECFE1E0A3
:1009AC00F0E0E017F10731F4F8010E94C00DEA0FF6
:1009BC00FB1F05C00E94750D3196E00FF11FE093EF
:1009CC005E05F0935F050E94C50D0E94C90D68DF9E
:1009DC003BDF0D9904C00D9BFECF0E94D00DB39947
:1009EC007BC0B39BFECF0E94750DEE36A0E0FA07DC
:1009FC0034F00E94C00DA838E0E0BE070CF04AC0ED
:100A0C000E94DB0DE2E0F5E00E94DE0DE4E00E94C6
:100A1C00E20DE2E0F1E00E94E70D42DF0E94750D6D
:100A2C000E94C2100E94EB0D0E94F40DEEE1F0E06A
:100A3C002F01E4E0F1E00E94EB0C0E94C50D0E9436
:100A4C00FB0D0E94C50D0E94C90D0E94C00DE4E66D
:100A5C00F0E00E94FB0D0E94C00DE4E6F0E00E9465
:100A6C00C90D0E94C00DEAE0F0E00E94FB0D0E944F
:100A7C00C00DEAE0F0E00E94C90DE0915E05E05D7A
:100A8C00EA9356DEE0E0E0935E05E0935F050E949A
:100A9C00010E1EC00E94DB0DEAE0F1E00E94E70DA2
:100AAC000E94630DEBE1F1E00E94E70D0E94080E3D
:100ABC00EBE2F1E00E94E70DE0E0E0935E05E093ED
:100ACC005F05EEE1F0E02F010E94F40DE8EEF3E09B
:100ADC00FA93EA930E94DC0E82990EC0829BFECFA1
:100AEC000E94F40D0E94950D1CF40E949A0D03C0F7
:100AFC000E949A0D31972F01198108810C949B0A41
:100B0C000E94A00D0F991CC00F9BFECFE1E0F0E0FE
:100B1C00E017F10731F4F8010E940B0EEA0FFB1FEE
:100B2C0005C00E94830D3196E00FF11FE093600524
:100B3C00F09361050E94100E0E94140EBCDE84DE40
:100B4C000D9904C00D9BFECF0E94D00DB39977C0B8
:100B5C00B39BFECF0E94830D3A9724F00E940B0E9C
:100B6C0055970CF04AC00E94DB0DE2E1F5E00E94C3
:100B7C00DE0DE3E00E94E20DE5E4F1E00E94E70DFA
:100B8C009ADE0E94830D0E94C2100E941B0E0E94CE
:100B9C00F40DEEE1F0E02F01E7E4F1E00E94EB0C44
:100BAC000E94100E0E94FB0D0E94100E0E94140E4B
:100BBC000E940B0EE4E6F0E00E94FB0D0E940B0E6F
:100BCC00E4E6F0E00E94140E0E940B0EEAE0F0E066
:100BDC000E94FB0D0E940B0EEAE0F0E00E94140E46
:100BEC00E0916005E05DEA93A3DDE0E0E093600551
:100BFC00E09361050E94010E1EC00E94DB0DEAE02D
:100C0C00F1E00E94E70D0E94630DEDE4F1E00E941B
:100C1C00E70D0E94080EECE5F1E00E94E70DE0E024
:100C2C00E0936005E0936105EEE1F0E02F010E9496
:100C3C00F40DE8EEF3E0FA93EA930E94DC0E82994D
:100C4C000EC0829BFECF0E94F40D0E94950D1CF4E9
:100C5C000E949A0D03C00E949A0D31972F011981A1
:100C6C0008810C949B0A88249924AA24BB240E94F2
:100C7C00620C0E94630DE2E2F5E00E94DE0D0E9420
:100C8C00080EE3E3F5E00E94DE0DE8EEF3E00E94CF
:100C9C00240EEEE6F0E060E070E00E94EB0DE6E87A
:100CAC00F1E00E94EB0CEAE0F0E060E070E00E9402
:100CBC001B0EE0E9F1E00E94EB0CE2E0F0E02F010A
:100CCC00E1E0F0E03F010E948E0D08950E94620C5D
:100CDC00AA24BB24882499240E94280EEAE9F1E076
:100CEC000E94E70DE1E0F0E0E0937A05F0937B05DC
:100CFC00E2E0F0E054C00E94620CE3E00E94690D57
:100D0C00E9EAF1E00E94E70D0E94280EE4EBF1E025
:100D1C000E94E70DE1E00E94E20DE4ECF1E00E949C
:100D2C00E70DE2E0F0E0E0937A05F0937B05EEE16D
:100D3C00F0E035C00E94DB0DE3EDF1E00E94E70D21
:100D4C00AFDDA0917805B09179051B9731F0E3E008
:100D5C00F0E0FA93EA931DDEF4CFE0E0E09378053F
:100D6C00E0937905ECE2F1E01AC00E94DB0DE0EEB5
:100D7C00F1E00E94E70D9FDDA0917805B091790517
:100D8C001B9731F0E2E0F0E0FA93EA93B9DEF4CF8E
:100D9C00E0E0E0937805E0937905EDE2F1E03F01C6
:100DAC0008950E94DB0DEDEEF1E00E94E70DE8E006
:100DBC000E942E0EE1EFF1E00E94E70D0E94630D00
:100DCC00E6EFF1E00E94E70DE8E00E94E20DEAEFA9
:100DDC00F1E00E94E70D0E94080EEFEFF1E00E9497
:100DEC00E70DE8E0EA930E94540DE4E0F2E00E9483
:100DFC00E70DE3E00E942E0EE5E9F5E00E946E0D92
:100E0C00E0916205F0916305609164057091650550
:100E1C000E94330EE5E9F5E00E94DE0DECE00E9445
:100E2C002E0EE8E9F5E00E946E0DE0916605F0915A
:100E3C00670560916805709169050E94330EE8E9B9
:100E4C00F5E0FA93EA930E94920C0895E1E0F0E049
:100E5C00E415F50509F407DFE2E0F0E0E415F5052B
:100E6C0009F434DFEEE1F0E0E415F50509F443DFB5
:100E7C00ECE2F1E0E415F50509F45CDFEDE2F1E0FC
:100E8C00E415F50509F471DF08950E943A0E39F462
:100E9C0054DAE0E0E0932A06E0932B061EC0E091C2
:100EAC006200E064E0936200A0912A06B0912B06E8
:100EBC00119739F43FDAE0E0E0932A06E0932B0631
:100ECC000CC0A0912C06B0912D06119731F435DA97
:100EDC00E0E0E0932C06E0932D06A0912E06B09155
:100EEC002F06119731F42CDAE0E0E0932E06E09314
:100EFC002F060895E0E0EBBBEABBE8E0E8BBE0E0DE
:100F0C00E7BBE8E0E5BBE4BBECEDE2BBE8E0E1BB52
:100F1C00EFEFE3B9E0E0E2B9EFEFE0936200E093CA
:100F2C006100E0E0E0936500E0936400E0938B00E7
:100F3C00E9E0E0938A00E0E0E0938900E093880028
:100F4C00E0938100E0938000EFEFE0938700E09363
:100F5C008600E0E0E0938500E0938400E09383005A
:100F6C00E0938200E7BFE4E0E0937D00E0E0EBB9C2
:100F7C00E8EDEAB9E6E0E0939500E0E0E09390005C
:100F8C00E3E3E9B9E0E1EA930E94B00C78940E94A3
:100F9C003A0E89F40E94DB0DE4E4F5E00E94DE0DCC
:100FAC000E94400EE6E8F5E00E94DE0D0E943A0E2B
:100FBC0011F46BDFFBCFE1E0F0E0E415F50509F48B
:100FCC0052DEA0917C05B0917D05119711F00C9427
:100FDC009008A0918005B0918105119709F4E1DE8C
:100FEC00E3E00E94E20DECE9F5E00E946E0DE09169
:100FFC006A05F0916B050E94C2100E94330EEEE45C
:10100C00F5E00E94DE0DE3E00E94E20DECE9F5E074
:10101C000E94DE0DECE00E94E20DEFE9F5E00E948B
:10102C00430EE0916E05F0916F050E944A0EE0911F
:10103C006C05F0916D050E944A0E88E000D22C964A
:10104C00E2E5F5E00E94DE0DECE00E94E20DEFE936
:10105C00F5E00E94DE0D0E94400EE3EAF5E00E94EE
:10106C006E0DE0917005F09171050E94C2100E9406
:10107C00330EE6E5F5E00E94DE0D0E94400EE3EA39
:10108C00F5E00E94DE0DECE0EA930E94540DE6EAD6
:10109C00F5E00E94430EE0917405F09175050E94F5
:1010AC004A0EE0917205F09173050E944A0E88E099
:1010BC00C6D12C96EAE5F5E00E94DE0DECE0EA9351
:1010CC000E94540DE6EAF5E00E94DE0DA091820527
:1010DC00B0918305119731F4E1E00E94690DE1E2D2
:1010EC00F2E00BC0E0918205F0918305309749F452
:1010FC00E1E00E94690DEFE2F2E0FA93EA930E94BC
:10110C009F0CE0E0E0937E05E0937F05E093800583
:10111C00E0938105BADE829923C0E0E0E0937C0580
:10112C00E0937D05A0917605B0917705119771F04C
:10113C006414750411F08ADEFBCFE0917A05F0910E
:10114C007B05FA93EA93C6DBA0DEECCFE0E0E093FC
:10115C007605E0937705E2E0F0E02F010E94620C47
:10116C0016CFFFCF1A930A93AA81BB8112960E94C5
:10117C000811309729F1AA81BB8114960E9408119D
:10118C008F01309761F00230E0E01E07C0F0F801EB
:10119C0031978F01AA81BB811496ED93FC93AA81A0
:1011AC00BB8112960E942E0D3197AC81A083AA812F
:1011BC00BB810E940811FF2312F00E942E0D06C065
:1011CC00AA81BB81EFEFFFEFED93FC9319810881AE
:1011DC002596089526970E94401110E0AC85BD8598
:1011EC00E0E0F0E0ED93FC93EA89FB893196EA8B21
:1011FC00FB8B3197E4912E2FE03011F40C941D0AE7
:10120C00E12FE03039F4253211F411E002C00E94D4
:10121C004F0E0CC1E130A9F4253219F40E944F0E87
:10122C0004C112E040E000E02D3211F401E0FEC0F8
:10123C002B3211F44BE2FAC0203211F440E2F6C02A
:10124C0002C0E23039F450E013E0203311F40068AE
:10125C00EDC004C0E33011F00C941C0A203310F0E4
:10126C002A3308F007C0AAE05A9F502DE22FE05312
:10127C005E0FDCC0E22FE33649F40E94580EE88979
:10128C00F989A481AA930E945E0ECFC0E33741F482
:10129C000E94580E0E94660E0E940A0C1E2F0AC055
:1012AC00E03761F40E94580E0E94660E0E94140CE6
:1012BC001E2F086002600F7730E035C0E43611F065
:1012CC00E93611F4046002C0E53731F4ECE8F0E0E3
:1012DC00EE83FF8315E00DC0E83511F4086004C0FF
:1012EC00E83711F00C941B0AE6E9F0E0EE83FF837B
:1012FC0014E002FF14C00E94580E0E94700EAB85C1
:10130C00AA233AF4EA85FB850E94B610EA87FB878C
:10131C004DE2403011F01F5F01C00B7F04C00E94F2
:10132C00580E0E94700E00FD11C0151778F407FFBF
:10133C0008C002FF04C00B7F242F115001C020E312
:10134C0001C020E20E944F0E5150EFCF312F01FF10
:10135C0017C03030A1F003FF06C0EE81FF8125914C
:10136C00EE83FF8305C0AE81BF812D91AE83BF8319
:10137C000E944F0E503009F051503150EACF4BC003
:10138C0020E3EE81FF810E941111E887F987EE813D
:10139C00FF813296EE83FF83E885F985AA85BB85AC
:1013AC00AE17BF0750F02F5FA885B985EA85FB857E
:1013BC00EA1BFB0BEA87FB87EFCF2A3328F003FFEE
:1013CC0002C0295F01C0295D04FD1AC0213320F43D
:1013DC00A885B985119709F409C0531710F000FFBF
:1013EC0001C013C020E207FF0BC020E3006102FF25
:1013FC0007C00B7F4A930E945E0E503009F051508B
:10140C000E944F0E503009F051503150A885B985CB
:10141C00129708F0B5CF00FF08C0503031F0515092
:10142C00E0E2EA930E945E0EF8CF10E0DDCEAC85D0
:10143C00BD850E9408110E94471164960895FF9281
:10144C00F82E26970E9442110E94780E309719F4BC
:10145C00EFEFFFEF25C0DE0116960E94B2108D0152
:10146C000E94780EEE83FF83E0E0E887E987DE01D7
:10147C001A960E94B2100E940811FA93EA931A93DA
:10148C000A93E8EBF8E0FA93EA93FE013A96FA93A2
:10149C00EA93A0DE9F01AE81BF81E0E0EC93F901FD
:1014AC000E9449112A96FF9008957B816A81F981E7
:1014BC00E88177FB770F67FD7160972F9E5781F05E
:1014CC0078F0983190F4AA27BB2788270894879541
:1014DC00B795A7959A95D1F7EA23FB23682305C006
:1014EC00E8947727EE27FF2766276F77769508F421
:1014FC00606877F9A991B99189919991EA17FB07DD
:10150C006807790797FB08950E947F0E0E941F11B0
:10151C000E945B0A0E941A1119F40E947F0E05C0EA
:10152C00E6F70E947F0E0E94820E2496089524975F
:10153C001A930A930E94890E0E9435112CF0EFEF3A
:10154C00FFEF6FE77FEF77C00E948E0E0E941F1196
:10155C00EDB7FEB73197FA93EA931F930F930E945E
:10156C00E80E0F911F910E94930E0E94890EE3EFDB
:10157C00F4E065E37FE30E94921040F40E94980E21
:10158C000E94AF0F0E94930E015010400E948E0ECD
:10159C000E94820E7F936F93FF93EF930E948E0EA7
:1015AC00A0E0B0E080E89FE30E94AF0FAF91BF9145
:1015BC008F919F910E944D100E94930E0E94980E45
:1015CC000E949A0EA6E2B2E485E69FE30E94FF0F0A
:1015DC00DF01CB01EEE4F1E164E570E40E94A10EC1
:1015EC000E94890E0E94FF0F7F936F93FF93EF93DE
:1015FC000E94A60EADE4B1E184ED9FE30E94A80F1A
:10160C00AF91BF918F919F910E944D107F936F93DB
:10161C00FF93EF93F8010E94C2100E94750FA8E18E
:10162C00B2E781E39FE30E94FF0FAF91BF918F91CF
:10163C009F910E94AF0F198108812A9608952897CF
:10164C001A930A930E94AB0EE0E5FCEA6EEA72EC88
:10165C000E94921018F40E94B00E88C0EA85FB8597
:10166C006C857D850E94311129F4E0E0F0E060E8A2
:10167C007FE37CC00E94AB0EE8E1F2E761EB72E421
:10168C000E94921009F010F40C94510BEFEFFFEF45
:10169C006FE77FE76BC00E94AB0EEBE3FAEA68EBF7
:1016AC007FE30E94FF0FEA87FB876C877D870E9490
:1016BC001F112ADF0E943E0F8F01F8010E94AB0E12
:1016CC000E94C2100E94750F0E94A10EDF01CB0177
:1016DC00E0E0F0E060E07FE30E94A10E0E94930E38
:1016EC000E94980E0E949A0EADE6BCE48CE69DE337
:1016FC000E94FF0FA6EAB3EE86EE90E40E94AF0FB5
:10170C000E94890E0E94FF0F0E94930E0E94A60E4B
:10171C00A8E2BDE886EA91E40E94AF0FEA83FB835E
:10172C006C837D830E948E0EAA81BB818C819D81EE
:10173C000E94AF0FA3EFB4E085EB9FE30E94FF0F75
:10174C007F936F93FF93EF930E94890E0E94A60ED6
:10175C000E94A80FAF91BF918F919F910E944D1045
:10176C000E941F111A930A930E94FB0E1981088183
:10177C002E96089524970E94B50E0E94311119F4EB
:10178C000E94B00E3FC0A885B9858A859B850E94B2
:10179C0035117CF40E94BA0E0E94311129F4E0E05C
:1017AC00F0E060E87FE32EC00E94B50E0E94BF0EF1
:1017BC0029C00E94BA0EDE010E943E0F0E940C113D
:1017CC000E947F0E0E94750FDF01CB010E94BA0EA2
:1017DC000E943B1119F00E94B00E14C00E94B50E6D
:1017EC000E94090F0E94BF0EE887F9876A877B87E2
:1017FC00E881E17019F40E94B50E04C00E94B50E88
:10180C000E94090F2C960895A991B991EE27FF27F4
:10181C006D91662311F03196FBCF0895AA27BB2753
:10182C00E991F9910590002011F01196FBCFFD0183
:10183C000895E881E07111F0AC9A01C0AC98E88190
:10184C00E07211F0AD9A01C0AD98E881E07411F02E
:10185C00AE9A01C0AE98E881E07811F0AF9A01C061
:10186C00AF988BE08A95F1F7AA9A8BE18A95F1F7FC
:10187C00AA988BE18A95F1F79FC0E881EA93D9DFAA
:10188C00E881E295E883E881EA93D3DF88EC90E085
:10189C000197F1F791C0E881F0E0E65CF94FE08147
:1018AC00A981EA0FEA93E9DFE981E0933E06E8813A
:1018BC00E0933F0622960895E2E00E94CD0EECE004
:1018CC00EA93DBDFE1E00E94CD0EE0E0E0933F061F
:1018DC00E0933E060895A881AA3031F0E0914006CD
:1018EC00A0913E06AE1768F0E0E0EA93E0913F0667
:1018FC00EF5FE0933F06EA93CEDFA881AA3009F4AC
:10190C005BC0E0913E06EF5FE0933E06A89AE8814B
:10191C00EA93B3DFA89850C01A93A981BA81ED91CC
:10192C00A983BA831E2FE03019F01A93D4DFF5CFB8
:10193C000EC01A93E981FA813196E983FA833197C3
:10194C00E4911E2FE03019F01A93C5DFF3CF188104
:10195C0023960895A49AA59AA69AA79AA29AA09AB1
:10196C00A19AAA98A898A998E881E0934006E05813
:10197C00E0933C06E881E054E0933D06E4E1F0E0BE
:10198C000E94240E0E94D30E0E94D30E0E94D30EEE
:10199C00E0E2EA934EDF80E991E00197F1F7E8E2AB
:1019AC00EA936BDFE4E0EA9368DFE5E8EA9365DF4E
:1019BC00E6E0EA9362DF80DF21960895F801AA81C0
:1019CC00BB81EA0FFB1FE4910895FA93EA930C9400
:1019DC008A01E1E0F0E0E0938005F0938105089541
:1019EC000E944211AC81BD81EAE0F0E00E94EC1053
:1019FC008F01AC81BD81EAE0F0E00E94E7109F010D
:101A0C000895EA0FFB1F0F01FA01AD85BE85AE0FDD
:101A1C00BF1FEC91D001EC930895F0E0F09708957E
:101A2C00AAE0B0E00E94CF106E0F7F1F0895E15026
:101A3C00F0E00895E0E0E093C205E093C30508955B
:101A4C00E091C205F091C305E455FA4F0083089567
:101A5C00ED91FD913196FE93EE930895F0E0F068D0
:101A6C00DF010895EE0FFF1FEA2BFB2B0895E0E03A
:101A7C00EA93E2E0EA930E94510CE4EEF0E0FA9370
:101A8C00EA930C949F0CEA93E2E0EA930E94510CC7
:101A9C00E4EEF0E0FA93EA930C949F0CE2E0EA9304
:101AAC000C94510CE0E0EA93EA930C94510CE4EEA4
:101ABC00F0E0FA93EA930C949F0CE0E0EA93E1E0F7
:101ACC00EA930C94510CEA93E3E0EA930C94510CD6
:101ADC00FA93EA93E8EEF0E0FA93EA930895E09132
:101AEC005E05F0915F0508950E94C2100E941F11BF
:101AFC0084E00E94250A2896E0CFE0916005F091E1
:101B0C0061050895E4E6F0E0FA93EA930C94DC0E98
:101B1C00E1E0F0E0E0937C05F0937D055ACFE4E63C
:101B2C00F0E0E415F5050895D201EAE0F0E00E943A
:101B3C00E71008951A930A93E0E0F0E060E271E494
:101B4C000E941F11AE81BF81A819B909E1E0F0E034
:101B5C000E942A11EA1BFB0B0E94C2100E94750FF7
:101B6C000E941F110E94C00B0E943C0F8F010E940B
:101B7C002A04C8CFA0915E05B0915F050895FADFE5
:101B8C00E8EEF3E008950E94EC10E0935E05F0930C
:101B9C005F050895F40131964F01EA81FB81D40170
:101BAC000E94EC104F010C942A040E94620C7ACF14
:101BBC00FA93EA930C94920CEA93E1E0EA930C9476
:101BCC00510CFA93EA930C949F0CE0936205F093FA
:101BDC00630560936405709365050895EBE0F0E090
:101BEC00E0937805F093790508950E94E710E05D85
:101BFC00EA930C949E03EEE3EA930E949E03E4EFB7
:101C0C00F1E00895E0E0EA9349CFA0916005B0912E
:101C1C0061050895FADFE8EEF3E008950E94EC10F8
:101C2C00E0936005F09361050895E0936605F093E9
:101C3C00670560936805709369050895FA93EA93B4
:101C4C000C94DC0EE1E0EA93E0E0EA930C94510C86
:101C5C00EA93E0E0EA930C94510C0E941F1184E08B
:101C6C000E94250A28960895A0918405B0918505B7
:101C7C0011970895E4E0EA9311CFFA93EA93E7E120
:101C8C00F2E0FA93EA9308950E94C2100E941F1189
:101C9C0008952A93ED85FE85FA93EA93E989FA89EA
:101CAC0009950895E889F9893497E88BF98B08959B
:101CBC00ED85FE85FA93EA93E989FA8909950895E9
:101CCC00A889B98914960E940811EE83FF83FA93B0
:101CDC00EA930895A889B98914960E940811EA8795
:101CEC00FB870895DE011C960E94B2100E94081119
:101CFC0008950E9415110895A0E0B0E080E89FE3DC
:101D0C000E94A80F0895AE81BF818885998508959A
:101D1C00EE81FF81688579850895EE83FF8368875E
:101D2C0079870895F5DFEFCF0E94FF0FEA83FB83DD
:101D3C006C837D8308950E9424110E94A80F08953E
:101D4C00EA81FB816C817D810895AA85BB858C8598
:101D5C009D850895E0E0F0E060E070E00895E8858E
:101D6C00F9856A857B850895EC81FD816E817F8183
:101D7C0008950E941F110E949D0AAC81BD818E8125
:101D8C009F810E94FF0F0E941F110C94250BEA9358
:101D9C000E94430CE3E0F0E051CFE0E3EA930E94B1
:101DAC001F0C80E991E00197F1F70895E991F99101
:101DBC00309639F080EA9FE00197F1F7A8953197BA
:101DCC00C9F70895A991B991E991F991699179911E
:101DDC0077FB660F771F88277E57880B7D938C9334
:101DEC007EE7769567957EF00895A991B991E99172
:101DFC00F9916991799177FB660F771F7A0F769538
:101E0C0067950EF0089530976040704009F0705857
:101E1C000895552342F4503811F4E0FF04C0319674
:101E2C00691F791F6BF050E8572711F45F93CFC0EF
:101E3C005F3F31F0660F000C57956795752F08952D
:101E4C005F9300200AF0CFC0C8C050E8192E1522AD
:101E5C00880F991F9527550F879550E8072E052257
:101E6C00660F771F7527550F67950895689401C005
:101E7C00E8945F93F2DF703818F07F3F08F4A7C046
:101E8C0056E1571BAAF4519558300EF4593030F0E6
:101E9C00EFEFFFEF6FEF7FE777F91AC07727552346
:101EAC00B9F0EE0FFF1F661F771F5A95D1F710C0C0
:101EBC007727583028F0EF2FF62F672F5850F9CF8F
:101ECC00552331F076956795F795E7955A95D1F7A7
:101EDC0000200AF449D15F910895689401C0E894F8
:101EEC00309760407040B1F0002426F0772312F454
:101EFC0000943AD1172E7EE1112032F07A95EE0F34
:101F0C00FF1F661F111CF9CFEF2FF62F612D5F936A
:101F1C008ADF5F9108954F93AF01FD01DA01AB01A8
:101F2C00BC01CA01402D012C142E4F910895EA0FCB
:101F3C00FB1F681F0895E095F0956095EF5FFF4FCC
:101F4C006F4F08955F9381DF903871F150E815263B
:101F5C0004C05F937ADF903839F1703821F1572F34
:101F6C00591B2BF112F4D7DFFACF583118F0AA27EE
:101F7C00BB278827583028F0AB2FB82F882758500C
:101F8C00F9CF552329F08695B795A7955A95D9F78A
:101F9C00502D512572F0CBDF38F46795F795E79506
:101FAC00739513F420C0B7DF3EDF5F910895D8F727
:101FBC00FBCFEA1BFB0B680B51F010F40094BBDF5A
:101FCC00662392F3EE0FFF1F661F7A95CBF7EE2771
:101FDC00FF27662777275F910895EFEFFFEF6FE7F5
:101FEC007FEF5F910895EFEFFFEF6FE77FE75F9172
:101FFC0008955F932ADF703851F3903841F3012430
:10200C000894791F23F41CF300203AF3ECCF0F92C1
:10201C001F932F933F934F93112722279927689F44
:10202C00A0018F9F302D410D591F6B9F300D411D0D
:10203C00591F8E9F27D0BF9F25D06A9F23D0BE9F4C
:10204C001DD0AF9F1BD0AE9F110D291F391F491FEB
:10205C00591FE32FF42F652F522F4F913F912F9142
:10206C001F910F9066232AF0550FEE1FFF1F661F5E
:10207C0002C073954BF2CDDE5F910895100D211DBA
:10208C00391F02C0200D311D491F591F08955F9340
:10209C00DCDE703821F411200AF49FCFA4CF9038E5
:1020AC0009F495CF01240894970B1BF4D4F300206A
:1020BC00F3CF792F1F932F933F934F931124112715
:1020CC00222733274427552790E2AE17BF078607F0
:1020DC00410730F0AE1BBF0B860B410B089401C0BF
:1020EC008894551F221F331F111CAA1FBB1F881F4A
:1020FC00441F9A9551F7F901612D4F913F912F9102
:10210C001F91662332F0550FEE1FFF1F661F7A9545
:10211C0043F27FDE5F91089599239AF0772342F082
:10212C00971748F029F4AE17BF07860720F031F057
:10213C009894889408959894089408951894889481
:10214C0008957723C2F7971798F3A9F7EA17FB07B7
:10215C00680788F399F3ECCF0024AF0DB01D0895F8
:10216C00F195E195F0400895F09560957095E195A5
:10217C00FF4F6F4F7F4F08956F2F660F660B762FB3
:10218C000895FA9FF02DEB9FF00DEA9FE02DF10DD5
:10219C0008952AD0F6DF0EF4E3DF0895002411240D
:1021AC0090E1AA0FBB1F001C111C0E1A1F0A18F479
:1021BC000E0E1F1E01C0A1609A9599F7FD01D0016A
:1021CC00089512D0EBDF0EF4CBDF0895E894B7FF3F
:1021DC0004C0A095B09511966894F7FDC1DFDEDFC1
:1021EC00FD010EF4BDDF0895E894F7FF02C0B8DFDF
:1021FC006894B7FF06C0A095B095119600F80394AB
:10220C0000FA0895ED91FC9111970895ED93FD93CB
:10221C006D937C9308950590F491E02D0895E881D9
:10222C00F9816A817B810895E883F9836A837B83D2
:10223C0008957A936A93FA93EA930895182E862F49
:10224C00612D192E972F712D1B2EBF2FF12D1A2EAC
:10225C00AE2FE12D08953097604070400895002412
:10226C000A160B06080609060895EA17FB07680705
:10227C00790708955A934A933A932A931A930A9397
:10228C0008955D814C813B812A81198108810895D3
:00000001FF
