:0A0000000C94B6010C9400000C945F
:10000A0000000C9400000C9400000C9400000C9466
:10001A0000000C9400000C9400000C9400000C9456
:10002A0000000C9400000C9400000C9400000C9446
:10003A0000000C9400000C9400000C9400000C9436
:10004A005A030C9400000C94CC030C9400000C94FA
:10005A0000000C9400000C9400000C9400000C9416
:10006A0000000C9400000C9400000C9418040C94EA
:10007A0000000C9400000C9400000C9400000C94F6
:10008A0000001027E80364000A00010000100001C4
:10009A0010000100000049616D61426F6965C90580
:1000AA003030303030303030303030303030303046
:1000BA0001000000000000003C3030313E003C30BE
:1000CA0030323E003C3030333E003C3031303E006E
:1000DA003C3031313E003C3031342D253034643EE1
:1000EA00003C3031352D253034643E0020005E005E
:1000FA0025303364002530326400253032643A25D5
:10010A003032643A2530326400253032642F25308B
:10011A0032642F2530326400566F6C746167652033
:10012A0073657420746F3A0056003C3031342D00E8
:10013A005365742076616C75652073686F756C649D
:10014A00006265206265747765656E203131302DF5
:10015A000031333520766F6C7473004375727265A3
:10016A006E742073657420746F3A0041003C30311C
:10017A00352D006265206265747765656E203130C1
:10018A002D00323020616D70730054696D65205303
:10019A00657420546F3A0044617465205365742075
:1001AA00546F00202048494748205741545441473A
:1001BA004520200020424154544552592043484189
:1001CA0052474552003C3031342D30313130003CF9
:1001DA003031352D30303130005365742050617222
:1001EA00616D6574657273005365742054696D6539
:1001FA002F4461746500446973706C617920546995
:10020A006D6500504152414D455445525300566F59
:10021A006C746167652028564F4C54532900437506
:10022A007272656E742028414D50532900536574CB
:10023A0020766F6C746167653A0053657420637544
:10024A007272656E743A005365742054696D650064
:10025A0053657420446174650054494D4520414EEC
:10026A004420444154450054494D450054696D6544
:10027A003A00446174653A0053563A005342433A8D
:10028A000041563A004142433A004149563A004138
:10029A004F433A004661756C742049443A00303045
:1002AA003000253032642E25303164004D61636898
:1002BA00696E65203A204F4E20004D616368696E71
:1002CA0065203A204F46460001002D4E414E004916
:1002DA004E46000080C0010002009E000800C905C9
:1002EA00A0000800D205B20001000005C700010005
:1002FA000105C70010000205220110001205650160
:10030A000D00220594010C002F05A10111003B05E7
:10031A00AD0111004C05BE0106005D05760206001E
:10032A0063057C020A0069059E02060073057602CF
:10033A00060079057C0204007F05A80204008305F3
:10034A00A80204008705A80204008B05A802080079
:10035A000400BA0001008206D20202008606DE020A
:10036A000000F894EE27ECBBF1E0F5BFE5BFE0939F
:10037A006C00F8E1F1BDE1BD8DE0A2E0BB27ED9391
:10038A008A95E9F780E090E1A0E0B1E0ED9301976A
:10039A00E9F7E0EEF2E085919591009761F0A59179
:1003AA00B59105901590BF01F00105900D92019746
:1003BA00E1F7FB01F0CF8BBFEFEFEDBFE0E1EEBF5E
:1003CA00C0E0D5E00C94B0091A930A9300E010E05B
:1003DA0000E010E00E94D90FE03039F00E94D90FF6
:1003EA00EA93F9D10F5F1F4FF5CF1981088124963F
:1003FA0008950895E2ECF0E005C0E8ECF0E002C0F0
:10040A00EEECF0E0E093F605F093F7050E94E00FBA
:10041A0008950E94E40FAB98E1E0F0E0E093B305A1
:10042A00F093B40508950E94E40FE0E0E093B30569
:10043A00E093B405AB9A0895E0E0E093B505E09344
:10044A00B6050E94E40FE0E0E093B305E093B4053B
:10045A0008950E94491500E010E020E030E02C8168
:10046A003D81022E032A59F0E0916200EF7BE0936E
:10047A006200E1E0F0E0E093B505F093B60500E034
:10048A0010E00830E0E01E07A4F4E7E0F0E0E01B2B
:10049A00F10BEE52FA4FBF01D901E2E0F0E00E94FF
:1004AA00F314E05DDB01EC93359527950F5F1F4F41
:1004BA00E8CF23C0E881F981E0939B05F0939C057E
:1004CA00FFC20E94EB0F00939D0510939E05209397
:1004DA009F053093A00511C0E881F981E093A10539
:1004EA00F093A205EDC20E94EB0F0093A3051093AF
:1004FA00A4052093A5053093A6050E9450152696BB
:10050A0008952797E0E3E883E983EA83EB83EC83A2
:10051A00ED83EE830E94471500E010E020E030E012
:10052A0041E050E04430E0E05E074CF4FA013197D4
:10053A00DE011A960E94FC0F4F5F5F4FF3CF45E032
:10054A0050E04930E0E05E074CF4FA013597DE01ED
:10055A0016960E94FC0F4F5F5F4FF3CFEC850E9407
:10056A000810BF01EB850E9408100E940B10EA8553
:10057A000E940810A4E6B0E00E94D614E60FF71F06
:10058A008F01E9850E940810BF01E8850E940810C2
:10059A000E940B10EF810E940810A4E6B0E00E94AE
:1005AA00D6146E0F7F1FEE810E940810A8EEB3E0EA
:1005BA000E94D614E60FF71F9F01F801309711F435
:1005CA0018DF6FC0E130A0E0FA0711F422DF69C03A
:1005DA00E230A0E0FA0711F426DF63C0E330A0E0BE
:1005EA00FA0711F429DF5DC0E430A0E0FA0721F42C
:1005FA003A932A932EDF55C0E530A0E0FA0711F4AA
:10060A00F8DE4FC0E630A0E0FA0711F4F2DE49C086
:10061A00E730A0E0FA0711F4ECDE43C0E830A0E0CE
:10062A00FA0711F4E6DE3DC0E930A0E0FA0711F45A
:10063A00E0DE37C0EA30A0E0FA0721F43A932A93C1
:10064A0039DF2FC0EB30A0E0FA0721F43A932A935E
:10065A0038DF27C0EC30A0E0FA0721F43A932A9356
:10066A003BDF1FC0ED30A0E0FA0721F43A932A934A
:10067A003ADF17C0EE30A0E0FA0711F4BADE11C073
:10068A00EF30A0E0FA0711F4B4DE0BC0E031A0E0CD
:10069A00FA0711F4AEDE05C0E131A0E0FA0709F469
:1006AA00A8DE0E944E152F9608950A921A92FA927F
:1006BA006A937A938A939A93AA93BA93EA93FA9348
:1006CA00EFB7EA931A930A931BB10CB1E12FEC71BD
:1006DA0011F00C94BC03E0913006EF5FE093300612
:1006EA000E941210E05FF94F00830C3349F4E1E0F5
:1006FA00F0E0E0930C06F0930D060E94151010C06E
:10070A000E3371F40E941B10E0E0E0930C06E093B4
:10071A000D060E941510E8EFF5E0FA93EA93F1DE70
:10072A00A0910C06B0910D06119771F40E941B104E
:10073A00AEE0B6E00E942310A0910E06B0910F061B
:10074A00199711F40E941510A0913006A03219F4DD
:10075A00E0E0E0933006A0913206AF5FA093320644
:10076A00A03229F4E0E0E0933206689420F8099177
:10077A001991E991EFBFF991E991B991A9919991EB
:10078A00899179916991F990199009901895AA938C
:10079A00EA93FA93EFB7EA93E0917506E030A9F08D
:1007AA00E150E0937506E0917406EF5FE0937406FA
:1007BA000E941210ED5CF94FE081ECB9A091740629
:1007CA00A03419F4E0E0E0937406E991EFBFF991DF
:1007DA00E991A9911895A0917506A034E1F3F894CE
:1007EA00E0917506E03011F45D9918C0E091730646
:1007FA00EF5FE09373060E941210ED5CF94FA88137
:10080A00A083A0917306A03419F4E0E0E093730684
:10081A00E0917506EF5FE093750602C0E881ECB9D6
:10082A00789421960895AA93BA93EA93FA93EFB724
:10083A00EA93E0E00C9BE1E00E942910E0917C063B
:10084A00F0917D060E942D10E0937C06F0937D06C0
:10085A00A0917C06B0917D06A030E0ECBE0731F491
:10086A00E1E0F0E0E0937606F0937706E0E00E9B95
:10087A00E1E00E942910E0917E06F0917F060E9435
:10088A002D10E0937E06F0937F06A0917E06B0912C
:10089A007F06A030E0ECBE0731F4E1E0F0E0E0933F
:1008AA007806F0937906E0E0849BE1E00E94291043
:1008BA00E0918006F09181060E942D10E093800657
:1008CA00F0938106A0918006B0918106A030E0ECF9
:1008DA00BE0731F4E1E0F0E0E0937A06F0937B069C
:1008EA00E991EFBFF991E991B991A99118950E94FF
:1008FA0032100E943E100E944410E2E00E944A1008
:10090A00E3E00E944A10E4E00E944A10E5E00E94F7
:10091A004A10E6E00E944A10E7E00E944A10E8E026
:10092A000E944A10E9E00E944A10EAE00E944A1036
:10093A00EBE00E944A108A920E945010E8EFF0E021
:10094A0016C00E9454100E9444100E9459100E941E
:10095A0044100E943210E0E00E945F100E9444108E
:10096A00E0E0EA93AA920E94D50EE6ECF0E0FA9350
:10097A00EA930E942C0F0895EBEDF5E00E946410B3
:10098A000E946B100E947010EBEDF5E023C0EEEDB3
:10099A00F5E0FA93EA93EFEFF0E0FA93EA930E9414
:1009AA0079100E947010EEEDF5E014C0E4ECF5E069
:1009BA000E947E10E091C1050E948510E091C20557
:1009CA000E948510E091C3050E9485100E948B1039
:1009DA00E4ECF5E0FA93EA930E941E0F0895E8EC1E
:1009EA00F5E00E949010E091C5050E948510E09103
:1009FA00C6050E948510E091C7050E9485100E94D5
:100A0A008B10E8ECF5E032C465019BDF0E94971079
:100A1A000F9917C00F9BFECFF60131976F01002483
:100A2A00C014D00434F4F601A881B981EA0FFB1F7F
:100A3A0001C0F601DF01E881F9810E94F3145F0128
:100A4A0080DF0D990CC00D9BFECFF50131965F0139
:100A5A00E881F981D5010E94F3145F0172DFB3992D
:100A6A0012C0B39BFECFEAE0F0E04E165F061CF41C
:100A7A00F201319601C0F201AAE0B0E00E94D61458
:100A8A00EA0DFB1D2F0182991BC0829BFECFE2E07B
:100A9A00F0E0E415F50529F40E949D100E94A410C7
:100AAA000FC00E94AD101CF40E94B21003C00E9435
:100ABA00B21031972F01E0E0E093AB05E093AC056B
:100ACA00229608950E94B8100F991AC00F9BFECF64
:100ADA000E94D81031F4F8010E94DD10EA0FFB1FC2
:100AEA0005C00E946B103196E00FF11FE0938F054D
:100AFA00F09390050E94E2100E94E6103DDFF7DEB7
:100B0A000D9904C00D9BFECF0E94ED10B39979C0D8
:100B1A00B39BFECF0E946B10EE36A0E0FA0734F0CA
:100B2A000E94DD10A838E0E0BE070CF04CC00E941D
:100B3A00F810E2E0F5E00E94FB10E4E00E94FF10EA
:100B4A00E2E3F1E00E94041117DF0E946B100E9499
:100B5A00C9140E9408110E941111EEE1F0E02F0160
:100B6A00E4E3F1E00E94E00F0E94E2100E941811F3
:100B7A000E94E2100E94E6100E94DD10E4E6F0E016
:100B8A000E9418110E94DD10E4E6F0E00E94E610CF
:100B9A000E94DD10EAE0F0E00E9418110E94DD10C8
:100BAA00EAE0F0E00E94E610E0918F05E05DEA934A
:100BBA0012DEE0E0E0938F05E09390050E941E119B
:100BCA000E94A4101EC00E94F810EAE3F1E00E94FD
:100BDA0004110E945910EBE4F1E00E9404110E94F2
:100BEA002911EBE5F1E00E940411E0E0E0938F05A2
:100BFA00E0939005EEE1F0E02F010E9411110E94AE
:100C0A002C1182990EC0829BFECF0E9411110E9464
:100C1A00AD101CF40E94B21003C00E94B2103197AA
:100C2A002F01ABC00E94B8100F991AC00F9BFECFBC
:100C3A000E94D81031F4F8010E943211EA0FFB1F0A
:100C4A0005C00E9479103196E00FF11FE0939105DB
:100C5A00F09392050E9437110E943B1198DE47DEFD
:100C6A000D9904C00D9BFECF0E94ED10B39975C07B
:100C7A00B39BFECF0E9479103A9724F00E9432115A
:100C8A0055970CF04CC00E94F810E2E1F5E00E9482
:100C9A00FB10E3E00E94FF10E5E7F1E00E94041177
:100CAA0076DE0E9479100E94C9140E9442110E94A5
:100CBA001111EEE1F0E02F01E7E7F1E00E94E00F09
:100CCA000E9437110E9418110E9437110E943B118D
:100CDA000E943211E4E6F0E00E9418110E943211DB
:100CEA00E4E6F0E00E943B110E943211EAE0F0E0F3
:100CFA000E9418110E943211EAE0F0E00E943B11B2
:100D0A00E0919105E05DEA9366DDE0E0E09391050C
:100D1A00E09392050E941E110E94A4101EC00E9418
:100D2A00F810EAE3F1E00E9404110E945910EDE77D
:100D3A00F1E00E9404110E942911ECE8F1E00E94FE
:100D4A000411E0E0E0939105E0939205EEE1F0E012
:100D5A002F010E9411110E942C1182990EC0829BB0
:100D6A00FECF0E9411110E94AD101CF40E94B21015
:100D7A0003C00E94B21031972F011981088124966D
:100D8A0008950E944B1184010F9931C00F9BFECF29
:100D9A000E94D81059F4A091C105A73111F4E0E0DE
:100DAA0003C0E091C105EF5FE093C105E4E0F0E024
:100DBA00E017F10759F4A091C205AB3311F4E0E052
:100DCA0003C0E091C205EF5FE093C205E7E0F0E0FF
:100DDA00E017F10759F4A091C305AB3311F4E0E031
:100DEA0003C0E091C305EF5FE093C305DFDD0D9912
:100DFA0004C00D9BFECF0E945011B39927C0B39B2C
:100E0A00FECFE091C105E093B905E091C205E093F8
:100E1A00BA05E091C305E093BB05E091B905EA93F1
:100E2A00E091BA05EA93E091BB05EA930E94930F19
:100E3A000E945B11E2E2F5E00E94FB10B7DD0E941E
:100E4A002C110E946311EFE1F0E02F0182990EC08C
:100E5A00829BFECF0E9463110E94AD101CF40E9477
:100E6A00B21003C00E94B21031972F0175C00E94C0
:100E7A004B1184010F9931C00F9BFECF0E94D810ED
:100E8A0059F4A091C505AF3111F4E0E003C0E09137
:100E9A00C505EF5FE093C505E4E0F0E0E017F10770
:100EAA0059F4A091C605AC3011F4E0E003C0E0911A
:100EBA00C605EF5FE093C605E7E0F0E0E017F1074B
:100ECA0059F4A091C705A23311F4E0E003C0E09100
:100EDA00C705EF5FE093C70582DD0D9904C00D9B3E
:100EEA00FECF0E945011B39927C0B39BFECFE09169
:100EFA00C505E093BC05E091C605E093BD05E09108
:100F0A00C705E093BE05E091BC05EA93E091BD05F3
:100F1A00EA93E091BE05EA930E94AF0F0E945B112B
:100F2A00EFE2F5E00E94FB105ADD0E942C110E94AC
:100F3A006311EFE1F0E02F0182990EC0829BFECF90
:100F4A000E9463110E94AD101CF40E94B21003C0EB
:100F5A000E94B21031972F0109911991089588249E
:100F6A009924AA24BB240E94E60E0E945910EBE39E
:100F7A00F5E00E94FB100E942911ECE4F5E00E94C2
:100F8A00FB100E942C11EEE6F0E060E070E00E9497
:100F9A000811EFECF1E00E94E00FEAE0F0E060E017
:100FAA0070E00E944211E9EDF1E00E94E00FE2E0F8
:100FBA00F0E02F01E1E0F0E03F010E949D100E9465
:100FCA00E60E08950E946A11E3EEF1E00E94041110
:100FDA00E1E00E94FF10E2EFF1E00E9404110E949A
:100FEA003E10E0E0F2E00E940411E3E0F0E00E942B
:100FFA007611E2E0F0E09BC00E94E60EE3E00E9478
:10100A005F10EDE0F2E00E940411E1E00E947B1122
:10101A00E8E1F2E00E940411E1E00E94FF10E8E238
:10102A00F2E00E940411E2E0F0E00E947611EEE1A3
:10103A00F0E07DC00E94F810E7E3F2E00E9404119C
:10104A009BDCA091A905B091AA051B9721F00E94EB
:10105A00801138DDF6CF0E948511ECE2F1E067C01D
:10106A000E94F810E4E4F2E00E94041190DC0E946D
:10107A008B111B9731F0E2E0F0E0FA93EA93D2DDAC
:10108A00F6CF0E948511EDE2F1E051C00E946A118B
:10109A00E1E5F2E00E940411E1E00E94FF10EAE5B6
:1010AA00F2E00E940411E2E00E945F10E3E6F2E03F
:1010BA000E940411E2E0F0E00E947611EFE1F0E014
:1010CA0036C00E94E60EE0E0E093C105E093C20557
:1010DA00E093C3050E949011E1E7F2E00E94041137
:1010EA0065DC0E948B11119711F04BDEFACF0E943A
:1010FA008511E6E3F1E01BC00E94E60EE0E0E09312
:10110A00C505E093C605E4E1E093C7050E94901186
:10111A00ECE6F2E00E94041162DC0E948B11119746
:10112A0011F0A5DEFACF0E948511E7E3F1E03F0155
:10113A0008950E94E60EAA24BB2488249924829B3F
:10114A003EC00E949511EDE5F5E00E94FB10EFEB21
:10115A00F5E00E947E10E091B9050E948510E091A9
:10116A00BA050E948510E091BB050E9485100E9475
:10117A00A4110E947B11EFEBF5E00E94FB100E9484
:10118A00AA11E3E6F5E00E94FB10E0ECF5E00E940C
:10119A009010E091BC050E948510E091BD050E9467
:1011AA008510E091BE050E9485100E94A411EA9361
:1011BA000E945010E0ECF5E00E94FB10C0CFE0E284
:1011CA00F0E03F01E2E0F0E02F0108950E94F810FC
:1011DA00E2E8F2E00E940411E8E00E947B11E6E8EE
:1011EA00F2E00E9404110E945910EBE8F2E00E941A
:1011FA000411E8E00E94FF10EFE8F2E00E940411F7
:10120A000E942911E4E9F2E00E940411E8E0EA935D
:10121A000E945010E9E9F2E00E940411E3E00E9402
:10122A007B11E1EEF5E00E946410E0919305F091E4
:10123A00940560919505709196050E94B911E1EEA9
:10124A00F5E00E94FB10ECE00E947B11E4EEF5E071
:10125A000E946410E0919705F091980560919905B4
:10126A0070919A050E94B911E4EEF5E0FA93EA93B7
:10127A000E941E0F0895E1E0F0E0E415F50509F477
:10128A006EDEE2E0F0E0E415F50509F49BDEEEE13E
:10129A00F0E0E415F50509F4AFDEECE2F1E0E4155F
:1012AA00F50509F4C7DEEDE2F1E0E415F50509F408
:1012BA00D7DEEFE1F0E0E415F50509F4E7DEE6E351
:1012CA00F1E0E415F50509F4FCDEE7E3F1E0E415E5
:1012DA00F50509F411DFE0E2F0E0E415F50509F49B
:1012EA0028DF08950E94C01141F40E940202E0E042
:1012FA00E0937606E093770620C0E0916200E0640E
:10130A00E0936200A0917606B0917706119741F4B6
:10131A000E94FF01E0E0E0937606E09377060DC0B5
:10132A00A0917806B0917906119739F40E940202C9
:10133A00E0E0E0937806E0937906A0917A06B0910E
:10134A007B06119739F40E940502E0E0E0937A06E1
:10135A00E0937B060895E0E0EBBBEABBE8E0E8BB7C
:10136A00E0E0E7BBE8E0E5BBE4BBECEDE2BBE8E0CC
:10137A00E1BBEFEFE3B9E0E0E2B9EFEFE09362003F
:10138A00E0936100E0E0E0936500E0936400E0939D
:10139A008B00E9E0E0938A00E0E0E0938900E093C3
:1013AA008800E0938100E0938000EFEFE0938700EC
:1013BA00E0938600E0E0E0938500E0938400E09308
:1013CA008300E0938200E7BFE4E0E0937D00E0E081
:1013DA00EBB9E8EDEAB9E6E0E0939500E0E0E093E6
:1013EA009000E3E3E9B90E949112E0E0EA93EA93FC
:1013FA00EA930E94720FE0E1EA930E943C0F78940C
:10140A000E94C01189F40E94F810E9E6F5E00E94F2
:10141A00FB100E94C611E2EDF5E00E94FB100E944B
:10142A00C01111F45FDFFBCFE1E0F0E0E415F50550
:10143A0009F495DDA091B705B091B805AC32E1E0A9
:10144A00BE0711F40C946B0A0E949511E3E7F5E0CC
:10145A000E94FB10EFEBF5E00E947E10E091B905C7
:10146A000E948510E091BA050E948510E091BB05A3
:10147A000E9485100E94A4110E947B11EFEBF5E0F7
:10148A000E94FB100E94AA11E9E7F5E00E94FB10F6
:10149A00E0ECF5E00E949010E091BC050E948510F6
:1014AA00E091BD050E948510E091BE050E9485105D
:1014BA000E94A411EA930E945010E0ECF5E00E9409
:1014CA00FB10A7EBB5E00E942310B4CFA091AD05A5
:1014DA00B091AE05119711F00C94140BA091B105BF
:1014EA00B091B205119709F471DEE3E00E94FF1092
:1014FA00E8EEF5E00E946410E0919B05F0919C05EE
:10150A000E94C9140E94B911EFE7F5E00E94FB108E
:10151A00E3E00E94FF10E8EEF5E00E94FB10ECE029
:10152A000E94FF10EBEEF5E00E94C911E0919F05C1
:10153A00F091A0050E94D011E0919D05F0919E05C1
:10154A000E94D01188E000D22C96E3E8F5E00E94D0
:10155A00FB10ECE00E94FF10EBEEF5E00E94FB109E
:10156A000E94C611EFEEF5E00E946410E091A10519
:10157A00F091A2050E94C9140E94B911E7E8F5E0AA
:10158A000E94FB100E94C611EFEEF5E00E94FB10CC
:10159A00ECE0EA930E945010E2EFF5E00E94C911D4
:1015AA00E091A505F091A6050E94D011E091A3054E
:1015BA00F091A4050E94D01188E0C6D12C96EBE8E0
:1015CA00F5E00E94FB10ECE0EA930E945010E2EF73
:1015DA00F5E00E94FB10A091B305B091B4051197F4
:1015EA0031F4E1E00E945F10E6EBF2E00BC0E0911B
:1015FA00B305F091B405309749F4E1E00E945F1019
:10160A00E4ECF2E0FA93EA930E942C0FE0E0E09314
:10161A00AF05E093B005E093B105E093B20562DE51
:10162A00829923C0E0E0E093AD05E093AE05A09176
:10163A00A705B091A805119771F06414750411F00B
:10164A001ADEFBCFE091AB05F091AC05FA93EA9371
:10165A00DBD948DEECCFE0E0E093A705E093A805EC
:10166A00E2E0F0E02F010E94E60ECACEFFCF1A9305
:10167A000A93AA81BB8112960E940F15309729F10D
:10168A00AA81BB8114960E940F158F01309761F0D1
:10169A000230E0E01E07C0F0F80131978F01AA81FD
:1016AA00BB811496ED93FC93AA81BB8112960E948A
:1016BA0023103197AC81A083AA81BB810E940F15A8
:1016CA00FF2312F00E94231006C0AA81BB81EFEF0C
:1016DA00FFEFED93FC9319810881259608952697CB
:1016EA000E94471510E0AC85BD85E0E0F0E0ED937F
:1016FA00FC93EA89FB893196EA8BFB8B3197E4915B
:10170A002E2FE03011F40C94A10CE12FE03039F4C3
:10171A00253211F411E002C00E94D5110CC1E1304A
:10172A00A9F4253219F40E94D51104C112E040E04F
:10173A0000E02D3211F401E0FEC02B3211F44BE22D
:10174A00FAC0203211F440E2F6C002C0E23039F4A5
:10175A0050E013E0203311F40068EDC004C0E33018
:10176A0011F00C94A00C203310F02A3308F007C0B3
:10177A00AAE05A9F502DE22FE0535E0FDCC0E22F01
:10178A00E33649F40E94DE11E889F989A481AA9313
:10179A000E94E411CFC0E33741F40E94DE110E9497
:1017AA00EC110E948E0E1E2F0AC0E03761F40E94CF
:1017BA00DE110E94EC110E94980E1E2F0860026032
:1017CA000F7730E035C0E43611F0E93611F40460E1
:1017DA0002C0E53731F4ECE8F0E0EE83FF8315E070
:1017EA000DC0E83511F4086004C0E83711F00C9414
:1017FA009F0CE6E9F0E0EE83FF8314E002FF14C0D9
:10180A000E94DE110E94F611AB85AA233AF4EA85FA
:10181A00FB850E94BD14EA87FB874DE2403011F038
:10182A001F5F01C00B7F04C00E94DE110E94F611E7
:10183A0000FD11C0151778F407FF08C002FF04C0A5
:10184A000B7F242F115001C020E301C020E20E9427
:10185A00D5115150EFCF312F01FF17C03030A1F011
:10186A0003FF06C0EE81FF812591EE83FF8305C049
:10187A00AE81BF812D91AE83BF830E94D5115030B6
:10188A0009F051503150EACF4BC020E3EE81FF817D
:10189A000E941815E887F987EE81FF813296EE8358
:1018AA00FF83E885F985AA85BB85AE17BF0750F087
:1018BA002F5FA885B985EA85FB85EA1BFB0BEA87BA
:1018CA00FB87EFCF2A3328F003FF02C0295F01C04C
:1018DA00295D04FD1AC0213320F4A885B985119722
:1018EA0009F409C0531710F000FF01C013C020E229
:1018FA0007FF0BC020E3006102FF07C00B7F4A937A
:10190A000E94E411503009F051500E94D511503014
:10191A0009F051503150A885B985129708F0B5CF12
:10192A0000FF08C0503031F05150E0E2EA930E94C3
:10193A00E411F8CF10E0DDCEAC85BD850E940F150D
:10194A000E944E1564960895FF92F82E26970E94DB
:10195A0049150E94FE11309719F4EFEFFFEF25C0E9
:10196A00DE0116960E94B9148D010E94FE11EE83C3
:10197A00FF83E0E0E887E987DE011A960E94B9143E
:10198A000E940F15FA93EA931A930A93ECE3FBE089
:10199A00FA93EA93FE013A96FA93EA93A0DE9F013C
:1019AA00AE81BF81E0E0EC93F9010E9450152A96BE
:1019BA00FF9008957B816A81F981E88177FB770F2F
:1019CA0067FD7160972F9E5781F078F0983190F4F7
:1019DA00AA27BB27882708948795B795A7959A952C
:1019EA00D1F7EA23FB23682305C0E8947727EE277B
:1019FA00FF2766276F77769508F4606877F9A991CB
:101A0A00B99189919991EA17FB076807790797FBBA
:101A1A0008950E9405120E9426150E94DF0C0E945A
:101A2A00211519F40E94051205C0E6F70E94051255
:101A3A000E9408122496089524971A930A930E94E2
:101A4A000F120E943C152CF0EFEFFFEF6FE77FEFCC
:101A5A0077C00E9414120E942615EDB7FEB731977F
:101A6A00FA93EA931F930F930E94EF120F911F911B
:101A7A000E9419120E940F12E3EFF4E065E37FE37C
:101A8A000E94991440F40E941E120E94B6130E94EA
:101A9A001912015010400E9414120E9408127F93DA
:101AAA006F93FF93EF930E941412A0E0B0E080E8D6
:101ABA009FE30E94B613AF91BF918F919F910E94AD
:101ACA0054140E9419120E941E120E942012A6E2A9
:101ADA00B2E485E69FE30E940614DF01CB01EEE43F
:101AEA00F1E164E570E40E9427120E940F120E943D
:101AFA0006147F936F93FF93EF930E942C12ADE429
:101B0A00B1E184ED9FE30E94AF13AF91BF918F9132
:101B1A009F910E9454147F936F93FF93EF93F80160
:101B2A000E94C9140E947C13A8E1B2E781E39FE3F3
:101B3A000E940614AF91BF918F919F910E94B61394
:101B4A00198108812A96089528971A930A930E9460
:101B5A003112E0E5FCEA6EEA72EC0E94991418F47C
:101B6A000E94361288C0EA85FB856C857D850E94B5
:101B7A00381529F4E0E0F0E060E87FE37CC00E94D9
:101B8A003112E8E1F2E761EB72E40E94991409F07C
:101B9A0010F40C94D50DEFEFFFEF6FE77FE76BC002
:101BAA000E943112EBE3FAEA68EB7FE30E94061423
:101BBA00EA87FB876C877D870E9426152ADF0E94A9
:101BCA0045138F01F8010E9431120E94C9140E9424
:101BDA007C130E942712DF01CB01E0E0F0E060E015
:101BEA007FE30E9427120E9419120E941E120E946D
:101BFA002012ADE6BCE48CE69DE30E940614A6EA38
:101C0A00B3EE86EE90E40E94B6130E940F120E9471
:101C1A0006140E9419120E942C12A8E2BDE886EA54
:101C2A0091E40E94B613EA83FB836C837D830E944E
:101C3A001412AA81BB818C819D810E94B613A3EFE5
:101C4A00B4E085EB9FE30E9406147F936F93FF93A2
:101C5A00EF930E940F120E942C120E94AF13AF91B1
:101C6A00BF918F919F910E9454140E9426151A9336
:101C7A000A930E940213198108812E9608952497C7
:101C8A000E943B120E94381519F40E9436123FC076
:101C9A00A885B9858A859B850E943C157CF40E949B
:101CAA0040120E94381529F4E0E0F0E060E87FE392
:101CBA002EC00E943B120E94451229C00E94401267
:101CCA00DE010E9445130E9413150E9405120E940C
:101CDA007C13DF01CB010E9440120E94421519F0C9
:101CEA000E94361214C00E943B120E9410130E94D6
:101CFA004512E887F9876A877B87E881E17019F4DA
:101D0A000E943B1204C00E943B120E9410132C96A0
:101D1A000895A991B991EE27FF276D91662311F0D5
:101D2A003196FBCF0895AA27BB27E991F99105902F
:101D3A00002011F01196FBCFFD010895E881E071B2
:101D4A0011F0AC9A01C0AC98E881E07211F0AD9A3A
:101D5A0001C0AD98E881E07411F0AE9A01C0AE9866
:101D6A00E881E07811F0AF9A01C0AF988BE08A95CC
:101D7A00F1F7AA9A8BE18A95F1F7AA988BE18A95ED
:101D8A00F1F7A9C0E881EA93D9DFE881E295E8830F
:101D9A00E881EA93D3DF88EC90E00197F1F79BC0E2
:101DAA00E881F0E0EA57F94FE081A981EA0FEA9366
:101DBA00E9DFE981E0938A06E881E0938B062296BF
:101DCA000895E2E0EA93DEDF0E9480110E94E312A6
:101DDA00ECE0EA93D7DFE1E0EA93D4DF0E948011D6
:101DEA000E94E312E0E0E0938B06E0938A060895EE
:101DFA00A881AA3031F0E0918C06A0918A06AE172C
:101E0A0068F0E0E0EA93E0918B06EF5FE0938B06DF
:101E1A00EA93C6DFA881AA3009F45DC0E0918A0678
:101E2A00EF5FE0938A06A89AE881EA93ABDFA89865
:101E3A0052C01A93A981BA81ED91A983BA831E2F40
:101E4A00E03019F01A93D4DFF5CF188196C01A93AF
:101E5A00E981FA813196E983FA833197E4911E2F59
:101E6A00E03019F01A93C4DFF3CF188186C0A49A20
:101E7A00A59AA69AA79AA29AA09AA19AAA98A89865
:101E8A00A998E881E0938C06E058E0938806E881F7
:101E9A00E054E0938906E4E1F0E0FA93EA930E94C1
:101EAA00E3120E9453120E9453120E945312E0E25C
:101EBA00EA9344DF80E991E00197F1F7E8E2EA93D7
:101ECA0061DFE4E0EA935EDFE5E8EA935BDFE6E000
:101EDA00EA9358DF76DF21960895EA81E370EA8370
:101EEA00E981E03019F0EA81E061EA83E881E030D3
:101EFA0019F0EA81E068EA830E945C12E7E00E9436
:101F0A00621236C00E945C12E0E00E946712A88149
:101F1A00B9810E947712AC81BD8117C00E945C1200
:101F2A00E0E0EA930E94CA12E8810E9489120E94A4
:101F3A0062121BC00E945C12E4E00E946712AC812C
:101F4A00BD810E947712A881B981EC930E94A512E3
:101F5A00269608950E945C12E4E00E9462120E9492
:101F6A008912EA930E94CA12E881EA930E94D00F6A
:101F7A00EA930E94CA120E94A51223960895E88144
:101F8A00E295EF70AE2FAA0FAA0FEA0FEE0FA991F2
:101F9A00AF70EA0F0895A991EE27AA5012F0E05FF8
:101FAA00FCCFA65FEA0F0895F801AA81BB81EA0F68
:101FBA00FB1FE4910895FA93EA930C94E901E1E096
:101FCA00F0E0E093B105F093B20508950E94491537
:101FDA00AC81BD81EAE0F0E00E94F3148F01AC818C
:101FEA00BD81EAE0F0E00E94EE149F010895EA0F35
:101FFA00FB1F0F01FA01AD85BE85AE0FBF1FEC9125
:10200A00D001EC930895F0E0F0970895AAE0B0E0CB
:10201A000E94D6146E0F7F1F0895E150F0E00895D4
:10202A00E0E0E0930E06E0930F060895E0910E06B5
:10203A00F0910F06E850FA4F00830895ED91FD9153
:10204A003196FE93EE930895F0E0F068DF0108956B
:10205A00EE0FFF1FEA2BFB2B0895E0E0EA93E2E084
:10206A00EA930E94D50EE6EFF0E0FA93EA930C9415
:10207A002C0FE1E0EA93E2E0EA930C94D50EE6EF46
:10208A00F0E0FA93EA930C942C0FEA93E2E0EA93D5
:10209A000E94D50EF4CFE2E0EA930C94D50EE0E06C
:1020AA00EA93EA930C94D50EE0E0EA93E1E0EA932E
:1020BA000C94D50EEA93E3E0EA930C94D50EFA93C6
:1020CA00EA93EAEFF0E0FA93EA930895E0918F0534
:1020DA00F091900508950E94C9140E94261584E083
:1020EA000E94A90C2896E0CFE0919105F091920503
:1020FA000895FA93EA93E4E0F1E0FA93EA930895F3
:10210A00FF27662777270E94261508958CE00E94EC
:10211A00A90C6096C9CFFA93EA93E3E1F1E0FA9346
:10212A00EA930895E4E6F0E0FA93EA930C94E31252
:10213A00E1E0F0E0E093AD05F093AE0540CF662410
:10214A007724E1E0F0E0E093A705F093A80508956D
:10215A00E4E6F0E0E415F5050895D201EAE0F0E0DE
:10216A000E94EE1408951A930A93E0E0F0E060E208
:10217A0071E40E942615AE81BF81A819B909E1E070
:10218A00F0E00E943115EA1BFB0B0E94C9140E9461
:10219A007C130E9426150E94440E0E9443138F014D
:1021AA000E947C04BFCFE1E0F0E0E017F107089558
:1021BA00A0918F05B09190050895FADFE8EEF3E05B
:1021CA0008950E94F314E0938F05F0939005089503
:1021DA00F40131964F01EA81FB81D4010E94F31484
:1021EA004F010C947C040E94E60E59CFFA93EA93AD
:1021FA000C941E0FEA93E1E0EA930C94D50EFA933D
:10220A00EA930C942C0FE0939305F0939405609352
:10221A009505709396050895EBE0F0E0E093A90523
:10222A00F093AA0508950E94EE14E05DEA930C94D7
:10223A00F003EEE3EA930E94F003E4EFF1E0FA938D
:10224A00EA930E94E31274CFE0E0EA9324CFE8EE27
:10225A00F3E0FA93EA930C94E312A0919105B091FA
:10226A0092050895FADFE8EEF3E008950E94F31468
:10227A00E0939105F09392050895E0939705F09302
:10228A0098056093990570939A0508951A930A938D
:10229A000E947C0447CFF40133964F01D401E9E050
:1022AA00F0E00E94F3144F010C947C040E94E60EA5
:1022BA00E2E0EA93E0E0EA930C94D50EE1E0F0E084
:1022CA00E093A905F093AA0508950E94E60EAA24B0
:1022DA00BB2488249924E1E0EA93E0E0EA930C9491
:1022EA00D50EE093AB05F093AC050895EA93E0E0D0
:1022FA00EA930C94D50EE3E0F0E0FA93EA9308959A
:10230A00E0E0E093A905E093AA050895A091A90544
:10231A00B091AA050895E1E0F0E04F01E6E0E6CFCA
:10232A00E9EBF5E0FA93EA93EAEBF5E0FA93EA933C
:10233A00EBEBF5E0FA93EA930E94870FB0CE8CE0BC
:10234A000E94A90C6096E6E00895ECEBF5E0FA939A
:10235A00EA93EDEBF5E0FA93EA93EEEBF5E0FA9304
:10236A00EA930E949F0F70CF0E94261584E00E9474
:10237A00A90C28960895A091B505B091B6051197B4
:10238A000895E4E0EA9387CEFA93EA93ECEAF2E05E
:10239A00FA93EA9308950E94C9140E942615089593
:1023AA002A93ED85FE85FA93EA93E989FA890995D4
:1023BA000895E889F9893497E88BF98B0895ED85B2
:1023CA00FE85FA93EA93E989FA8909950895A88915
:1023DA00B98914960E940F15EE83FF83FA93EA9344
:1023EA000895A889B98914960E940F15EA87FB8770
:1023FA000895DE011C960E94B9140E940F150895D3
:10240A000E941C150895A0E0B0E080E89FE30E94B6
:10241A00AF130895AE81BF81888599850895EE81AD
:10242A00FF81688579850895EE83FF8368877987B8
:10243A000895F5DFEFCF0E940614EA83FB836C83CD
:10244A007D8308950E942B150E94AF130895EA8197
:10245A00FB816C817D810895AA85BB858C859D85CC
:10246A000895E0E0F0E060E070E00895E885F9851D
:10247A006A857B850895EC81FD816E817F8108954F
:10248A000E9426150E94210DAC81BD818E819F81FB
:10249A000E9406140E9426150C94A90DE0E3EA9303
:1024AA000E94A30E80E991E00197F1F708950E9436
:1024BA009612E0EDEA930C94CA12EA930E94CA12A9
:1024CA00EA810895EA930E94CA120E949612E1EDE7
:1024DA00EA930E94CA12E1E0EA930E94AF12EA93D9
:1024EA000C94C40FEC93E1E0EA930E94AF12EA93D2
:1024FA000E94C40FAA81BB81EC93E0E0EA930E9498
:10250A00AF12EA930C94C40FEA9345DDEA930E9452
:10251A00CA12E981EA933FCD90989198889A89984E
:10252A0015C089988898EE270000819B0895809BA2
:10253A00089504D0899A02D0889AE1E06BE107C035
:10254A00899A889A03D08898F9DF899865E36A9509
:10255A00F1F7089578E08898F1DF809BFECFEEDFEF
:10256A00889481990894889AF1DFEE1F7A9599F7F1
:10257A007991772311F4899801C0899ADFDF8898C5
:10258A00E5DF889ADBDF8998D9CFE99178E0EE0F09
:10259A0010F4899801C0899AD9DF8898CFDF809B87
:1025AA00FECFCCDF889A7A9591F78998C7DF889809
:1025BA00CDDFE1E08199EE27889AC0CFE991F991C0
:1025CA00309639F080EA9FE00197F1F7A8953197A4
:1025DA00C9F70895A991B991E991F9916991799108
:1025EA0077FB660F771F88277E57880B7D938C931E
:1025FA007EE7769567957EF00895A991B991E9915C
:10260A00F9916991799177FB660F771F7A0F769521
:10261A0067950EF0089530976040704009F0705841
:10262A000895552342F4503811F4E0FF04C031965E
:10263A00691F791F6BF050E8572711F45F93CFC0D9
:10264A005F3F31F0660F000C57956795752F089517
:10265A005F9300200AF0CFC0C8C050E8192E152297
:10266A00880F991F9527550F879550E8072E052241
:10267A00660F771F7527550F67950895689401C0EF
:10268A00E8945F93F2DF703818F07F3F08F4A7C030
:10269A0056E1571BAAF4519558300EF4593030F0D0
:1026AA00EFEFFFEF6FEF7FE777F91AC07727552330
:1026BA00B9F0EE0FFF1F661F771F5A95D1F710C0AA
:1026CA007727583028F0EF2FF62F672F5850F9CF79
:1026DA00552331F076956795F795E7955A95D1F791
:1026EA0000200AF449D15F910895689401C0E894E2
:1026FA00309760407040B1F0002426F0772312F43E
:10270A0000943AD1172E7EE1112032F07A95EE0F1D
:10271A00FF1F661F111CF9CFEF2FF62F612D5F9354
:10272A008ADF5F9108954F93AF01FD01DA01AB0192
:10273A00BC01CA01402D012C142E4F910895EA0FB5
:10274A00FB1F681F0895E095F0956095EF5FFF4FB6
:10275A006F4F08955F9381DF903871F150E8152625
:10276A0004C05F937ADF903839F1703821F1572F1E
:10277A00591B2BF112F4D7DFFACF583118F0AA27D8
:10278A00BB278827583028F0AB2FB82F88275850F6
:10279A00F9CF552329F08695B795A7955A95D9F774
:1027AA00502D512572F0CBDF38F46795F795E795F0
:1027BA00739513F420C0B7DF3EDF5F910895D8F711
:1027CA00FBCFEA1BFB0B680B51F010F40094BBDF44
:1027DA00662392F3EE0FFF1F661F7A95CBF7EE275B
:1027EA00FF27662777275F910895EFEFFFEF6FE7DF
:1027FA007FEF5F910895EFEFFFEF6FE77FE75F915C
:10280A0008955F932ADF703851F3903841F3012419
:10281A000894791F23F41CF300203AF3ECCF0F92AB
:10282A001F932F933F934F93112722279927689F2E
:10283A00A0018F9F302D410D591F6B9F300D411DF7
:10284A00591F8E9F27D0BF9F25D06A9F23D0BE9F36
:10285A001DD0AF9F1BD0AE9F110D291F391F491FD5
:10286A00591FE32FF42F652F522F4F913F912F912C
:10287A001F910F9066232AF0550FEE1FFF1F661F48
:10288A0002C073954BF2CDDE5F910895100D211DA4
:10289A00391F02C0200D311D491F591F08955F932A
:1028AA00DCDE703821F411200AF49FCFA4CF9038CF
:1028BA0009F495CF01240894970B1BF4D4F3002054
:1028CA00F3CF792F1F932F933F934F9311241127FF
:1028DA00222733274427552790E2AE17BF078607DA
:1028EA00410730F0AE1BBF0B860B410B089401C0A9
:1028FA008894551F221F331F111CAA1FBB1F881F34
:10290A00441F9A9551F7F901612D4F913F912F91EB
:10291A001F91662332F0550FEE1FFF1F661F7A952F
:10292A0043F27FDE5F91089599239AF0772342F06C
:10293A00971748F029F4AE17BF07860720F031F041
:10294A00989488940895989408940895189488946B
:10295A0008957723C2F7971798F3A9F7EA17FB07A1
:10296A00680788F399F3ECCF0024AF0DB01D0895E2
:10297A00F195E195F0400895F09560957095E1958F
:10298A00FF4F6F4F7F4F08956F2F660F660B762F9D
:10299A000895FA9FF02DEB9FF00DEA9FE02DF10DBF
:1029AA0008952AD0F6DF0EF4E3DF089500241124F7
:1029BA0090E1AA0FBB1F001C111C0E1A1F0A18F463
:1029CA000E0E1F1E01C0A1609A9599F7FD01D00154
:1029DA00089512D0EBDF0EF4CBDF0895E894B7FF29
:1029EA0004C0A095B09511966894F7FDC1DFDEDFAB
:1029FA00FD010EF4BDDF0895E894F7FF02C0B8DFC9
:102A0A006894B7FF06C0A095B095119600F8039494
:102A1A0000FA0895ED91FC9111970895ED93FD93B5
:102A2A006D937C9308950590F491E02D0895E881C3
:102A3A00F9816A817B810895E883F9836A837B83BC
:102A4A0008957A936A93FA93EA930895182E862F33
:102A5A00612D192E972F712D1B2EBF2FF12D1A2E96
:102A6A00AE2FE12D089530976040704008950024FC
:102A7A000A160B06080609060895EA17FB076807EF
:102A8A00790708955A934A933A932A931A930A9381
:102A9A0008955D814C813B812A81198108810895BD
:00000001FF
