:020000000C945E
:100002006C000C9400000C9400000C9400000C9402
:1000120000000C9400000C9400000C9400000C945E
:1000220000000C9400000C9400000C9400000C944E
:1000320000000C9400000C9400000C9400000C943E
:1000420000000C9400000C9473010C9400000C94BA
:10005200C1010C9400000C9400000C9400000C945C
:1000620000000C9400000C9400000C9400000C940E
:1000720000000C9409020C9400000C9400000C94F3
:1000820000000C9400000C9400001027E8036400A8
:100092000A000100001000011000010000003C30C5
:1000A20030313E003C3030323E003C3030333E0096
:1000B2003C3030343E003C3030353E0001002D4EA5
:1000C200414E00494E460000010002009E00010020
:1000D200AA05BE000000F894EE27ECBBF1E0F5BFE4
:1000E200E5BFE0936C00F8E1F1BDE1BD8DE0A2E077
:1000F200BB27ED938A95E9F780E090E1A0E0B1E0BB
:10010200ED930197E9F7EAECF0E08591959100977C
:1001120061F0A591B59105901590BF01F001059090
:100122000D920197E1F7FB01F0CF8BBFEFEFEDBF2F
:10013200E0E1EEBFC0E0D5E00C946E021A930A93A0
:1001420000E010E000E010E00E94EE02E03039F042
:100152000E94EE02EA9336D10F5F1F4FF5CF19814D
:10016200088124960895E0EAF0E005C0E6EAF0E0AE
:1001720002C0ECEAF0E03F017A926A92DFDF089572
:10018200AB980895AB9A08951A93DCD01E2FE09194
:100192006200E068E09362001C3331F4E1E0F0E0D9
:1001A2006F010E94F5020DC01E3359F40E94FB023A
:1001B200CC24DD240E94F502E0E0F5E0FA93EA9314
:1001C20017D0E1E0F0E0EC15FD0589F40E94FB0296
:1001D200A4E1B5E0ED91FD913196FE93EE93A091ED
:1001E2001405B0911505199711F40E94F502C6C0C5
:1001F2002797E0E3E883E983EA83EB83EC83ED83EB
:10020200EE830E944B0300E010E020E030E041E08A
:1002120050E04430E0E05E074CF4FA013197DE0131
:100222001A960E9403034F5F5F4FF3CF45E050E001
:100232004930E0E05E074CF4FA013597DE0116968C
:100242000E9403034F5F5F4FF3CFEC850E940F03C1
:10025200BF01EB850E940F030E941203EA850E94F0
:100262000F03A4E6B0E00E943803E60FF71F8F01E8
:10027200E9850E940F03BF01E8850E940F030E94D7
:100282001203EF810E940F03A4E6B0E00E9438033C
:100292006E0F7F1FEE810E940F03A8EEB3E00E9453
:1002A2003803E60FF71F9F01E1E0F0E0E017F107E6
:1002B20011F466DF13C0E2E0F0E0E017F10711F499
:1002C20061DF0CC0E4E0F0E0E017F10739F4022E40
:1002D200032A19F09398AB9A01C0939A0E94520391
:1002E2002F960895AA93EA93FA93EFB7EA931A9393
:1002F2000A931BB10CB1E12FEC71D9F4E0915605D0
:10030200EF5FE09356050E9419030083A091560502
:10031200A03419F4E0E0E0935605A0915805AF5FD0
:10032200A0935805A03429F4E0E0E09358056894BE
:1003320020F8E1E0F0E0E0935D05F0935E050991BD
:1003420019913AC01A93E0915805E030E1F3E09137
:100352005705EF5FE09357050E9419031081A091A2
:100362005705A03419F4E0E0E0935705F894E091C2
:100372005805E150E09358057894E12F19910895BA
:10038200AA93EA93FA93EFB7EA93E091A305E030D8
:1003920099F0E150E093A305E091A205EF5FE093AD
:1003A200A2050E941E03E081ECB9A091A205A0342F
:1003B20019F4E0E0E093A205E991EFBFF991E99128
:1003C200A9911895A091A305A034E1F3F894E091C6
:1003D200A305E03011F45D9916C0E091A105EF5F2D
:1003E200E093A1050E941E03A881A083A091A1050C
:1003F200A03419F4E0E0E093A105E091A305EF5FDA
:10040200E093A30502C0E881ECB97894219608959F
:10041200AA93BA93EA93FA93EFB7EA93E0E00C9BBC
:10042200E1E00E942303E091A405F091A5050E945A
:100432002703E093A405F093A505A091A405B0912C
:10044200A505A030E0ECBE0731F4E1E0F0E0E09376
:100452005905F0935A05E0E00D9BE1E00E94230369
:10046200E091A605F091A7050E942703E093A60557
:10047200F093A705A091A605B091A705A030E0ECE6
:10048200BE0731F4E1E0F0E0E0935B05F0935C0538
:10049200E0E00E9BE1E00E942303E091A805F091C9
:1004A200A9050E942703E093A805F093A905A0914E
:1004B200A805B091A905A030E0ECBE0739F4939AE3
:1004C200E1E0F0E0E0935F05F0936005E991EFBFB2
:1004D200F991E991B991A9911895E0E0EBBBEABBDA
:1004E200E8BBE7E0E7BBE8E0E5BBE4BBE8ECE2BB86
:1004F200E8E0E1BBEFEFE3B9E0E0E2B9EFEFE09370
:100502006200E0936100E0E0E0936500E093640044
:10051200E0938B00E9E0E0938A00E0E0E093890059
:10052200E0938800E0938100E0938000EFEFE09396
:100532008700E0938600E0E0E0938500E09384008A
:10054200E0938300E0938200E7BFE4E0E0937D0064
:10055200E0E0EBB9E8EDEAB9E6E0E0939500E0E02F
:10056200E0939000E3E3E9B9E0916200EF77E09372
:1005720062007894A0915905B0915A05119739F407
:10058200F2DDE0E0E0935905E0935A050CC0A0913A
:100592005B05B0915C05119731F4E8DDE0E0E09392
:1005A2005B05E0935C05A0915D05B0915E05119736
:1005B20031F4EADDE0E0E0935D05E0935E05A091B1
:1005C2005F05B0916005119731F4D3DDE0E0E0936F
:1005D2005F05E0936005CECFFFCFF801AA81BB8112
:1005E200EA0FFB1FE4910895E0E0E0931405E09325
:1005F20015050895E0911405F0911505E050FB4FA3
:1006020010830895EA0FFB1F0F01FA01AD85BE8525
:10061200AE0FBF1FEC91D001EC930895F0E0F0977C
:100622000895AAE0B0E00E9438036E0F7F1F08957C
:10063200E150F0E0EA5EFA4F0895E150F0E0EF5940
:10064200FA4F0895F0E0F068DF010895EE0FFF1F02
:10065200EA2BFB2B0895F195E195F0400895FA9F5E
:10066200F02DEB9FF00DEA9FE02DF10D089504D0DF
:10067200F6DF0EF4F0DF0895E894F7FF02C0EBDF37
:100682006894B7FF06C0A095B095119600F8039440
:1006920000FA08955A934A933A932A931A930A9323
:1006A20008955D814C813B812A81198108810895D9
:00000001FF
