:080000000C9495010C94000022
:100008000C9400000C9400000C9400000C944D0219
:100018000C944E020C944F020C9450020C94000065
:100028000C9400000C9400000C9400000C94000048
:100038000C9400000C9400000C9400000C94000038
:100048000C9451020C9400000C9476020C9400005D
:100058000C9400000C9400000C9400000C94000018
:100068000C9400000C9400000C9400000C94C30243
:100078000C9400000C9400000C9400000C940000F8
:100088000C9400001027E80364000A000100001027
:1000980000011000010000000000E301E401ED018F
:1000A800FF01060209020F0210021A021D022402B1
:1000B80035020100456E746572696E6720536F667C
:1000C800742D5374617274003C3030313E00456EBB
:1000D800746572696E6720536F66742D53746F7000
:1000E800003C3030323E00526573657474696E6747
:1000F800204661756C7473003C3030333E003C30F0
:1001080030343E003C3030353E0054686520537929
:100118007374656D20686173207475726E656420F0
:100128006F6E005468652053797374656D2068613B
:1001380073207475726E6564206F6666004661751B
:100148006C74732068617665206265656E207265DF
:1001580073657400636F6D6D616E64207374617292
:100168007400636F6D6D616E6420656E64002000BD
:100178005E002530336400566F6C746167652073C8
:10018800657420746F3A005365742076616C7565E8
:100198002073686F756C64006265206265747765AA
:1001A800656E203131302D0031333520766F6C7417
:1001B800730043757272656E742073657420746F72
:1001C8003A006265206265747765656E2031302D6E
:1001D80000323020616D70730057656C636F6D6518
:1001E80020746F20484D4900536574205061726136
:1001F8006D65746572730053656E736F7220566116
:100208006C75657300504152414D45544552530039
:10021800566F6C746167652028564F4C54532900FB
:1002280043757272656E742028414D5053290053EE
:10023800657420766F6C746167653A005365742045
:1002480063757272656E743A0053454E534F52533C
:1002580000416E616C6F67004469676974616C0086
:10026800546865726D6F636F75706C65004E6F20B2
:1002780066756E6374696F6E7320202020202020BD
:1002880020202061646465642079657400436830C7
:100298003A004368313A004368323A004368333AD7
:1002A800004368343A004368353A004368363A00F8
:1002B8004368373A004572726F722E005265737444
:1002C800617274696E6720696E2035207365636F8B
:1002D8006E64732E000001002D4E414E00494E46BB
:1002E800000080C0010002009E0001000C00A00078
:1002F8000100E405BA00100000057F011000100598
:10030800BA010F002005E10107002F05BD02190001
:100318003605C4020100FC05DE0202000006EA02FE
:100328000000F894EE27ECBBF1E0F5BFE5BFE093E1
:100338006C00F8E1F1BDE1BD8DE0A2E0BB27ED93D3
:100348008A95E9F780E090E1A0E0B1E0ED930197AC
:10035800E9F7ECEEF2E085919591009761F0A591AF
:10036800B59105901590BF01F00105900D92019788
:10037800E1F7FB01F0CF8BBFEFEFEDBFE0E1EEBFA0
:10038800C0E0D5E00C941203BA93AA931A930A9387
:1003980000E010E000E010E0F801AA81BB81EA0F5C
:1003A800FB1FE491E03041F0F801EA0FFB1FA49134
:1003B800BDD00F5F1F4FF0CF1981088168C0089525
:1003C8000E94D303ACEBB0E00E940104E0EDF0E042
:1003D80008C00E94D303A6EDB0E00E940104E9EE34
:1003E800F0E03F01D301D0DFA4EFB1E00E94D004D8
:1003F8000E94D3030895AFEEB0E00E940104E0E04C
:10040800F1E005C0E6E0F1E002C0ECE0F1E03F0118
:10041800D301BADF089508951A930A9302E111E00F
:10042800D8010E940104099119910895EBE2F1E0C5
:1004380002C0E5E4F1E02F01D2010E940104089511
:100448000E94DA0405E010E00E94610449F00E946D
:10045800680409F459012F5F3F4F0F5F1F4FF4CF16
:1004680010C00E94DA0405E010E00E94610449F01F
:100478000E94680409F459012F5F3F4F0F5F1F4F17
:10048800F4CF2501D2010E9401040E94DF042496C2
:1004980008951895189518951895AA93EA93FA93BC
:1004A800EFB7EA931A930A931BB10CB1E12FEC71E1
:1004B800B1F4EC2DC394F0E0E95AFA4F0083E0E47C
:1004C800EC1509F4CC24A0919805AF5FA09398058A
:1004D800A03429F4E0E0E0939805689420F80991A5
:1004E80019911EC0AA93EA93FA93EFB7EA93E091A1
:1004F800DF05E030A9F0E150E093DF05E091DE058B
:10050800EF5FE093DE05E150F0E0E356FA4FE0815B
:10051800ECB9A091DE05A03419F4E0E0E093DE0523
:10052800E991EFBFF991E991A9911895AA93A09142
:10053800DF05A034E1F3F894E091DF05E03011F431
:100548005D9918C0E091DD05EF5FE093DD05E150AE
:10055800F0E0E356FA4FA881A083A091DD05A0340E
:1005680019F4E0E0E093DD05E091DF05EF5FE0934B
:10057800DF0502C0E881ECB978940C944004AA9392
:10058800BA93EA93FA93EFB7EA93E0E00C9BE1E0C1
:10059800F0E0F068DF01E091E005F091E105EE0F91
:1005A800FF1FEA2BFB2BE093E005F093E105A091F8
:1005B800E005B091E105A030E0ECBE0739F4AB9856
:1005C800E1E0F0E0E0939905F0939A05E0E00D9BF7
:1005D800E1E0F0E0F068DF01E091E205F091E30589
:1005E800EE0FFF1FEA2BFB2BE093E205F093E305E8
:1005F800A091E205B091E305A030E0ECBE0739F424
:10060800AB9AE1E0F0E0E0939B05F0939C05E9915B
:10061800EFBFF991E991B991A9911895E0E0EBBB89
:10062800EABBE8BBE7E0E7BBE8E0E5BBE4BBE0EC3E
:10063800E2BBE0E0E1BBEFEFE3B9E0E0E2B9E09371
:100648006200E0936100E0936500E0936400E0934A
:100658008B00E9E0E0938A00E0E0E0938900E09312
:100668008800E0938100E0938000EFEFE09387003B
:10067800E0938600E0E0E0938500E0938400E09357
:100688008300E0938200E0936A00EAEAEABFE0EFC1
:10069800E9BFE8BFE0E0E7BFE4E0E0937D00E0E029
:1006A800EBB9E8EDEAB9E6E0E0939500E0E0E09325
:1006B8009000E3E3E9B9E0E0E0939B00E8E1E09330
:1006C8009A00E6E0E0939D00E0E0E0939800E7E61A
:1006D800E0939900E0E8E8B9E0E0E0BDE7B9E4E8D4
:1006E800E6B9E0E5EDB9E0E0EEB9E09374000E9408
:1006F8007F04E0E0EA93EA93A0E00E944204A0E1CC
:100708000E9413047894A0919905B0919A051197C5
:1007180039F456DEE0E0E0939905E0939A050CC0C1
:10072800A0919B05B0919C05119731F452DEE0E051
:10073800E0939B05E0939C05E6CFFFCFAA93E5B332
:10074800EF70AE2FE881E07FEA2BE5BB8DE08A955C
:10075800F1F7AA9A8DE08A95F1F7AA988DE08A9523
:10076800F1F78AC0AA93A881E9DFE881E295E883D6
:10077800A881E4DF85E88A95F1F77EC0AA93E8812D
:10078800F0E0E050FA4FE081A981AE0FEBDFE9819C
:10079800E0930406E881E093050622960895A2E016
:1007A8000E947104ACE0DEDFA1E00E947104E0E089
:1007B800E0930506E09304060895AA93A881AA3059
:1007C80031F0E0910606A0910406AE1760F0E0E073
:1007D800EA93A0910506AF5FA0930506CFDFA88135
:1007E800AA3009F449C0E0910406EF5FE0930406DB
:1007F800A89AA881B7DFA8983FC0BA93AA931A937A
:10080800E981FA813196E983FA833197E4911E2FC1
:10081800E03019F0A12FD1DFF3CF18814CC0AA9393
:10082800E4B3E06FE4BBA29AA09AA19AAA98A89808
:10083800A998E881E0930606E058E0930206E8816B
:10084800E054E0930306A4E1B0E00E94D0040E94C3
:1008580077040E9477040E947704A0E26FDF88EC97
:1008680090E00197F1F7A8E27DDFA4E07BDFA5E83F
:1008780079DFA6E077DF93DF21960895AA93EA81CE
:10088800E370EA83E981E03019F0EA81E061EA8304
:10089800E881E03019F0EA81E068EA830E94840484
:1008A800A0ED0E94B804A7E00E94B804AA810E94A3
:1008B800B8040E94930423960895F801E80DF91DE1
:1008C8003197E491E0300895F801E80DF91D9F0192
:1008D800E5E0F0E0E017F10708950E94B603A3E011
:1008E800B0E00C94D004A0E30E94A20388EC90E04E
:1008F8000197F1F7089590989198889A899815C06A
:1009080089988898EE270000819B0895809B089518
:1009180004D0899A02D0889AE1E06DE007C0899AEC
:10092800889A03D08898F9DF89986BE16A95F1F77E
:10093800089578E08898F1DF809BFECFEEDF8894F9
:1009480081990894889AF1DFEE1F7A9599F77A2FA2
:10095800772311F4899801C0899ADFDF8898E5DF49
:10096800889ADBDF8998D9CF78E0AA0F10F48998A4
:1009780001C0899ADADF8898D0DF809BFECFCDDF6F
:10098800889A7A9591F78998C8DF8898CEDFE1E050
:100998008199EE27889AC1CF109639F080ED97E0BB
:1009A8000197F1F7A8951197C9F708953A932A93F3
:1009B8001A930A9308953B812A8119810881089521
:00000001FF
