:100000000C94AA010C9400000C9400000C940000C5
:100010000C9400000C94DD010C94DE010C94DF01C3
:100020000C94E0010C9400000C9400000C9400006F
:100030000C9400000C9400000C94E2010C9400005D
:100040000C94E1010C9400000C9400000C9400004E
:100050000C9400000C9400000C9400000C94000020
:100060000C9400000C9400000C9400000C94000010
:100070000C9400000C9400000C9400000C94000000
:100080000C9400000C9400000C9400001027E8036E
:1000900064000A00010000100001100001001300BC
:1000A0001300010003000000000000000101010135
:1000B00020005E003E00253032643A253032643A3A
:1000C0002530326400253032642F253032642F25EC
:1000D00034640025303464002530336400566F6C7E
:1000E000746167652073657420746F3A005365749A
:1000F0002076616C75652073686F756C640062654D
:10010000206265747765656E203131302D003133A2
:100110003520766F6C74730043757272656E74204F
:1001200073657420746F3A00626520626574776548
:10013000656E2031302D00323020616D70730057B4
:10014000656C636F6D6520746F20484D4900506188
:100150007373776F7264205273740054696D6572A3
:100160000053656E736F722056616C756573005332
:10017000657420506172616D6574657273005449D5
:100180004D45005365742044617465202F205469E7
:100190006D6500416C61726D204D6F646500436F49
:1001A000756E74646F776E2054696D65720044617A
:1001B00074653A200054696D653A20004E657720D9
:1001C000543A004E657720443A00636F756E74644C
:1001D0006F776E74696D65720053454E534F52537D
:1001E00000416E616C6F67004469676974616C00FF
:1001F000546865726D6F636F75706C65004E6F202B
:1002000066756E6374696F6E732020202020202035
:10021000202020616464656420796574004368303F
:100220003A004368313A004368323A004368333A4F
:10023000004368343A004368353A004368363A0070
:100240004368373A0054656D703A25303464005085
:100250004152414D455445525300566F6C7461678D
:10026000652028564F4C5453290043757272656EB1
:10027000742028414D5053290053657420766F6CCB
:10028000746167653A005365742063757272656EB8
:10029000743A004572726F722E0052657374617207
:1002A00074696E6720696E2035207365636F6E64B4
:1002B000732E000001002D4E414E00494E460000B5
:1002C00080C0010067059E0001006805A0000100D4
:1002D0008905A2000100A905A40002000005B000E4
:1002E00002000205B00002000405B000020006058D
:1002F000B00002000805B00002000A05B0000200CC
:100300000C05B20002000E05B20002001005B2009A
:1003100002001205B20002001405B2000200160528
:10032000B20010001805DD001000280518010F00AC
:1003300038053F0107004705930219004E059A0250
:100340000A000400A6000100AB05B4020200AF05DC
:10035000C0020000F894EE27ECBBF1E0F5BFE5BF6A
:10036000E0936C00F8E1F1BDE1BD8DE0A2E0BB27B8
:10037000ED938A95E9F780E090E1A0E0B1E0ED939C
:100380000197E9F7E2ECF2E085919591009761F031
:10039000A591B59105901590BF01F00105900D92C2
:1003A0000197E1F7FB01F0CF8BBFEFEFEDBFE0E18D
:1003B000EEBFC0E0D5E00C946D0718951895189520
:1003C000189518951895E881E7B985E38A95F1F7AE
:1003D000369A349BFECF349AE4B1F5B12196089554
:1003E0000E94FC111B9800E010E033E03F3F69F0F1
:1003F000E0E0EFB9779BFECFB02FA0E0EFB1F0E0E7
:10040000EA0FFB1F8F013150F1CF1B9AF8010E94B8
:100410000312B4C20E94FC1120E030E0E1DF8F0142
:10042000D801EAE00E941C11FF738F0115FF07C07D
:10043000F8010E941011FF738F0121E030E00E5F80
:100440001F4F1595079515950795022E032A21F044
:10045000F8010E9410118F01F8010E9403128EC250
:100460000E948E0C0E949A0C0E94A00CE2E00E9456
:10047000A60CE3E00E94A60CE0918B050E94AC0C58
:10048000E2EBF0E017C00E94B10C0E94A00C0E94A9
:10049000B60C0E94A00C0E948E0C0E94BC0C0E9404
:1004A000A00CE0E0EA93E0918D05EA930E94D10B65
:1004B000E4EBF0E0FA93EA930E941F0C0895E6E063
:1004C0000E94AC0CE9E6F5E0FA93EA93E6EBF0E083
:1004D000FA93EA93E52D0E94C20CE72D0E94C20C0C
:1004E000E92D0E94C20C8CE00E9469096096E9E641
:1004F000F5E00E94C80CE6E00E94CC0CE9E7F5E0CC
:10050000FA93EA93E5ECF0E0FA93EA93EB2D0E947C
:10051000C20CED2D0E94C20CE0916705F0E0E053A3
:10052000F84F0E94D10C8CE00E9469096096E9E7BF
:10053000F5E00E94C80C0E94D60CE0E0F5E00E94B5
:10054000C80C0E94DC0CE2E0F5E00E94C80C0E949E
:10055000E20CE4E0F5E00E94C80C0E94E80CE6E042
:10056000F5E00E94C80C0E94EE0CE8E0F5E00E9465
:10057000C80C0E94F40CEAE0F5E00E94C80CE0917F
:10058000A905F091AA05E330A0E0FA0729F40E943A
:10059000D60CECE0F5E02AC0E430A0E0FA0729F43C
:1005A0000E94DC0CEEE0F5E021C0E530A0E0FA07A7
:1005B00029F40E94E20CE0E1F5E018C0309729F43C
:1005C0000E94E80CE2E1F5E011C0E130A0E0FA079A
:1005D00029F40E94EE0CE4E1F5E008C0E230A0E06E
:1005E000FA0741F40E94F40CE6E1F5E0FA93EA938D
:1005F0000E94120C0895E3EAF5E00E94FA0C0E94B2
:10060000010D0E940A0DE3EAF5E00AC0E6EAF5E012
:100610000E94FA0C0E94110D0E940A0DE6EAF5E014
:10062000FA93EA930E94120C089549DF0A9903C0D5
:100630000A9BFECF44DF0B9903C00B9BFECF3FDF2D
:10064000089913C0089BFECFA9EAB5E00E941A0DD5
:10065000A091A905B091AA05E6E0F0E00E94791109
:10066000E093A905F093AA052ADF09991CC0099B0C
:10067000FECF0E94200DA633E1E0BE0731F00E94BC
:10068000200DA733E1E0BE0771F4BA92DA92E0914F
:100690006705EA930E94900B5A927A929A920E946E
:1006A000710B0E94250D0895E0918D05F0918E0546
:1006B000E0938F05F0939005E6DE0E942C0D0A99D9
:1006C0001FC00A9BFECFAFE8B5E0ED91FD913197D9
:1006D000FE93EE93A0919005AA234AF4E0918F0532
:1006E000F0919005A881B981EA0FFB1F04C0E09149
:1006F0008F05F0919005DF01E881F9810E94320DAC
:100700000B990EC00B9BFECFADE8B5E00E941A0D11
:10071000E881F981A0918D05B0918E050E94320D7E
:10072000089918C0089BFECF0E94200D1A9724F448
:100730000E943A0D319602C00E943A0DAAE0B0E044
:100740000E943711A0918D05B0918E05EA0FFB1F15
:100750000E943F0D09990FC0099BFECF0E94440DD6
:100760001CF00E94490D03C00E94490D3197E0938F
:100770008905F0938A05229608950E944F0D0A99E3
:100780001DC00A9BFECFE1E0F0E0E017F10721F485
:10079000F8010E946E0D04C00E94010D0E94770DA9
:1007A0000E942A110E940B110E947F0D0E946E0D63
:1007B0000E94880D0E947F0D1EDF52DE0B9908C03B
:1007C0000B9BFECFABE8B5E00E941A0D0E948F0D87
:1007D00008993FC0089BFECF0E94010DEE36A0E0B5
:1007E000FA07A0E06A07A0E07A0754F00E946E0DB5
:1007F000A838E0E0BE07E0E08E07E0E09E070CF0DE
:100800000EC00E949D0DE8E1F5E00E94C80CF3DEE9
:100810000E94A00DE1E2F0E00E943F0D16C00E9490
:100820009D0D0E94A70DEEEFF0E00E94AE0D0E941C
:10083000AC0CEEE0F1E00E94AE0D0E94B40DEAE4D3
:10084000F1E00E943F0D0E94A00DE0EDF7E00E9454
:10085000BD0D099911C0099BFECF0E94A00D0E94F9
:10086000440D1CF00E94490D03C00E94490D3197B0
:10087000E0938905F0938A057FC00E944F0D0A9985
:100880001DC00A9BFECFE1E0F0E0E017F10721F484
:10089000F8010E94C10D04C00E94110D0E94770D45
:1008A0000E942A110E940B110E94CA0D0E94C10DC4
:1008B0000E94880D0E94CA0DA9DED2DD0B9908C0E6
:1008C0000B9BFECFABE8B5E00E941A0D0E948F0D86
:1008D00008993FC0089BFECF0E94110DEA30A0E0AE
:1008E000FA07A0E06A07A0E07A0754F00E94C10D61
:1008F000A531E0E0BE07E0E08E07E0E09E070CF0E7
:100900000EC00E949D0DE8E2F5E00E94C80C7EDE5C
:100910000E94A00DE1E2F0E00E943F0D16C00E948F
:100920009D0D0E94A70DE8E2F1E00E94AE0D0E942D
:10093000AC0CE7E3F1E00E94AE0D0E94B40DEBE4D5
:10094000F1E00E943F0D0E94A00DE0EDF7E00E9453
:10095000BD0D099911C0099BFECF0E94A00D0E94F8
:10096000440D1CF00E94490D03C00E94490D3197AF
:10097000E0938905F0938A051981088124960895EA
:10098000E1E0F0E00E943F0DE0E0E0938B05E093B2
:100990008C050E94D30D0E949D0DE8E3F5E00E94B6
:1009A000C80C0E94D90DE2E0F0E0F5C00E94E20B15
:1009B000E2E0F0E00E943F0D0E94D30DE0E0E09302
:1009C0008B05E0938C05E1E00E94CC0CEEE4F1E0B5
:1009D0000E94DC0D0E94E00DEBE5F1E00E94DC0DD1
:1009E0000E949A0CE1E6F1E00E94DC0DE1E00E9439
:1009F000E50DEFE6F1E00E94DC0D0E94200D12975C
:100A000029F4E4E0F0E00E94EA0DF7CF08950E9497
:100A1000EE0DE6E00E94E50DEEE7F1E00E94DC0D50
:100A2000E1E00E94CC0CE3E8F1E00E94DC0D0E94C2
:100A3000E00DE3E9F1E00E94DC0D0E949A0CEEE982
:100A4000F1E00E94DC0D0E94200D5F9729F4E3E0A5
:100A5000F0E00E94EA0DF7CF08950E94E20BE5E076
:100A6000F0E0FA93EA93E7E0F0E0FA93EA93E9E042
:100A7000F0E0FA93EA930E94650BEBE0F0E0FA9362
:100A8000EA93EDE0F0E0FA93EA93E7E6F5E00E94FE
:100A9000F10DEEEAF1E00E94AE0D0E94AC0CE5EB28
:100AA000F1E00E94DC0D0E94200DA633E1E0BE07BC
:100AB00011F4BBDDF8CF08950E94E20BE4E0F0E012
:100AC000FA93EA93E6E0F0E0FA93EA93E8E0F0E0E4
:100AD000FA93EA930E94650BEAE0F0E0FA93EA9356
:100AE000ECE0F0E0FA93EA93E8E6F5E00E94F10D1D
:100AF000ECEBF1E00E94AE0D0E94AC0CE3ECF1E0F7
:100B00000E94DC0D0E94200DA733E1E0BE0711F426
:100B10008CDDF8CF08950E949D0DEAECF1E00E9473
:100B2000DC0D0E94D90D099905C0099903C00E94E6
:100B3000250DFBCF08950E94EE0DE4E00E94E50D27
:100B4000E9EDF1E00E94DC0DE1E00E94CC0CE1EE69
:100B5000F1E00E94DC0D0E94E00DE8EEF1E00E9461
:100B6000DC0D0E949A0CE0EFF1E00E94DC0D0E9487
:100B7000200D909729F4E3E0F0E00E94EA0DF7CF12
:100B800008950E94B10CEDEFF1E00E94DC0D0E948F
:100B9000D90DE0E2F0E0E0938905F0938A0508952D
:100BA00023971A930A9300E010E00E949D0DEDE157
:100BB000F2E00E94DC0D0E94B60CE2E2F2E00E943C
:100BC000AE0D0E94AC0CE7E2F2E00E94DC0D0E9448
:100BD000BC0CECE2F2E00E94DC0DE9E00E94CC0CDF
:100BE000E1E3F2E00E94DC0DE9E00E94F60DE6E3AD
:100BF000F2E00E94DC0DE9E00E94AC0CEBE3F2E0D5
:100C00000E94DC0DE9E00E94E50DE0E4F2E00E94C4
:100C1000DC0D099B65C0E0E00E94FB0DF8010E941D
:100C2000D10C0E94040E0E94CC0C0E940A0EE1E03E
:100C30000E94FB0DF8010E94D10C0E94040E0E943C
:100C4000F60D0E940A0EE2E00E94FB0DF8010E94E0
:100C5000D10C0E94040E0E94AC0C0E940A0EE3E02C
:100C60000E94FB0DF8010E94D10C0E94040E0E940C
:100C7000E50D0E940A0EE4E00E94FB0DF8010E94BF
:100C8000D10C0E940D0E0E94CC0C0E940A0EE5E0D1
:100C90000E94FB0DF8010E94D10C0E940D0E0E94D3
:100CA000F60D0E940A0EE6E00E94FB0DF8010E947C
:100CB000D10C0E940D0E0E94AC0C0E940A0EE7E0BF
:100CC0000E94FB0DF8010E94D10C84E00E9469098A
:100CD00028960E94E80C0E940A0E0E94D90D99CF16
:100CE000E0E2F0E00E943F0DBBC160971A930A93C7
:100CF00091DB8F010E94200DA234E1E0BE07E1F4F8
:100D00000E949D0DFE013296FA93EA93E5E4F2E02B
:100D1000FA93EA93F8010E94D10C84E00E946909D9
:100D200028960E940A0E099906C0099BFECFE0E2B0
:100D3000F0E00E943F0DDECF198108816296089590
:100D40000E94EE0DE3E00E94E50DEFE4F2E00E9468
:100D5000DC0DE1E00E94CC0CEAE5F2E00E94DC0D43
:100D60000E94E00DEAE6F2E00E94DC0D0E94200DF8
:100D7000919769F4E2E0F0E00E94EA0D099906C05B
:100D8000099BFECFE2E0F0E00E943F0DEFCF089517
:100D90000E94200DAA34E1E0BE07C9F40E949D0D17
:100DA000E9E7F2E00E94DC0D26DCA0919D05B09100
:100DB0009E051B9731F0E3E0F0E0FA93EA93DDDC67
:100DC000F4CFE0E0E0939D05E0939E05E1CF089528
:100DD0000E94200DAB34E1E0BE07C9F40E949D0DD6
:100DE000E6E8F2E00E94DC0D11DCA0919D05B091D7
:100DF0009E051B9731F0E3E0F0E0FA93EA933DDDC6
:100E0000F4CFE0E0E0939D05E0939E05E1CF0895E7
:100E10000E943A0DE130A0E0FA0711F4B1DD5CC0A8
:100E2000E230A0E0FA0711F4C1DD56C0EF31A0E0D6
:100E3000FA0711F4ECDD50C0E633A1E0FA0711F433
:100E40000CDE4AC0E733A1E0FA0711F435DE44C0F6
:100E5000E833A1E0FA0711F45EDE3EC0E032A0E024
:100E6000FA0711F468DE38C0E034A1E0FA0711F4A3
:100E700088DE32C0E134A1E0FA0711F491DE2CC023
:100E8000E234A1E0FA0711F430DF26C0E132A0E03D
:100E9000FA0711F455DF20C0EA34A1E0FA0711F493
:100EA00077DF1AC0EB34A1E0FA0711F491DF14C028
:100EB0000E949D0DE7E4F5E00E94C80C0E94B60C6C
:100EC000EEE4F5E00E94C80CE8E8F3E10E94BD0DF5
:100ED000E1E0F0E00E943F0D0895E0E0EBBBEABBEB
:100EE000E8BBE7E0E7BBE0E0E5BBE4BBE2BBE1BBBE
:100EF000E3B9E2B9E0936200E0936100E09365003A
:100F0000E0936400E0BFE3BFE2BFE1BFEFBDEEBD31
:100F1000EDBDECBDE7BDE6BDEBBDEABDE9BDE8BD9D
:100F2000E0937900E0937800E5BDE4BDE3BDE09394
:100F30008B00E0938A00E0938900E0938800E093BF
:100F40008100E0938000E0938700E0938600E093C7
:100F50008500E0938400E0938300E0938200E093B7
:100F60006A00EAEAEABFE0EFE9BFE8BFE5E0E7BF11
:100F7000E0E0E0937D00EBB9E8E1EAB9E6E0E09378
:100F80009500E0E0E0939000E7E6E9B9E0E0E09367
:100F90009B00E8E1E0939A00E6E0E0939D00E0E04A
:100FA000E0939800E7E6E0939900E0E8E8B9E0E034
:100FB000E0BDE7B9E4E8E6B9E0E5EDB9E0E0EEB9B7
:100FC000E09374000E94DF0EE0E0EA93EA93EA9374
:100FD0000E944E0BE0E1EA930E94300C7894EFE01F
:100FE000E3B9E0E0E2B9A0E0B0E0E2EDF4E00E94B5
:100FF000D2110EDFFECFFFCF1A930A93AA81BB81D5
:1010000012960E94A911309729F1AA81BB811496EA
:101010000E94A9118F01309761F00230E0E01E07B5
:10102000C0F0F80131978F01AA81BB811496ED932E
:10103000FC93AA81BB8112960E941A0D3197AC8154
:10104000A083AA81BB810E94A911FF2312F00E94F4
:101050001A0D06C0AA81BB81EFEFFFEFED93FC9361
:10106000198108812596089526970E94FA1110E0AB
:10107000AC85BD85E0E0F0E0ED93FC93EA89FB8967
:101080003196EA8BFB8B3197E4912E2FE03011F4EF
:101090000C946109E12FE03039F4253211F411E0AC
:1010A00002C00E94130E0CC1E130A9F4253219F4DC
:1010B0000E94130E04C112E040E000E02D3211F452
:1010C00001E0FEC02B3211F44BE2FAC0203211F4E1
:1010D00040E2F6C002C0E23039F450E013E02033C1
:1010E00011F40068EDC004C0E33011F00C94600905
:1010F000203310F02A3308F007C0AAE05A9F502D81
:10110000E22FE0535E0FDCC0E22FE33649F40E9489
:101110001C0EE889F989A481AA930E94220ECFC0EF
:10112000E33741F40E941C0E0E942A0E0E94640CB8
:101130001E2F0AC0E03761F40E941C0E0E942A0E86
:101140000E946E0C1E2F086002600F7730E035C0E1
:10115000E43611F0E93611F4046002C0E53731F4E9
:10116000ECE8F0E0EE83FF8315E00DC0E83511F404
:10117000086004C0E83711F00C945F09E6E9F0E07C
:10118000EE83FF8314E002FF14C00E941C0E0E9435
:10119000340EAB85AA233AF4EA85FB850E94101130
:1011A000EA87FB874DE2403011F01F5F01C00B7FE3
:1011B00004C00E941C0E0E94340E00FD11C01517C1
:1011C00078F407FF08C002FF04C00B7F242F1150E2
:1011D00001C020E301C020E20E94130E5150EFCF66
:1011E000312F01FF17C03030A1F003FF06C0EE81A0
:1011F000FF812591EE83FF8305C0AE81BF812D91D4
:10120000AE83BF830E94130E503009F0515031500D
:10121000EACF4BC020E3EE81FF810E94B211E88744
:10122000F987EE81FF813296EE83FF83E885F985A9
:10123000AA85BB85AE17BF0750F02F5FA885B9857B
:10124000EA85FB85EA1BFB0BEA87FB87EFCF2A3396
:1012500028F003FF02C0295F01C0295D04FD1AC008
:10126000213320F4A885B985119709F409C05317D3
:1012700010F000FF01C013C020E207FF0BC020E305
:10128000006102FF07C00B7F4A930E94220E50307C
:1012900009F051500E94130E503009F05150315056
:1012A000A885B985129708F0B5CF00FF08C0503067
:1012B00031F05150E0E2EA930E94220EF8CF10E0A4
:1012C000DDCEAC85BD850E94A9110E9401126496F5
:1012D0000895FF92F82E26970E94FC110E943C0E62
:1012E000309719F4EFEFFFEF25C0DE0116960E944C
:1012F00007118D010E943C0EEE83FF83E0E0E8873A
:10130000E987DE011A960E9407110E94A911FA933B
:10131000EA931A930A93ECEFF7E0FA93EA93FE014B
:101320003A96FA93EA93A0DE9F01AE81BF81E0E096
:10133000EC93F9010E9403122A96FF9008957B8195
:101340006A81F981E88177FB770F67FD7160972FDC
:101350009E5781F078F0983190F4AA27BB27882710
:1013600008948795B795A7959A95D1F7EA23FB231B
:10137000682305C0E8947727EE27FF2766276F7755
:10138000769508F4606877F9A991B9918991999156
:10139000EA17FB076807790797FB08950E94430E39
:1013A0000E94C0110E949F090E94BB1119F40E9463
:1013B000430E05C0E6F70E94430E0E94460E249697
:1013C000089524971A930A930E944D0E0E94EF11DC
:1013D0002CF0EFEFFFEF6FE77FEF77C00E94520E28
:1013E0000E94C011EDB7FEB73197FA93EA931F93AD
:1013F0000F930E943D0F0F911F910E94570E0E9464
:101400004D0EE3EFF4E065E37FE30E94E71040F464
:101410000E945C0E0E9404100E94570E0150104062
:101420000E94520E0E94460E7F936F93FF93EF939C
:101430000E94520EA0E0B0E080E89FE30E940410FA
:10144000AF91BF918F919F910E94A2100E94570E61
:101450000E945C0E0E945E0EA6E2B2E485E69FE367
:101460000E945410DF01CB01EEE4F1E164E570E489
:101470000E94650E0E944D0E0E9454107F936F9340
:10148000FF93EF930E946A0EADE4B1E184ED9FE318
:101490000E94FD0FAF91BF918F919F910E94A2106A
:1014A0007F936F93FF93EF93F8010E942A110E949C
:1014B000CA0FA8E1B2E781E39FE30E945410AF9105
:1014C000BF918F919F910E940410198108812A96E3
:1014D000089528971A930A930E946F0EE0E5FCEA9C
:1014E0006EEA72EC0E94E71018F40E94740E88C035
:1014F000EA85FB856C857D850E94EB1129F4E0E08F
:10150000F0E060E87FE37CC00E946F0EE8E1F2E764
:1015100061EB72E40E94E71009F010F40C94950A54
:10152000EFEFFFEF6FE77FE76BC00E946F0EEBE31B
:10153000FAEA68EB7FE30E945410EA87FB876C8726
:101540007D870E94C0112ADF0E94930F8F01F8014E
:101550000E946F0E0E942A110E94CA0F0E94650EFF
:10156000DF01CB01E0E0F0E060E07FE30E94650E88
:101570000E94570E0E945C0E0E945E0EADE6BCE417
:101580008CE69DE30E945410A6EAB3EE86EE90E44A
:101590000E9404100E944D0E0E9454100E94570E8B
:1015A0000E946A0EA8E2BDE886EA91E40E94041057
:1015B000EA83FB836C837D830E94520EAA81BB81E8
:1015C0008C819D810E940410A3EFB4E085EB9FE322
:1015D0000E9454107F936F93FF93EF930E944D0EE0
:1015E0000E946A0E0E94FD0FAF91BF918F919F9153
:1015F0000E94A2100E94C0111A930A930E94500FD9
:10160000198108812E96089524970E94790E0E94D0
:10161000EB1119F40E94740E3FC0A885B9858A8524
:101620009B850E94EF117CF40E947E0E0E94EB11BC
:1016300029F4E0E0F0E060E87FE32EC00E94790E3C
:101640000E94830E29C00E947E0EDE010E94930F2D
:101650000E94AD110E94430E0E94CA0FDF01CB0110
:101660000E947E0E0E94F51119F00E94740E14C0A3
:101670000E94790E0E945E0F0E94830EE887F98710
:101680006A877B87E881E17019F40E94790E04C0B3
:101690000E94790E0E945E0F2C960895EA81E370F5
:1016A000EA83E981E03019F0EA81E061EA83E881C8
:1016B000E03019F0EA81E068EA830E94910EE7E0E9
:1016C0000E94970E0E949D0EC9C00E94910EE0E0FC
:1016D0000E94A10EA881B9810E94B10EAC81BD818A
:1016E0001AC00E94910EE0E00E94C30E0E94CB0E31
:1016F0000E94970E0E94850CEA930E949D0EAEC038
:101700000E94910EE4E00E94A10EAC81BD810E9476
:10171000B10EA881B981EC930E94F30E269608952C
:101720000E94910EE4E00E94970E0E94850CEA93BD
:101730000E94CB0E0E94C30E0E949D0E8FC0E881B6
:10174000E07111F0AC9A01C0AC98E881E07211F040
:10175000AD9A01C0AD98E881E07411F0AE9A01C075
:10176000AE98E881E07811F0AF9A01C0AF988BE0B5
:101770008A95F1F7AA9A8BE18A95F1F7AA988BE1FD
:101780008A95F1F79FC0E881EA93D9DFE881E29575
:10179000E883E881EA93D3DF88EC90E00197F1F7E2
:1017A00091C0E881F0E0E155FA4FE081A981EA0FAC
:1017B000EA93E9DFE981E093B305E881E093B405BA
:1017C00022960895E2E00E94D00EECE0EA93DBDF7F
:1017D000E1E00E94D00EE0E0E093B405E093B305B1
:1017E0000895A881AA3031F0E091B505A091B30524
:1017F000AE1768F0E0E0EA93E091B405EF5FE093A4
:10180000B405EA93CEDFA881AA3009F45BC0E09169
:10181000B305EF5FE093B305A89AE881EA93B3DFDD
:10182000A89850C01A93A981BA81ED91A983BA836F
:101830001E2FE03019F01A93D4DFF5CF0EC01A93A3
:10184000E981FA813196E983FA833197E4911E2F79
:10185000E03019F01A93C5DFF3CF1881239608956D
:10186000A49AA59AA69AA79AA29AA09AA19AAA9887
:10187000A898A998E881E093B505E058E093B105F0
:10188000E881E054E093B205E4E1F0E00E94BD0D90
:101890000E94D60E0E94D60E0E94D60EE0E2EA9377
:1018A0004EDF80E991E00197F1F7E8E2EA936BDF20
:1018B000E4E0EA9368DFE5E8EA9365DFE6E0EA93CF
:1018C00062DF80DF21960895A991B991EE27FF2765
:1018D0006D91662311F03196FBCF0895AA27BB279F
:1018E000E991F9910590002011F01196FBCFFD01CF
:1018F0000895E881E295EF70AE2FAA0FAA0FEA0FC4
:10190000EE0FA991AF70EA0F0895A991EE27AA50A2
:1019100012F0E05FFCCFA65FEA0F0895E0E0EA93E3
:10192000E2E0EA930E94D10BE0EBF0E0FA93EA9355
:101930000C941F0CE1E0EA93E2E0EA930C94D10BE3
:10194000E0EBF0E0FA93EA930C941F0CEA93E2E0E8
:10195000EA930E94D10BF4CFEA93E2E0EA930C946D
:10196000D10BE0E0EA93EA930C94D10BE0E0EA9328
:10197000E1E0EA930C94D10BE0E0EA93E3E0EA9330
:101980000C94D10BFF27662777270E94C01108957A
:10199000FA93EA930C94120CEA93E0E0EA930C9425
:1019A000D10B0E942A110E94C0110895EFE0EA9322
:1019B000E1E0EA930C94D10BEAE0EA93E1E0EA93E8
:1019C0000C94D10BE7E0EA93E1E0EA930C94D10B9D
:1019D000EDE0EA93E3E0EA930C94D10BEAE0EA93BA
:1019E000E3E0EA930C94D10BE7E0EA93E3E0EA93B7
:1019F0000C94D10BFA93EA93E8EDF0E0FA93EA93B2
:101A00000895E0919505F091960560919705709184
:101A1000980508950E94C01184E00E9469092896E3
:101A2000A5CFE0919905F0919A0560919B05709181
:101A30009C050895ED91FD913196FE93EE930895E6
:101A4000A0918905B0918A050895EFE1F0E0E09357
:101A50008905F0938A050895E4E6F0E0FA93EA93A5
:101A60000C94310F0E947911E0938D05F0938E054F
:101A70000C944302E0918905F0918A050895E09362
:101A80008905F0938A050895DBDFA536E0E0BE07FF
:101A90000895D6DFEAE0F0E00E944F1108951A930E
:101AA0000A93E0E0F0E060E271E40E94C011A091CE
:101AB0008B05B0918C05EE81FF81EA1BFB0B319702
:101AC0000E942A110E94CA0F0E94C0110E94040B9A
:101AD0000E94910F8F010E943002BECFA091950508
:101AE000B091960580919705909198050895EF5FC4
:101AF000FF4F6F4F7F4FDF01CB01F8010895E09357
:101B00009505F09396056093970570939805089551
:101B1000E8EEF3E060E070E00E9487110895EA814A
:101B2000FB81A0918B05B0918C050E947911E09307
:101B30008B05F0938C050C9430020E94E20B11CFC0
:101B4000EBE0F0E0E0939D05F0939E050895EDEE47
:101B5000F0E0FA93EA930E941F0C08CFFA93EA93FD
:101B60000E941F0CE0E00895E0939505E093960530
:101B7000E0939705E09398050895FA93EA930C94FF
:101B8000310FA0919905B0919A0580919B05909194
:101B90009C050895E0939905F0939A0560939B0541
:101BA00070939C050895E0E0E0938D05E0938E0529
:101BB0000895E8EEF3E0E1CFFA93EA930C941F0C5A
:101BC000E1E0EA93EA930C94D10BEA93E3E0EA9321
:101BD0000C94D10BFA93EA930C9454030E94E20BF9
:101BE000E2CFFA93EA930E94800BBBCEEA93E1E046
:101BF000EA930C94D10BEA930E94E3010E94251111
:101C00008F01FE013296F6CE84E00E946909289683
:101C1000E4E00895FE013296BBCE84E00E9469099B
:101C20002896EDE008952A93ED85FE85FA93EA93D0
:101C3000E989FA8909950895E889F9893497E88B43
:101C4000F98B0895ED85FE85FA93EA93E989FA897F
:101C500009950895A889B98914960E94A911EE835F
:101C6000FF83FA93EA930895A889B98914960E948C
:101C7000A911EA87FB870895DE011C960E940711CF
:101C80000E94A91108950E94B6110895A0E0B0E045
:101C900080E89FE30E94FD0F0895AE81BF81888593
:101CA00099850895EE81FF81688579850895EE8391
:101CB000FF83688779870895F5DFEFCF0E9454107E
:101CC000EA83FB836C837D8308950E94C5110E9483
:101CD000FD0F0895EA81FB816C817D810895AA85BD
:101CE000BB858C859D850895E0E0F0E060E070E0C4
:101CF0000895E885F9856A857B850895EC81FD81E5
:101D00006E817F8108950E94C0110E94E109AC811B
:101D1000BD818E819F810E9454100E94C0110C943D
:101D2000690A0E94E40EE0EDEA930C94180FEA931E
:101D30000E94180FEA81EA9308950E94180F0C94EC
:101D4000F30EEA930E94180F0E94E40EE1EDEA936D
:101D50000E94180FE1E0EA930E94FD0EEA930C94B2
:101D6000790CEC93E1E0EA930E94FD0EEA930E9465
:101D7000790CAA81BB81EC93E0E0EA930E94FD0E0E
:101D8000EA930C94790CEA930E94180FE881EA9385
:101D9000BCDDEA9308950E94180FE981EA93B5CD5E
:101DA000EA930E94C30BE3E0F0E0E7CEE0E3EA93BE
:101DB0000E949F0B80E991E00197F1F708959098B8
:101DC0009198889A899815C089988898EE2700007C
:101DD000819B0895809B089504D0899A02D0889AA7
:101DE000E1E06BE107C0899A889A03D08898F9DF0F
:101DF000899865E36A95F1F7089578E08898F1DFAE
:101E0000809BFECFEEDF889481990894889AF1DF59
:101E1000EE1F7A9599F77991772311F4899801C08B
:101E2000899ADFDF8898E5DF889ADBDF8998D9CF48
:101E3000E99178E0EE0F10F4899801C0899AD9DF12
:101E40008898CFDF809BFECFCCDF889A7A9591F778
:101E50008998C7DF8898CDDFE1E08199EE27889ADD
:101E6000C0CFE991F991309639F080EA9FE001976F
:101E7000F1F7A8953197C9F70895A991B991E9911A
:101E8000F9916991799177FB660F771F88277E57C3
:101E9000880B7D938C937EE7769567957EF0089509
:101EA000A991B991E991F9916991799177FB660FBF
:101EB000771F7A0F769567950EF0089530976040FA
:101EC000704009F070580895552342F4503811F4C9
:101ED000E0FF04C03196691F791F6BF050E8572767
:101EE00011F45F93CFC05F3F31F0660F000C579540
:101EF0006795752F08955F9300200AF0CFC0C8C082
:101F000050E8192E1522880F991F9527550F879590
:101F100050E8072E0522660F771F7527550F679526
:101F20000895689401C0E8945F93F2DF703818F068
:101F30007F3F08F4A7C056E1571BAAF451955830CB
:101F40000EF4593030F0EFEFFFEF6FEF7FE777F9E6
:101F50001AC077275523B9F0EE0FFF1F661F771FB2
:101F60005A95D1F710C07727583028F0EF2FF62F69
:101F7000672F5850F9CF552331F076956795F7952F
:101F8000E7955A95D1F700200AF44ED15F91089554
:101F9000689401C0E894309760407040B1F000242C
:101FA00026F0772312F400943FD1172E7EE1112002
:101FB00032F07A95EE0FFF1F661F111CF9CFEF2F3D
:101FC000F62F612D5F938ADF5F9108954F93AF01E4
:101FD000FD01DA01AB01BC01CA01402D012C142E18
:101FE0004F910895EA0FFB1F681F0895E095F09543
:101FF0006095EF5FFF4F6F4F08955F9381DF9038DB
:1020000071F150E8152604C05F937ADF903839F1FA
:10201000703821F1572F591B2BF112F4D7DFFACF6B
:10202000583118F0AA27BB278827583028F0AB2F43
:10203000B82F88275850F9CF552329F08695B795A2
:10204000A7955A95D9F7502D512572F0CBDF38F46A
:102050006795F795E795739513F420C0B7DF3EDFDA
:102060005F910895D8F7FBCFEA1BFB0B680B51F08B
:1020700010F40094BBDF662392F3EE0FFF1F661F80
:102080007A95CBF7EE27FF27662777275F9108958C
:10209000EFEFFFEF6FE77FEF5F910895EFEFFFEF57
:1020A0006FE77FE75F9108955F932ADF703851F300
:1020B000903841F301240894791F23F41CF3002085
:1020C0003AF3ECCF0F921F932F933F934F93112727
:1020D00022279927689FA0018F9F302D410D591FFE
:1020E0006B9F300D411D591F8E9F27D0BF9F25D05C
:1020F0006A9F23D0BE9F1DD0AF9F1BD0AE9F110DF6
:10210000291F391F491F591FE32FF42F652F522F05
:102110004F913F912F911F910F9066232AF0550FF9
:10212000EE1FFF1F661F02C073954BF2CDDE5F915D
:102130000895100D211D391F02C0200D311D491FAA
:10214000591F08955F93DCDE703821F411200AF4E2
:102150009FCFA4CF903809F495CF01240894970B12
:102160001BF4D4F30020F3CF792F1F932F933F93C9
:102170004F9311241127222733274427552790E214
:10218000AE17BF078607410730F0AE1BBF0B860BAB
:10219000410B089401C08894551F221F331F111C46
:1021A000AA1FBB1F881F441F9A9551F7F901612D83
:1021B0004F913F912F911F91662332F0550FEE1FE3
:1021C000FF1F661F7A9543F27FDE5F910895992382
:1021D0009AF0772342F0971748F029F4AE17BF071B
:1021E000860720F031F09894889408959894089484
:1021F00008951894889408957723C2F7971798F351
:10220000A9F7EA17FB07680788F399F3ECCF0024D6
:10221000AF0DB01D0895EA0FFB1F681F791F0895C9
:10222000F195E195F0400895F09560957095E195F0
:10223000FF4F6F4F7F4F0895EE230E2EFD0121F0CB
:10224000F595E7950A94E1F70895F695E795F695E3
:10225000E79508956F2F660F660B762F0895FA9F06
:10226000F02DEB9FF00DEA9FE02DF10D089563D066
:10227000F6DF0EF4D5DF08950024112490E1AA0FB3
:10228000BB1F001C111C0E1A1F0A18F40E0E1F1E75
:1022900001C0A1609A9599F7FD01D00108954BD036
:1022A000EBDF0EF4BDDF08953F934F935F9300245F
:1022B00011244427552730E2AA0FBB1F881F991FFE
:1022C000001C111C441F551F0E1A1F0A460B570BEA
:1022D00028F40E0E1F1E461F571F01C0A1603A951D
:1022E00059F7FD01BC01D001CA015F914F913F91A7
:1022F0000895E894B7FF04C0A095B095119668942E
:10230000F7FD8EDFB9DFFD010EF48ADF0895E89452
:1023100097FF09C0A095B09580959095AF5FBF4F8E
:102320008F4F9F4F689477FD7FDFBEDFFD01BC01BB
:102330000EF47ADF0895E894F7FF02C071DF689425
:10234000B7FF06C0A095B095119600F8039400FA67
:102350000895ED91FC9111970895ED93FD936D9380
:102360007C9308950590F491E02D0895E881F9811A
:102370006A817B810895E883F9836A837B8308956A
:102380007A936A93FA93EA930895182E862F612D13
:10239000192E972F712D1B2EBF2FF12D1A2EAE2F18
:1023A000E12D089507D01196EF93EF2F03D0EF9111
:1023B00011970895E19B02C0A895FCCF9FB7F894B0
:1023C000AEBBBFBBE09A8DB3E81719F0EDBBE29A44
:1023D000E19A9FBF089530976040704008950024AF
:1023E0000A160B06080609060895EA17FB07680790
:1023F000790708955A934A933A932A931A930A9322
:1024000008955D814C813B812A811981088108955D
:00000001FF
